{
  "contractName": "Grant",
  "abi": [
    {
      "constant": true,
      "inputs": [],
      "name": "fundingExpiration",
      "outputs": [
        {
          "name": "",
          "type": "uint256"
        }
      ],
      "payable": false,
      "stateMutability": "view",
      "type": "function"
    },
    {
      "constant": true,
      "inputs": [],
      "name": "manager",
      "outputs": [
        {
          "name": "",
          "type": "address"
        }
      ],
      "payable": false,
      "stateMutability": "view",
      "type": "function"
    },
    {
      "constant": true,
      "inputs": [],
      "name": "grantCancelled",
      "outputs": [
        {
          "name": "",
          "type": "bool"
        }
      ],
      "payable": false,
      "stateMutability": "view",
      "type": "function"
    },
    {
      "constant": true,
      "inputs": [
        {
          "name": "",
          "type": "address"
        }
      ],
      "name": "grantees",
      "outputs": [
        {
          "name": "targetFunding",
          "type": "uint256"
        },
        {
          "name": "totalPayed",
          "type": "uint256"
        },
        {
          "name": "payoutApproved",
          "type": "uint256"
        }
      ],
      "payable": false,
      "stateMutability": "view",
      "type": "function"
    },
    {
      "constant": true,
      "inputs": [],
      "name": "contractExpiration",
      "outputs": [
        {
          "name": "",
          "type": "uint256"
        }
      ],
      "payable": false,
      "stateMutability": "view",
      "type": "function"
    },
    {
      "constant": true,
      "inputs": [],
      "name": "totalPayed",
      "outputs": [
        {
          "name": "",
          "type": "uint256"
        }
      ],
      "payable": false,
      "stateMutability": "view",
      "type": "function"
    },
    {
      "constant": true,
      "inputs": [
        {
          "name": "",
          "type": "address"
        }
      ],
      "name": "donors",
      "outputs": [
        {
          "name": "funded",
          "type": "uint256"
        },
        {
          "name": "refunded",
          "type": "uint256"
        }
      ],
      "payable": false,
      "stateMutability": "view",
      "type": "function"
    },
    {
      "constant": true,
      "inputs": [],
      "name": "totalRefunded",
      "outputs": [
        {
          "name": "",
          "type": "uint256"
        }
      ],
      "payable": false,
      "stateMutability": "view",
      "type": "function"
    },
    {
      "constant": true,
      "inputs": [],
      "name": "currency",
      "outputs": [
        {
          "name": "",
          "type": "address"
        }
      ],
      "payable": false,
      "stateMutability": "view",
      "type": "function"
    },
    {
      "constant": true,
      "inputs": [],
      "name": "targetFunding",
      "outputs": [
        {
          "name": "",
          "type": "uint256"
        }
      ],
      "payable": false,
      "stateMutability": "view",
      "type": "function"
    },
    {
      "constant": true,
      "inputs": [],
      "name": "pendingPayments",
      "outputs": [
        {
          "name": "",
          "type": "uint256"
        }
      ],
      "payable": false,
      "stateMutability": "view",
      "type": "function"
    },
    {
      "constant": true,
      "inputs": [],
      "name": "totalFunding",
      "outputs": [
        {
          "name": "",
          "type": "uint256"
        }
      ],
      "payable": false,
      "stateMutability": "view",
      "type": "function"
    },
    {
      "inputs": [
        {
          "name": "_grantees",
          "type": "address[]"
        },
        {
          "name": "_amounts",
          "type": "uint256[]"
        },
        {
          "name": "_manager",
          "type": "address"
        },
        {
          "name": "_currency",
          "type": "address"
        },
        {
          "name": "_targetFunding",
          "type": "uint256"
        },
        {
          "name": "_fundingExpiration",
          "type": "uint256"
        },
        {
          "name": "_contractExpiration",
          "type": "uint256"
        }
      ],
      "payable": false,
      "stateMutability": "nonpayable",
      "type": "constructor"
    },
    {
      "payable": true,
      "stateMutability": "payable",
      "type": "fallback"
    },
    {
      "anonymous": false,
      "inputs": [
        {
          "indexed": true,
          "name": "support",
          "type": "bool"
        },
        {
          "indexed": true,
          "name": "signaler",
          "type": "address"
        },
        {
          "indexed": true,
          "name": "token",
          "type": "address"
        },
        {
          "indexed": false,
          "name": "value",
          "type": "uint256"
        }
      ],
      "name": "LogSignal",
      "type": "event"
    },
    {
      "anonymous": false,
      "inputs": [],
      "name": "LogFundingComplete",
      "type": "event"
    },
    {
      "anonymous": false,
      "inputs": [],
      "name": "LogGrantCancellation",
      "type": "event"
    },
    {
      "anonymous": false,
      "inputs": [
        {
          "indexed": true,
          "name": "donor",
          "type": "address"
        },
        {
          "indexed": false,
          "name": "value",
          "type": "uint256"
        }
      ],
      "name": "LogFunding",
      "type": "event"
    },
    {
      "anonymous": false,
      "inputs": [
        {
          "indexed": true,
          "name": "donor",
          "type": "address"
        },
        {
          "indexed": false,
          "name": "value",
          "type": "uint256"
        }
      ],
      "name": "LogRefund",
      "type": "event"
    },
    {
      "anonymous": false,
      "inputs": [
        {
          "indexed": true,
          "name": "grantee",
          "type": "address"
        },
        {
          "indexed": false,
          "name": "value",
          "type": "uint256"
        }
      ],
      "name": "LogPayment",
      "type": "event"
    },
    {
      "anonymous": false,
      "inputs": [
        {
          "indexed": true,
          "name": "grantee",
          "type": "address"
        },
        {
          "indexed": false,
          "name": "value",
          "type": "uint256"
        }
      ],
      "name": "LogPaymentApproval",
      "type": "event"
    },
    {
      "anonymous": false,
      "inputs": [
        {
          "indexed": false,
          "name": "amount",
          "type": "uint256"
        },
        {
          "indexed": false,
          "name": "totalRefunded",
          "type": "uint256"
        }
      ],
      "name": "LogRefundApproval",
      "type": "event"
    },
    {
      "constant": true,
      "inputs": [
        {
          "name": "toCheck",
          "type": "address"
        }
      ],
      "name": "isManager",
      "outputs": [
        {
          "name": "",
          "type": "bool"
        }
      ],
      "payable": false,
      "stateMutability": "view",
      "type": "function"
    },
    {
      "constant": true,
      "inputs": [],
      "name": "availableBalance",
      "outputs": [
        {
          "name": "",
          "type": "uint256"
        }
      ],
      "payable": false,
      "stateMutability": "view",
      "type": "function"
    },
    {
      "constant": true,
      "inputs": [],
      "name": "canFund",
      "outputs": [
        {
          "name": "",
          "type": "bool"
        }
      ],
      "payable": false,
      "stateMutability": "view",
      "type": "function"
    },
    {
      "constant": true,
      "inputs": [
        {
          "name": "grantee",
          "type": "address"
        }
      ],
      "name": "remainingAllocation",
      "outputs": [
        {
          "name": "",
          "type": "uint256"
        }
      ],
      "payable": false,
      "stateMutability": "view",
      "type": "function"
    },
    {
      "constant": false,
      "inputs": [
        {
          "name": "value",
          "type": "uint256"
        }
      ],
      "name": "fund",
      "outputs": [
        {
          "name": "",
          "type": "bool"
        }
      ],
      "payable": false,
      "stateMutability": "nonpayable",
      "type": "function"
    },
    {
      "constant": false,
      "inputs": [
        {
          "name": "value",
          "type": "uint256"
        },
        {
          "name": "grantee",
          "type": "address"
        }
      ],
      "name": "approvePayout",
      "outputs": [
        {
          "name": "",
          "type": "bool"
        }
      ],
      "payable": false,
      "stateMutability": "nonpayable",
      "type": "function"
    },
    {
      "constant": false,
      "inputs": [],
      "name": "cancelGrant",
      "outputs": [],
      "payable": false,
      "stateMutability": "nonpayable",
      "type": "function"
    },
    {
      "constant": false,
      "inputs": [
        {
          "name": "value",
          "type": "uint256"
        },
        {
          "name": "grantee",
          "type": "address"
        }
      ],
      "name": "approveRefund",
      "outputs": [],
      "payable": false,
      "stateMutability": "nonpayable",
      "type": "function"
    },
    {
      "constant": false,
      "inputs": [
        {
          "name": "support",
          "type": "bool"
        },
        {
          "name": "value",
          "type": "uint256"
        }
      ],
      "name": "signal",
      "outputs": [
        {
          "name": "",
          "type": "bool"
        }
      ],
      "payable": true,
      "stateMutability": "payable",
      "type": "function"
    },
    {
      "constant": false,
      "inputs": [
        {
          "name": "donor",
          "type": "address"
        }
      ],
      "name": "withdrawRefund",
      "outputs": [
        {
          "name": "",
          "type": "bool"
        }
      ],
      "payable": false,
      "stateMutability": "nonpayable",
      "type": "function"
    }
  ],
  "bytecode": "0x6080604052670de0b6b3a7640000600d553480156200001d57600080fd5b506040516200419738038062004197833981810160405262000043919081019062000648565b6001600c8190555060008214806200005a57508082105b6200009c576040517f08c379a0000000000000000000000000000000000000000000000000000000008152600401620000939062000d01565b60405180910390fd5b6000821480620000ab57504282115b620000ed576040517f08c379a0000000000000000000000000000000000000000000000000000000008152600401620000e49062000cbd565b60405180910390fd5b6000811480620000fc57504281115b6200013e576040517f08c379a0000000000000000000000000000000000000000000000000000000008152600401620001359062000c57565b60405180910390fd5b600087511162000185576040517f08c379a00000000000000000000000000000000000000000000000000000000081526004016200017c9062000c35565b60405180910390fd5b8551875114620001cc576040517f08c379a0000000000000000000000000000000000000000000000000000000008152600401620001c39062000cdf565b60405180910390fd5b846000806101000a81548173ffffffffffffffffffffffffffffffffffffffff021916908373ffffffffffffffffffffffffffffffffffffffff16021790555083600160006101000a81548173ffffffffffffffffffffffffffffffffffffffff021916908373ffffffffffffffffffffffffffffffffffffffff1602179055508260028190555081600781905550806008819055506000806000905060008090505b8951811015620004535760008a82815181106200028857fe5b6020026020010151905060008a8381518110620002a157fe5b6020026020010151905060008111620002f1576040517f08c379a0000000000000000000000000000000000000000000000000000000008152600401620002e89062000bcf565b60405180910390fd5b8373ffffffffffffffffffffffffffffffffffffffff168273ffffffffffffffffffffffffffffffffffffffff161162000362576040517f08c379a0000000000000000000000000000000000000000000000000000000008152600401620003599062000bf1565b60405180910390fd5b8973ffffffffffffffffffffffffffffffffffffffff168273ffffffffffffffffffffffffffffffffffffffff161415620003d4576040517f08c379a0000000000000000000000000000000000000000000000000000000008152600401620003cb9062000c9b565b60405180910390fd5b620003f78186620004a86401000000000262001ae6179091906401000000009004565b945081935080600a60008473ffffffffffffffffffffffffffffffffffffffff1673ffffffffffffffffffffffffffffffffffffffff16815260200190815260200160002060000181905550505080806001019150506200026f565b5084821462000499576040517f08c379a0000000000000000000000000000000000000000000000000000000008152600401620004909062000c79565b60405180910390fd5b50505050505050505062000e26565b600080828401905083811015620004f6576040517f08c379a0000000000000000000000000000000000000000000000000000000008152600401620004ed9062000c13565b60405180910390fd5b8091505092915050565b600081519050620005118162000df2565b92915050565b600082601f8301126200052957600080fd5b8151620005406200053a8262000d51565b62000d23565b915081818352602084019350602081019050838560208402820111156200056657600080fd5b60005b838110156200059a57816200057f888262000500565b84526020840193506020830192505060018101905062000569565b5050505092915050565b600082601f830112620005b657600080fd5b8151620005cd620005c78262000d7a565b62000d23565b91508181835260208401935060208101905083856020840282011115620005f357600080fd5b60005b838110156200062757816200060c888262000631565b845260208401935060208301925050600181019050620005f6565b5050505092915050565b600081519050620006428162000e0c565b92915050565b600080600080600080600060e0888a0312156200066457600080fd5b600088015167ffffffffffffffff8111156200067f57600080fd5b6200068d8a828b0162000517565b975050602088015167ffffffffffffffff811115620006ab57600080fd5b620006b98a828b01620005a4565b9650506040620006cc8a828b0162000500565b9550506060620006df8a828b0162000500565b9450506080620006f28a828b0162000631565b93505060a0620007058a828b0162000631565b92505060c0620007188a828b0162000631565b91505092959891949750929550565b60006200073660448362000da3565b91507f636f6e7374727563746f723a3a496e76616c696420417267756d656e742e206360008301527f757272656e74416d6f756e74206d75737420626520677265617465722074686160208301527f6e20302e000000000000000000000000000000000000000000000000000000006040830152606082019050919050565b6000620007c460438362000da3565b91507f636f6e7374727563746f723a3a496e76616c696420417267756d656e742e204460008301527f75706c6963617465206f72206f7574206f66206f72646572205f6772616e746560208301527f65732e00000000000000000000000000000000000000000000000000000000006040830152606082019050919050565b600062000852601b8362000da3565b91507f536166654d6174683a206164646974696f6e206f766572666c6f7700000000006000830152602082019050919050565b600062000894603e8362000da3565b91507f636f6e7374727563746f723a3a496e76616c696420417267756d656e742e204d60008301527f7573742068617665206f6e65206f72206d6f7265206772616e746565732e00006020830152604082019050919050565b6000620008fc603d8362000da3565b91507f636f6e7374727563746f723a3a496e76616c696420417267756d656e742e205f60008301527f636f6e747261637445787069726174696f6e206e6f74203e206e6f772e0000006020830152604082019050919050565b600062000964604c8362000da3565b91507f636f6e7374727563746f723a3a496e76616c696420417267756d656e742e205f60008301527f74617267657446756e64696e67206d75737420657175616c20746f74616c467560208301527f6e64696e67416d6f756e742e00000000000000000000000000000000000000006040830152606082019050919050565b6000620009f2603c8362000da3565b91507f636f6e7374727563746f723a3a496e76616c696420417267756d656e742e205f60008301527f6d616e616765722063616e6e6f742062652061204772616e7465652e000000006020830152604082019050919050565b600062000a5a603c8362000da3565b91507f636f6e7374727563746f723a3a496e76616c696420417267756d656e742e205f60008301527f66756e64696e6745787069726174696f6e206e6f74203e206e6f772e000000006020830152604082019050919050565b600062000ac2604a8362000da3565b91507f636f6e7374727563746f723a3a496e76616c696420417267756d656e742e205f60008301527f6772616e746565732e6c656e677468206d75737420657175616c205f616d6f7560208301527f6e74732e6c656e677468000000000000000000000000000000000000000000006040830152606082019050919050565b600062000b50604c8362000da3565b91507f636f6e7374727563746f723a3a496e76616c696420417267756d656e742e205f60008301527f66756e64696e6745787069726174696f6e206e6f74203c205f636f6e7472616360208301527f7445787069726174696f6e2e00000000000000000000000000000000000000006040830152606082019050919050565b6000602082019050818103600083015262000bea8162000727565b9050919050565b6000602082019050818103600083015262000c0c81620007b5565b9050919050565b6000602082019050818103600083015262000c2e8162000843565b9050919050565b6000602082019050818103600083015262000c508162000885565b9050919050565b6000602082019050818103600083015262000c7281620008ed565b9050919050565b6000602082019050818103600083015262000c948162000955565b9050919050565b6000602082019050818103600083015262000cb681620009e3565b9050919050565b6000602082019050818103600083015262000cd88162000a4b565b9050919050565b6000602082019050818103600083015262000cfa8162000ab3565b9050919050565b6000602082019050818103600083015262000d1c8162000b41565b9050919050565b6000604051905081810181811067ffffffffffffffff8211171562000d4757600080fd5b8060405250919050565b600067ffffffffffffffff82111562000d6957600080fd5b602082029050602081019050919050565b600067ffffffffffffffff82111562000d9257600080fd5b602082029050602081019050919050565b600082825260208201905092915050565b600062000dc18262000dc8565b9050919050565b600073ffffffffffffffffffffffffffffffffffffffff82169050919050565b6000819050919050565b62000dfd8162000db4565b811462000e0957600080fd5b50565b62000e178162000de8565b811462000e2357600080fd5b50565b6133618062000e366000396000f3fe608060405260043610610152576000357c010000000000000000000000000000000000000000000000000000000090048063bc352c91116100c8578063d90829621161008c578063d90829621461046c578063e5a6b10f14610497578063f3ae2415146104c2578063f4d42453146104ff578063f91c95041461052a578063fe47a8a71461055557610152565b8063bc352c9114610372578063bc5791031461039d578063ca0cdea8146103c8578063ca1d209d14610406578063d5f8ab891461044357610152565b8063589596b71161011a578063589596b71461024c5780636491768f1461028b57806381dc064b146102a2578063a16c86f7146102df578063a814001f1461031c578063ab2f0e511461034757610152565b806303bd2dfe1461015e57806316fecbb21461018e578063481c6a75146101b957806356039d6e146101e45780635676e41a1461020f575b61015b34610580565b50005b61017860048036036101739190810190611f75565b610831565b6040516101859190612df4565b60405180910390f35b34801561019a57600080fd5b506101a3610c79565b6040516101b091906131cf565b60405180910390f35b3480156101c557600080fd5b506101ce610c7f565b6040516101db9190612d50565b60405180910390f35b3480156101f057600080fd5b506101f9610ca4565b6040516102069190612df4565b60405180910390f35b34801561021b57600080fd5b5061023660048036036102319190810190611f23565b610cb7565b60405161024391906131cf565b60405180910390f35b34801561025857600080fd5b50610273600480360361026e9190810190611f23565b610dab565b60405161028293929190613213565b60405180910390f35b34801561029757600080fd5b506102a0610dd5565b005b3480156102ae57600080fd5b506102c960048036036102c49190810190611fda565b610f1d565b6040516102d69190612df4565b60405180910390f35b3480156102eb57600080fd5b5061030660048036036103019190810190611f23565b611331565b6040516103139190612df4565b60405180910390f35b34801561032857600080fd5b506103316117d7565b60405161033e91906131cf565b60405180910390f35b34801561035357600080fd5b5061035c6117dd565b60405161036991906131cf565b60405180910390f35b34801561037e57600080fd5b50610387611823565b6040516103949190612df4565b60405180910390f35b3480156103a957600080fd5b506103b2611863565b6040516103bf91906131cf565b60405180910390f35b3480156103d457600080fd5b506103ef60048036036103ea9190810190611f23565b611869565b6040516103fd9291906131ea565b60405180910390f35b34801561041257600080fd5b5061042d60048036036104289190810190611fb1565b610580565b60405161043a9190612df4565b60405180910390f35b34801561044f57600080fd5b5061046a60048036036104659190810190611fda565b61188d565b005b34801561047857600080fd5b50610481611a4f565b60405161048e91906131cf565b60405180910390f35b3480156104a357600080fd5b506104ac611a55565b6040516104b99190612d50565b60405180910390f35b3480156104ce57600080fd5b506104e960048036036104e49190810190611f23565b611a7b565b6040516104f69190612df4565b60405180910390f35b34801561050b57600080fd5b50610514611ad4565b60405161052191906131cf565b60405180910390f35b34801561053657600080fd5b5061053f611ada565b60405161054c91906131cf565b60405180910390f35b34801561056157600080fd5b5061056a611ae0565b60405161057791906131cf565b60405180910390f35b60006001600c600082825401925050819055506000600c5490506105a2611823565b6105e1576040517f08c379a00000000000000000000000000000000000000000000000000000000081526004016105d8906130cf565b60405180910390fd5b60006105f884600354611ae690919063ffffffff16565b905060006002548211156106235761061b60025483611b3b90919063ffffffff16565b905060025491505b61068a8161067c87600b60003373ffffffffffffffffffffffffffffffffffffffff1673ffffffffffffffffffffffffffffffffffffffff16815260200190815260200160002060000154611ae690919063ffffffff16565b611b3b90919063ffffffff16565b600b60003373ffffffffffffffffffffffffffffffffffffffff1673ffffffffffffffffffffffffffffffffffffffff1681526020019081526020016000206000018190555081600381905550600073ffffffffffffffffffffffffffffffffffffffff16600160009054906101000a900473ffffffffffffffffffffffffffffffffffffffff1673ffffffffffffffffffffffffffffffffffffffff16141561073d576107388582611b91565b610748565b6107478582611c98565b5b3373ffffffffffffffffffffffffffffffffffffffff167f9f1a5e1a5d3381f9af1a62f8d61e4ae71444e28af488786cb10c8b2b457632ae6107938388611b3b90919063ffffffff16565b6040516107a091906131cf565b60405180910390a260025460035414156107e1577f512829c8dab135587881316e27c9e1cd524033b3daf7ae881d2c801943ea938160405160405180910390a15b600193505050600c54811461082b576040517f08c379a00000000000000000000000000000000000000000000000000000000081526004016108229061312f565b60405180910390fd5b50919050565b600060025460035410610879576040517f08c379a000000000000000000000000000000000000000000000000000000000815260040161087090612fcf565b60405180910390fd5b600160009054906101000a900473ffffffffffffffffffffffffffffffffffffffff1673ffffffffffffffffffffffffffffffffffffffff163373ffffffffffffffffffffffffffffffffffffffff168415157fa1d829418391d83a1fa2178a31e7ea2a8941658722e6096aa43c3d11c8c656bd856040516108fb91906131cf565b60405180910390a4600073ffffffffffffffffffffffffffffffffffffffff16600160009054906101000a900473ffffffffffffffffffffffffffffffffffffffff1673ffffffffffffffffffffffffffffffffffffffff161415610a155781341461099c576040517f08c379a0000000000000000000000000000000000000000000000000000000008152600401610993906130af565b60405180910390fd5b3373ffffffffffffffffffffffffffffffffffffffff166108fc349081150290604051600060405180830381858888f19350505050610a10576040517f08c379a0000000000000000000000000000000000000000000000000000000008152600401610a079061314f565b60405180910390fd5b610c6f565b60003414610a58576040517f08c379a0000000000000000000000000000000000000000000000000000000008152600401610a4f90612eef565b60405180910390fd5b600160009054906101000a900473ffffffffffffffffffffffffffffffffffffffff1673ffffffffffffffffffffffffffffffffffffffff166323b872dd3330856040518463ffffffff167c0100000000000000000000000000000000000000000000000000000000028152600401610ad393929190612d6b565b602060405180830381600087803b158015610aed57600080fd5b505af1158015610b01573d6000803e3d6000fd5b505050506040513d601f19601f82011682018060405250610b259190810190611f4c565b610b64576040517f08c379a0000000000000000000000000000000000000000000000000000000008152600401610b5b90612f8f565b60405180910390fd5b600160009054906101000a900473ffffffffffffffffffffffffffffffffffffffff1673ffffffffffffffffffffffffffffffffffffffff1663a9059cbb33846040518363ffffffff167c0100000000000000000000000000000000000000000000000000000000028152600401610bdd929190612da2565b602060405180830381600087803b158015610bf757600080fd5b505af1158015610c0b573d6000803e3d6000fd5b505050506040513d601f19601f82011682018060405250610c2f9190810190611f4c565b610c6e576040517f08c379a0000000000000000000000000000000000000000000000000000000008152600401610c659061318f565b60405180910390fd5b5b6001905092915050565b60075481565b6000809054906101000a900473ffffffffffffffffffffffffffffffffffffffff1681565b600960009054906101000a900460ff1681565b6000610da4600a60008473ffffffffffffffffffffffffffffffffffffffff1673ffffffffffffffffffffffffffffffffffffffff16815260200190815260200160002060020154610d96600a60008673ffffffffffffffffffffffffffffffffffffffff1673ffffffffffffffffffffffffffffffffffffffff16815260200190815260200160002060010154600a60008773ffffffffffffffffffffffffffffffffffffffff1673ffffffffffffffffffffffffffffffffffffffff16815260200190815260200160002060000154611b3b90919063ffffffff16565b611b3b90919063ffffffff16565b9050919050565b600a6020528060005260406000206000915090508060000154908060010154908060020154905083565b600960009054906101000a900460ff1615610e25576040517f08c379a0000000000000000000000000000000000000000000000000000000008152600401610e1c90612f4f565b60405180910390fd5b610e2e33611a7b565b610eb257600060075414158015610e4757504260075411155b8015610e565750600254600354105b80610e725750600060085414158015610e7157504260085411155b5b610eb1576040517f08c379a0000000000000000000000000000000000000000000000000000000008152600401610ea890612f0f565b60405180910390fd5b5b610ece610ebd6117dd565b600554611ae690919063ffffffff16565b6005819055506001600960006101000a81548160ff0219169083151502179055507f0e6e9dacf028bdcfdf84ef7bae6711f8d6b15d47d98c1f9772447c1ea4bc0dd660405160405180910390a1565b6000610f2833611a7b565b610f67576040517f08c379a0000000000000000000000000000000000000000000000000000000008152600401610f5e906130ef565b60405180910390fd5b60035460025414610fad576040517f08c379a0000000000000000000000000000000000000000000000000000000008152600401610fa490612faf565b60405180910390fd5b600960009054906101000a900460ff1615610ffd576040517f08c379a0000000000000000000000000000000000000000000000000000000008152600401610ff490612e0f565b60405180910390fd5b8261100783610cb7565b1015611048576040517f08c379a000000000000000000000000000000000000000000000000000000000815260040161103f90612e2f565b60405180910390fd5b61105d83600454611ae690919063ffffffff16565b6004819055506110b883600a60008573ffffffffffffffffffffffffffffffffffffffff1673ffffffffffffffffffffffffffffffffffffffff16815260200190815260200160002060010154611ae690919063ffffffff16565b600a60008473ffffffffffffffffffffffffffffffffffffffff1673ffffffffffffffffffffffffffffffffffffffff16815260200190815260200160002060010181905550600073ffffffffffffffffffffffffffffffffffffffff16600160009054906101000a900473ffffffffffffffffffffffffffffffffffffffff1673ffffffffffffffffffffffffffffffffffffffff1614156111ce573373ffffffffffffffffffffffffffffffffffffffff166108fc849081150290604051600060405180830381858888f193505050506111c9576040517f08c379a00000000000000000000000000000000000000000000000000000000081526004016111c090612ecf565b60405180910390fd5b6112d9565b600160009054906101000a900473ffffffffffffffffffffffffffffffffffffffff1673ffffffffffffffffffffffffffffffffffffffff1663a9059cbb83856040518363ffffffff167c0100000000000000000000000000000000000000000000000000000000028152600401611247929190612dcb565b602060405180830381600087803b15801561126157600080fd5b505af1158015611275573d6000803e3d6000fd5b505050506040513d601f19601f820116820180604052506112999190810190611f4c565b6112d8576040517f08c379a00000000000000000000000000000000000000000000000000000000081526004016112cf906131af565b60405180910390fd5b5b8173ffffffffffffffffffffffffffffffffffffffff167f27a391d95d67e3626574fb5fbe3532bb7366e9254957b1f0e840953c248b2aa88460405161131f91906131cf565b60405180910390a26001905092915050565b60006001600c600082825401925050819055506000600c54905060006113b86003546113aa600d54600b60008973ffffffffffffffffffffffffffffffffffffffff1673ffffffffffffffffffffffffffffffffffffffff16815260200190815260200160002060000154611e0390919063ffffffff16565b611e7390919063ffffffff16565b905060006113e5600d546113d784600554611e0390919063ffffffff16565b611e7390919063ffffffff16565b9050600b60008673ffffffffffffffffffffffffffffffffffffffff1673ffffffffffffffffffffffffffffffffffffffff1681526020019081526020016000206001015481101561146c576040517f08c379a00000000000000000000000000000000000000000000000000000000081526004016114639061316f565b60405180910390fd5b6114c1600b60008773ffffffffffffffffffffffffffffffffffffffff1673ffffffffffffffffffffffffffffffffffffffff1681526020019081526020016000206001015482611b3b90919063ffffffff16565b905061151881600b60008873ffffffffffffffffffffffffffffffffffffffff1673ffffffffffffffffffffffffffffffffffffffff16815260200190815260200160002060010154611ae690919063ffffffff16565b600b60008773ffffffffffffffffffffffffffffffffffffffff1673ffffffffffffffffffffffffffffffffffffffff16815260200190815260200160002060010181905550600073ffffffffffffffffffffffffffffffffffffffff16600160009054906101000a900473ffffffffffffffffffffffffffffffffffffffff1673ffffffffffffffffffffffffffffffffffffffff16141561162e573373ffffffffffffffffffffffffffffffffffffffff166108fc829081150290604051600060405180830381858888f19350505050611629576040517f08c379a00000000000000000000000000000000000000000000000000000000081526004016116209061308f565b60405180910390fd5b611739565b600160009054906101000a900473ffffffffffffffffffffffffffffffffffffffff1673ffffffffffffffffffffffffffffffffffffffff1663a9059cbb86836040518363ffffffff167c01000000000000000000000000000000000000000000000000000000000281526004016116a7929190612dcb565b602060405180830381600087803b1580156116c157600080fd5b505af11580156116d5573d6000803e3d6000fd5b505050506040513d601f19601f820116820180604052506116f99190810190611f4c565b611738576040517f08c379a000000000000000000000000000000000000000000000000000000000815260040161172f9061310f565b60405180910390fd5b5b8473ffffffffffffffffffffffffffffffffffffffff167fb6c0eca8138e097d71e2dd31e19a1266487f0553f170b7260ffe68bcbe9ff8a78260405161177f91906131cf565b60405180910390a2600193505050600c5481146117d1576040517f08c379a00000000000000000000000000000000000000000000000000000000081526004016117c89061312f565b60405180910390fd5b50919050565b60085481565b600061181e600654611810600554611802600454600354611b3b90919063ffffffff16565b611b3b90919063ffffffff16565b611b3b90919063ffffffff16565b905090565b6000806007541480611836575042600754115b80156118455750600254600354105b801561185e5750600960009054906101000a900460ff16155b905090565b60045481565b600b6020528060005260406000206000915090508060000154908060010154905082565b61189633611a7b565b6118d5576040517f08c379a00000000000000000000000000000000000000000000000000000000081526004016118cc906130ef565b60405180910390fd5b600073ffffffffffffffffffffffffffffffffffffffff168173ffffffffffffffffffffffffffffffffffffffff16146119ab578161191382610cb7565b1015611954576040517f08c379a000000000000000000000000000000000000000000000000000000000815260040161194b90612e8f565b60405180910390fd5b6119a982600a60008473ffffffffffffffffffffffffffffffffffffffff1673ffffffffffffffffffffffffffffffffffffffff16815260200190815260200160002060000154611b3b90919063ffffffff16565b505b6119b36117dd565b8211156119f5576040517f08c379a00000000000000000000000000000000000000000000000000000000081526004016119ec90612fef565b60405180910390fd5b611a0a82600554611ae690919063ffffffff16565b6005819055507f481131d4f3f5d97379f8d85b228d5cdf2a381a9666ca66d4b4094553a8e10ad082600554604051611a439291906131ea565b60405180910390a15050565b60055481565b600160009054906101000a900473ffffffffffffffffffffffffffffffffffffffff1681565b60008173ffffffffffffffffffffffffffffffffffffffff166000809054906101000a900473ffffffffffffffffffffffffffffffffffffffff1673ffffffffffffffffffffffffffffffffffffffff16149050919050565b60025481565b60065481565b60035481565b600080828401905083811015611b31576040517f08c379a0000000000000000000000000000000000000000000000000000000008152600401611b2890612eaf565b60405180910390fd5b8091505092915050565b600082821115611b80576040517f08c379a0000000000000000000000000000000000000000000000000000000008152600401611b7790612f2f565b60405180910390fd5b600082840390508091505092915050565b813414611bd3576040517f08c379a0000000000000000000000000000000000000000000000000000000008152600401611bca90612e6f565b60405180910390fd5b60003411611c16576040517f08c379a0000000000000000000000000000000000000000000000000000000008152600401611c0d9061304f565b60405180910390fd5b6000811115611c94573373ffffffffffffffffffffffffffffffffffffffff166108fc829081150290604051600060405180830381858888f19350505050611c93576040517f08c379a0000000000000000000000000000000000000000000000000000000008152600401611c8a9061302f565b60405180910390fd5b5b5050565b60003414611cdb576040517f08c379a0000000000000000000000000000000000000000000000000000000008152600401611cd290612e4f565b60405180910390fd5b6000611cf08284611b3b90919063ffffffff16565b9050600160009054906101000a900473ffffffffffffffffffffffffffffffffffffffff1673ffffffffffffffffffffffffffffffffffffffff166323b872dd3330846040518463ffffffff167c0100000000000000000000000000000000000000000000000000000000028152600401611d6d93929190612d6b565b602060405180830381600087803b158015611d8757600080fd5b505af1158015611d9b573d6000803e3d6000fd5b505050506040513d601f19601f82011682018060405250611dbf9190810190611f4c565b611dfe576040517f08c379a0000000000000000000000000000000000000000000000000000000008152600401611df59061306f565b60405180910390fd5b505050565b600080831415611e165760009050611e6d565b6000828402905082848281611e2757fe5b0414611e68576040517f08c379a0000000000000000000000000000000000000000000000000000000008152600401611e5f9061300f565b60405180910390fd5b809150505b92915050565b6000808211611eb7576040517f08c379a0000000000000000000000000000000000000000000000000000000008152600401611eae90612f6f565b60405180910390fd5b6000828481611ec257fe5b0490508091505092915050565b600081359050611ede816132d9565b92915050565b600081359050611ef3816132f0565b92915050565b600081519050611f08816132f0565b92915050565b600081359050611f1d81613307565b92915050565b600060208284031215611f3557600080fd5b6000611f4384828501611ecf565b91505092915050565b600060208284031215611f5e57600080fd5b6000611f6c84828501611ef9565b91505092915050565b60008060408385031215611f8857600080fd5b6000611f9685828601611ee4565b9250506020611fa785828601611f0e565b9150509250929050565b600060208284031215611fc357600080fd5b6000611fd184828501611f0e565b91505092915050565b60008060408385031215611fed57600080fd5b6000611ffb85828601611f0e565b925050602061200c85828601611ecf565b9150509250929050565b61201f816132a3565b82525050565b61202e8161325b565b82525050565b61203d8161326d565b82525050565b600061205060428361324a565b91507f617070726f76655061796f75743a3a537461747573204572726f722e2043616e60008301527f6e6f7420617070726f7665206966206772616e742069732063616e63656c6c6560208301527f642e0000000000000000000000000000000000000000000000000000000000006040830152606082019050919050565b60006120dc604a8361324a565b91507f617070726f76655061796f75743a3a496e76616c696420417267756d656e742e60008301527f2076616c75652063616e6e6f74206578636565642072656d61696e696e67206160208301527f6c6c6f636174696f6e2e000000000000000000000000000000000000000000006040830152606082019050919050565b600061216860498361324a565b91507f66756e6457697468546f6b656e3a3a43757272656e6379204572726f722e204360008301527f616e6e6f742073656e6420457468657220746f206120746f6b656e2066756e6460208301527f6564206772616e742e00000000000000000000000000000000000000000000006040830152606082019050919050565b60006121f4603c8361324a565b91507f66756e645769746845746865723a3a496e76616c696420417267756d656e742e60008301527f2076616c7565206d75737420657175616c206d73672e76616c75652e000000006020830152604082019050919050565b600061225a60498361324a565b91507f617070726f7665526566756e643a3a496e76616c696420417267756d656e742e60008301527f2056616c75652067726561746572207468616e2072656d61696e696e6720616c60208301527f6c6f636174696f6e2e00000000000000000000000000000000000000000000006040830152606082019050919050565b60006122e6601b8361324a565b91507f536166654d6174683a206164646974696f6e206f766572666c6f7700000000006000830152602082019050919050565b6000612326603f8361324a565b91507f617070726f76655061796f75743a3a5472616e73666572204572726f722e205560008301527f6e61626c6520746f2073656e642076616c756520746f204772616e7465652e006020830152604082019050919050565b600061238c60428361324a565b91507f7369676e616c3a3a43757272656e6379204572726f722e2043616e6e6f74207360008301527f656e6420457468657220746f206120746f6b656e2066756e646564206772616e60208301527f742e0000000000000000000000000000000000000000000000000000000000006040830152606082019050919050565b6000612418603f8361324a565b91507f63616e63656c4772616e743a3a496e76616c69642053656e6465722e2053656e60008301527f646572206d757374206265206d616e61676572206f7220657870697265642e006020830152604082019050919050565b600061247e601e8361324a565b91507f536166654d6174683a207375627472616374696f6e206f766572666c6f7700006000830152602082019050919050565b60006124be602d8361324a565b91507f63616e63656c4772616e743a3a537461747573204572726f722e20416c72656160008301527f64792063616e63656c6c65642e000000000000000000000000000000000000006020830152604082019050919050565b6000612524601a8361324a565b91507f536166654d6174683a206469766973696f6e206279207a65726f0000000000006000830152602082019050919050565b600061256460388361324a565b91507f7369676e616c3a3a5472616e73666572204572726f722e20455243323020746f60008301527f6b656e207472616e7366657246726f6d206661696c65642e00000000000000006020830152604082019050919050565b60006125ca60468361324a565b91507f617070726f76655061796f75743a3a537461747573204572726f722e2043616e60008301527f6e6f7420617070726f76652069662066756e64696e6720746172676574206e6f60208301527f74206d65742e00000000000000000000000000000000000000000000000000006040830152606082019050919050565b6000612656602d8361324a565b91507f7369676e616c3a3a537461747573204572726f722e2046756e64696e6720746160008301527f7267657420726561636865642e000000000000000000000000000000000000006020830152604082019050919050565b60006126bc604a8361324a565b91507f617070726f7665526566756e643a3a496e76616c696420417267756d656e742e60008301527f20416d6f756e742069732067726561746572207468616e20417661696c61626c60208301527f652042616c616e63652e000000000000000000000000000000000000000000006040830152606082019050919050565b600061274860218361324a565b91507f536166654d6174683a206d756c7469706c69636174696f6e206f766572666c6f60008301527f77000000000000000000000000000000000000000000000000000000000000006020830152604082019050919050565b60006127ae60448361324a565b91507f66756e645769746845746865723a3a5472616e73666572204572726f722e205560008301527f6e61626c6520746f2073656e64206368616e6765206261636b20746f2073656e60208301527f6465722e000000000000000000000000000000000000000000000000000000006040830152606082019050919050565b600061283a603a8361324a565b91507f66756e645769746845746865723a3a496e76616c69642056616c75652e206d7360008301527f672e76616c75652062652067726561746572207468616e20302e0000000000006020830152604082019050919050565b60006128a060368361324a565b91507f66756e643a3a5472616e73666572204572726f722e20455243323020746f6b6560008301527f6e207472616e7366657246726f6d206661696c65642e000000000000000000006020830152604082019050919050565b600061290660448361324a565b91507f7769746864726177526566756e643a3a5472616e73666572204572726f722e2060008301527f556e61626c6520746f2073656e6420726566756e6456616c756520746f20446f60208301527f6e6f722e000000000000000000000000000000000000000000000000000000006040830152606082019050919050565b600061299260358361324a565b91507f7369676e616c3a3a496e76616c696420417267756d656e742e2076616c75652060008301527f6d757374206d61746368206d73672e76616c75652e00000000000000000000006020830152604082019050919050565b60006129f8602e8361324a565b91507f66756e643a3a537461747573204572726f722e204772616e74206e6f74206f7060008301527f656e20746f2066756e64696e672e0000000000000000000000000000000000006020830152604082019050919050565b6000612a5e60468361324a565b91507f6f6e6c794d616e616765723a3a5065726d697373696f6e204572726f722e204660008301527f756e6374696f6e2063616e206f6e6c792062652063616c6c6564206279206d6160208301527f6e616765722e00000000000000000000000000000000000000000000000000006040830152606082019050919050565b6000612aea603c8361324a565b91507f7769746864726177526566756e643a3a5472616e73666572204572726f722e2060008301527f455243323020746f6b656e207472616e73666572206661696c65642e000000006020830152604082019050919050565b6000612b50601f8361324a565b91507f5265656e7472616e637947756172643a207265656e7472616e742063616c6c006000830152602082019050919050565b6000612b9060408361324a565b91507f7369676e616c3a3a5472616e73666572204572726f722e20556e61626c65207460008301527f6f2073656e64206d73672e76616c7565206261636b20746f2073656e6465722e6020830152604082019050919050565b6000612bf660438361324a565b91507f7769746864726177526566756e643a3a4572726f722e20446f6e6f722068617360008301527f20616c72656164792077697468647261776e20656c696769626c65207265667560208301527f6e642e00000000000000000000000000000000000000000000000000000000006040830152606082019050919050565b6000612c8260348361324a565b91507f7369676e616c3a3a5472616e73666572204572726f722e20455243323020746f60008301527f6b656e207472616e73666572206661696c65642e0000000000000000000000006020830152604082019050919050565b6000612ce8603b8361324a565b91507f617070726f76655061796f75743a3a5472616e73666572204572726f722e204560008301527f5243323020746f6b656e207472616e73666572206661696c65642e00000000006020830152604082019050919050565b612d4a81613299565b82525050565b6000602082019050612d656000830184612025565b92915050565b6000606082019050612d806000830186612016565b612d8d6020830185612016565b612d9a6040830184612d41565b949350505050565b6000604082019050612db76000830185612016565b612dc46020830184612d41565b9392505050565b6000604082019050612de06000830185612025565b612ded6020830184612d41565b9392505050565b6000602082019050612e096000830184612034565b92915050565b60006020820190508181036000830152612e2881612043565b9050919050565b60006020820190508181036000830152612e48816120cf565b9050919050565b60006020820190508181036000830152612e688161215b565b9050919050565b60006020820190508181036000830152612e88816121e7565b9050919050565b60006020820190508181036000830152612ea88161224d565b9050919050565b60006020820190508181036000830152612ec8816122d9565b9050919050565b60006020820190508181036000830152612ee881612319565b9050919050565b60006020820190508181036000830152612f088161237f565b9050919050565b60006020820190508181036000830152612f288161240b565b9050919050565b60006020820190508181036000830152612f4881612471565b9050919050565b60006020820190508181036000830152612f68816124b1565b9050919050565b60006020820190508181036000830152612f8881612517565b9050919050565b60006020820190508181036000830152612fa881612557565b9050919050565b60006020820190508181036000830152612fc8816125bd565b9050919050565b60006020820190508181036000830152612fe881612649565b9050919050565b60006020820190508181036000830152613008816126af565b9050919050565b600060208201905081810360008301526130288161273b565b9050919050565b60006020820190508181036000830152613048816127a1565b9050919050565b600060208201905081810360008301526130688161282d565b9050919050565b6000602082019050818103600083015261308881612893565b9050919050565b600060208201905081810360008301526130a8816128f9565b9050919050565b600060208201905081810360008301526130c881612985565b9050919050565b600060208201905081810360008301526130e8816129eb565b9050919050565b6000602082019050818103600083015261310881612a51565b9050919050565b6000602082019050818103600083015261312881612add565b9050919050565b6000602082019050818103600083015261314881612b43565b9050919050565b6000602082019050818103600083015261316881612b83565b9050919050565b6000602082019050818103600083015261318881612be9565b9050919050565b600060208201905081810360008301526131a881612c75565b9050919050565b600060208201905081810360008301526131c881612cdb565b9050919050565b60006020820190506131e46000830184612d41565b92915050565b60006040820190506131ff6000830185612d41565b61320c6020830184612d41565b9392505050565b60006060820190506132286000830186612d41565b6132356020830185612d41565b6132426040830184612d41565b949350505050565b600082825260208201905092915050565b600061326682613279565b9050919050565b60008115159050919050565b600073ffffffffffffffffffffffffffffffffffffffff82169050919050565b6000819050919050565b60006132ae826132b5565b9050919050565b60006132c0826132c7565b9050919050565b60006132d282613279565b9050919050565b6132e28161325b565b81146132ed57600080fd5b50565b6132f98161326d565b811461330457600080fd5b50565b61331081613299565b811461331b57600080fd5b5056fea365627a7a72305820c51c29a0f5f3d086992f0140aecd791afbfce4fa33211309008a4df974d366216c6578706572696d656e74616cf564736f6c634300050a0040",
  "source": "pragma solidity >=0.5.10 <0.6.0;\r\npragma experimental ABIEncoderV2;\r\n\r\nimport \"openzeppelin-solidity/contracts/math/SafeMath.sol\";\r\nimport \"openzeppelin-solidity/contracts/token/ERC20/IERC20.sol\";\r\nimport \"openzeppelin-solidity/contracts/utils/ReentrancyGuard.sol\";\r\nimport \"./AbstractGrant.sol\";\r\nimport \"./ISignal.sol\";\r\n\r\n\r\n/**\r\n * @title Grants Spec Contract.\r\n * @dev Grant request, funding, and management.\r\n * @author @NoahMarconi @ameensol @JFickel @ArnaudBrousseau\r\n */\r\ncontract Grant is AbstractGrant, ISignal, ReentrancyGuard {\r\n    using SafeMath for uint256;\r\n\r\n\r\n    /*----------  Constants  ----------*/\r\n\r\n    uint256 GRAINS = 10 ** 18;\r\n\r\n\r\n    /*----------  Constructor  ----------*/\r\n\r\n    /**\r\n     * @dev Grant creation function. May be called by grantors, grantees, or any other relevant party.\r\n     * @param _grantees Sorted recipients of unlocked funds.\r\n     * @param _amounts Respective allocations for each Grantee (must follow sort order of _grantees).\r\n     * @param _manager (Optional) Multisig or EOA address of grant manager.\r\n     * @param _currency (Optional) If null, amount is in wei, otherwise address of ERC20-compliant contract.\r\n     * @param _targetFunding (Optional) Funding threshold required to release funds.\r\n     * @param _fundingExpiration (Optional) Date after which signaling OR funds cannot be sent.\r\n     * @param _contractExpiration (Optional) Date after which payouts must be complete or anyone can trigger refunds.\r\n     */\r\n    constructor(\r\n        address[] memory _grantees,\r\n        uint256[] memory _amounts,\r\n        address _manager,\r\n        address _currency,\r\n        uint256 _targetFunding,\r\n        uint256 _fundingExpiration,\r\n        uint256 _contractExpiration\r\n    )\r\n        public\r\n    {\r\n\r\n        require(\r\n            _fundingExpiration == 0 || _fundingExpiration < _contractExpiration,\r\n            \"constructor::Invalid Argument. _fundingExpiration not < _contractExpiration.\"\r\n        );\r\n\r\n        require(\r\n        // solium-disable-next-line security/no-block-members\r\n            _fundingExpiration == 0 || _fundingExpiration > now,\r\n            \"constructor::Invalid Argument. _fundingExpiration not > now.\"\r\n        );\r\n\r\n        require(\r\n        // solium-disable-next-line security/no-block-members\r\n            _contractExpiration == 0 || _contractExpiration > now,\r\n            \"constructor::Invalid Argument. _contractExpiration not > now.\"\r\n        );\r\n\r\n        require(\r\n            _grantees.length > 0,\r\n            \"constructor::Invalid Argument. Must have one or more grantees.\"\r\n        );\r\n\r\n        require(\r\n            _grantees.length == _amounts.length,\r\n            \"constructor::Invalid Argument. _grantees.length must equal _amounts.length\"\r\n        );\r\n\r\n        // Initialize globals.\r\n        manager = _manager;\r\n        currency = _currency;\r\n        targetFunding = _targetFunding;\r\n        fundingExpiration = _fundingExpiration;\r\n        contractExpiration = _contractExpiration;\r\n\r\n        // Check _targetFunding against sum of _amounts array.\r\n        uint256 totalFundingAmount;\r\n\r\n        // Initialize Grantees.\r\n        address lastAddress = address(0);\r\n        for (uint256 i = 0; i < _grantees.length; i++) {\r\n            address currentGrantee = _grantees[i];\r\n            uint256 currentAmount = _amounts[i];\r\n\r\n            require(\r\n                currentAmount > 0,\r\n                \"constructor::Invalid Argument. currentAmount must be greater than 0.\"\r\n            );\r\n\r\n            require(\r\n                currentGrantee > lastAddress,\r\n                \"constructor::Invalid Argument. Duplicate or out of order _grantees.\"\r\n            );\r\n\r\n            require(\r\n                currentGrantee != _manager,\r\n                \"constructor::Invalid Argument. _manager cannot be a Grantee.\"\r\n            );\r\n\r\n            totalFundingAmount = totalFundingAmount.add(currentAmount);\r\n            lastAddress = currentGrantee;\r\n            grantees[currentGrantee].targetFunding = currentAmount;\r\n        }\r\n\r\n        require(\r\n            totalFundingAmount == _targetFunding,\r\n            \"constructor::Invalid Argument. _targetFunding must equal totalFundingAmount.\"\r\n        );\r\n\r\n    }\r\n\r\n    /*----------  Modifiers  ----------*/\r\n\r\n    modifier onlyManager() {\r\n        require(\r\n            isManager(msg.sender),\r\n            \"onlyManager::Permission Error. Function can only be called by manager.\"\r\n        );\r\n\r\n        _;\r\n    }\r\n\r\n    /*----------  Public Helpers  ----------*/\r\n\r\n    function isManager(address toCheck)\r\n        public\r\n        view\r\n        returns(bool)\r\n    {\r\n        return manager == toCheck;\r\n    }\r\n\r\n    /**\r\n     * @dev Get available grant balance.\r\n     * @return Balance remaining in contract.\r\n     */\r\n    function availableBalance()\r\n        public\r\n        view\r\n        returns(uint256)\r\n    {\r\n        return totalFunding\r\n            .sub(totalPayed)\r\n            .sub(totalRefunded)\r\n            .sub(pendingPayments);\r\n    }\r\n\r\n    /**\r\n     * @dev Funding status check.\r\n     * @return true if can fund grant.\r\n     */\r\n    function canFund()\r\n        public\r\n        view\r\n        returns(bool)\r\n    {\r\n        return (\r\n            // solium-disable-next-line security/no-block-members\r\n            (fundingExpiration == 0 || fundingExpiration > now) &&\r\n            totalFunding < targetFunding &&\r\n            !grantCancelled\r\n        );\r\n    }\r\n\r\n    /**\r\n     * @dev Grantee specific check for remaining allocated funds.\r\n     * @param grantee's address.\r\n     */\r\n    function remainingAllocation(address grantee)\r\n        public\r\n        view\r\n        returns(uint256)\r\n    {\r\n        return grantees[grantee].targetFunding\r\n            .sub(grantees[grantee].totalPayed)\r\n            .sub(grantees[grantee].payoutApproved);\r\n    }\r\n\r\n\r\n    /*----------  Public Methods  ----------*/\r\n\r\n    /**\r\n     * @dev Fund a grant proposal.\r\n     * @param value Amount in WEI or GRAINS to fund.\r\n     * @return Cumulative funding received for this grant.\r\n     */\r\n    function fund(uint256 value)\r\n        public\r\n        nonReentrant // OpenZeppelin mutex due to sending change if over-funded.\r\n        returns (bool)\r\n    {\r\n\r\n        require(\r\n            canFund(),\r\n            \"fund::Status Error. Grant not open to funding.\"\r\n        );\r\n\r\n        uint256 newTotalFunding = totalFunding.add(value);\r\n\r\n        uint256 change;\r\n        if(newTotalFunding > targetFunding) {\r\n            change = newTotalFunding.sub(targetFunding);\r\n            newTotalFunding = targetFunding;\r\n        }\r\n\r\n        // Record Contribution.\r\n        donors[msg.sender].funded = donors[msg.sender].funded\r\n            .add(value)\r\n            .sub(change); // Account for change from over-funding.\r\n\r\n        // Update funding tally.\r\n        totalFunding = newTotalFunding;\r\n\r\n        // Defer to correct funding method.\r\n        if(currency == address(0)) {\r\n            fundWithEther(value, change);\r\n        } else {\r\n            fundWithToken(value, change);\r\n        }\r\n\r\n        // Log events.\r\n        emit LogFunding(msg.sender, value.sub(change));\r\n\r\n        if(totalFunding == targetFunding) {\r\n            emit LogFundingComplete();\r\n        }\r\n\r\n        return true;\r\n    }\r\n\r\n\r\n    /*----------  Manager Methods  ----------*/\r\n\r\n    /**\r\n     * @dev Approve and make payment to a grantee.\r\n     * @param value Amount in WEI or GRAINS to fund.\r\n     * @param grantee Recipient of payment.\r\n     */\r\n    function approvePayout(uint256 value, address grantee)\r\n        public\r\n        onlyManager\r\n        returns(bool)\r\n    {\r\n\r\n        require(\r\n            targetFunding == totalFunding,\r\n            \"approvePayout::Status Error. Cannot approve if funding target not met.\"\r\n        );\r\n\r\n        require(\r\n            !grantCancelled,\r\n            \"approvePayout::Status Error. Cannot approve if grant is cancelled.\"\r\n        );\r\n\r\n        require(\r\n            remainingAllocation(grantee) >= value,\r\n            \"approvePayout::Invalid Argument. value cannot exceed remaining allocation.\"\r\n        );\r\n\r\n        // Update state.\r\n        totalPayed = totalPayed.add(value);\r\n        grantees[grantee].totalPayed = grantees[grantee].totalPayed.add(value);\r\n\r\n        // Send funds.\r\n        if (currency == address(0)) {\r\n            require(\r\n                // solium-disable-next-line security/no-send\r\n                msg.sender.send(value),\r\n                \"approvePayout::Transfer Error. Unable to send value to Grantee.\"\r\n            );\r\n        } else {\r\n            require(\r\n                IERC20(currency)\r\n                    .transfer(grantee, value),\r\n                \"approvePayout::Transfer Error. ERC20 token transfer failed.\"\r\n            );\r\n        }\r\n\r\n        emit LogPayment(grantee, value);\r\n\r\n        return true;\r\n    }\r\n\r\n    /**\r\n     * @dev Cancel grant and enable refunds.\r\n     */\r\n    function cancelGrant()\r\n        public\r\n    {\r\n        require(\r\n            !grantCancelled,\r\n            \"cancelGrant::Status Error. Already cancelled.\"\r\n        );\r\n\r\n        if (!isManager(msg.sender)) {\r\n            // Non-manager may cancel grant if:\r\n            //      1. Funding goal not met before fundingExpiration.\r\n            //      2. Funds not completely dispersed before contractExpiration.\r\n            require(\r\n                // solium-disable-next-line security/no-block-members\r\n                (fundingExpiration != 0 && fundingExpiration <= now && totalFunding < targetFunding) ||\r\n                (contractExpiration != 0 && contractExpiration <= now),\r\n                // solium-disable-previous-line security/no-block-members\r\n                \"cancelGrant::Invalid Sender. Sender must be manager or expired.\"\r\n            );\r\n        }\r\n\r\n        totalRefunded = totalRefunded.add(availableBalance());\r\n\r\n        grantCancelled = true;\r\n\r\n        emit LogGrantCancellation();\r\n    }\r\n\r\n    /**\r\n     * @dev Approve refunding a portion of the contract's available balance.\r\n     *      Refunds are split between donors based on their contribution to totalFunded.\r\n     * @param value Amount to refund.\r\n     * @param grantee Grantee address to reduce allocation from.\r\n     */\r\n    function approveRefund(uint256 value, address grantee)\r\n        public\r\n        onlyManager\r\n    {\r\n\r\n        if (grantee != address(0)) {\r\n            require(\r\n                remainingAllocation(grantee) >= value,\r\n                \"approveRefund::Invalid Argument. Value greater than remaining allocation.\"\r\n            );\r\n\r\n            // Reduce allocation.\r\n            grantees[grantee].targetFunding.sub(value);\r\n        }\r\n\r\n        require(\r\n            value <= availableBalance(),\r\n            \"approveRefund::Invalid Argument. Amount is greater than Available Balance.\"\r\n        );\r\n\r\n        totalRefunded = totalRefunded.add(value);\r\n\r\n        emit LogRefundApproval(value, totalRefunded);\r\n    }\r\n\r\n\r\n    /*----------  Signal Methods  ----------*/\r\n\r\n    /**\r\n     * @dev Voting Signal Method.\r\n     * @param support true if in support of grant false if opposed.\r\n     * @param value Number of signals denoted in Token GRAINs or WEI.\r\n     * @return True if successful, otherwise false.\r\n     */\r\n    function signal(bool support, uint256 value)\r\n        external\r\n        payable\r\n        returns (bool)\r\n    {\r\n\r\n        require(\r\n            totalFunding < targetFunding,\r\n            \"signal::Status Error. Funding target reached.\"\r\n        );\r\n\r\n        emit LogSignal(support, msg.sender, currency, value);\r\n\r\n        // Prove signaler has control of funds.\r\n        if (currency == address(0)) {\r\n            require(\r\n                msg.value == value,\r\n                \"signal::Invalid Argument. value must match msg.value.\"\r\n            );\r\n\r\n            require(\r\n                // solium-disable-next-line security/no-send\r\n                msg.sender.send(msg.value),\r\n                \"signal::Transfer Error. Unable to send msg.value back to sender.\"\r\n            );\r\n        } else {\r\n            require(\r\n                msg.value == 0,\r\n                \"signal::Currency Error. Cannot send Ether to a token funded grant.\"\r\n            );\r\n\r\n            // Transfer to this contract.\r\n            require(\r\n                IERC20(currency)\r\n                    .transferFrom(msg.sender, address(this), value),\r\n                \"signal::Transfer Error. ERC20 token transferFrom failed.\"\r\n            );\r\n\r\n            // Transfer back to sender.\r\n            require(\r\n                IERC20(currency)\r\n                    .transfer(msg.sender, value),\r\n                \"signal::Transfer Error. ERC20 token transfer failed.\"\r\n            );\r\n        }\r\n\r\n        return true;\r\n    }\r\n\r\n\r\n    /*----------  Withdrawal Methods  ----------*/\r\n\r\n    /**\r\n     * @dev Withdraws portion of the contract's available balance.\r\n     *      Amount donor receives is proportionate to their funding contribution.\r\n     * @param donor Donor address to refund.\r\n     * @return true if withdraw successful.\r\n     */\r\n    function withdrawRefund(address donor)\r\n        public\r\n        nonReentrant\r\n        returns(bool)\r\n    {\r\n\r\n        uint256 percentContributed = donors[donor].funded\r\n            .mul(GRAINS).div(\r\n                totalFunding\r\n            );\r\n\r\n        // Donor's share of refund.\r\n        uint256 eligibleRefund = totalRefunded\r\n            .mul(percentContributed)\r\n            .div(GRAINS);\r\n\r\n        require(\r\n            eligibleRefund >= donors[donor].refunded,\r\n            \"withdrawRefund::Error. Donor has already withdrawn eligible refund.\"\r\n        );\r\n\r\n        // Minus previous withdrawals.\r\n        eligibleRefund = eligibleRefund.sub(donors[donor].refunded);\r\n\r\n        // Update state.\r\n        donors[donor].refunded = donors[donor].refunded.add(eligibleRefund);\r\n\r\n        // Send funds.\r\n        if (currency == address(0)) {\r\n            require(\r\n                // solium-disable-next-line security/no-send\r\n                msg.sender.send(eligibleRefund),\r\n                \"withdrawRefund::Transfer Error. Unable to send refundValue to Donor.\"\r\n            );\r\n        } else {\r\n            require(\r\n                IERC20(currency)\r\n                    .transfer(donor, eligibleRefund),\r\n                \"withdrawRefund::Transfer Error. ERC20 token transfer failed.\"\r\n            );\r\n        }\r\n\r\n        emit LogRefund(donor, eligibleRefund);\r\n\r\n        return true;\r\n    }\r\n\r\n\r\n    /*----------  Private Methods  ----------*/\r\n\r\n    function fundWithEther(uint256 value, uint256 change)\r\n        private\r\n    {\r\n        require(\r\n            msg.value == value,\r\n            \"fundWithEther::Invalid Argument. value must equal msg.value.\"\r\n        );\r\n\r\n        require(\r\n            msg.value > 0,\r\n            \"fundWithEther::Invalid Value. msg.value be greater than 0.\"\r\n        );\r\n\r\n        // Send change as refund.\r\n        if (change > 0) {\r\n            require(\r\n                // solium-disable-next-line security/no-send\r\n                msg.sender.send(change),\r\n                \"fundWithEther::Transfer Error. Unable to send change back to sender.\"\r\n            );\r\n        }\r\n    }\r\n\r\n    function fundWithToken(uint256 value, uint256 change)\r\n        private\r\n    {\r\n        require(\r\n            msg.value == 0,\r\n            \"fundWithToken::Currency Error. Cannot send Ether to a token funded grant.\"\r\n        );\r\n\r\n        // Subtract change before transferring to grant contract.\r\n        uint256 netValue = value.sub(change);\r\n        require(\r\n            IERC20(currency)\r\n                .transferFrom(msg.sender, address(this), netValue),\r\n            \"fund::Transfer Error. ERC20 token transferFrom failed.\"\r\n        );\r\n    }\r\n\r\n\r\n    /*----------  Fallback  ----------*/\r\n\r\n    function ()\r\n        external\r\n        payable\r\n    {\r\n        fund(msg.value);\r\n    }\r\n}\r\n",
  "sourcePath": "D:\\grant-contracts\\contracts\\Grant.sol",
  "compiler": {
    "name": "solc",
    "version": "0.5.10+commit.5a6ea5b1.Emscripten.clang"
  },
  "schemaVersion": "3.0.23",
  "updatedAt": "2020-02-14T09:34:57.228Z",
  "devdoc": {
    "author": "@NoahMarconi @ameensol @JFickel @ArnaudBrousseau\r",
    "details": "Grant request, funding, and management.\r",
    "methods": {
      "approvePayout(uint256,address)": {
        "details": "Approve and make payment to a grantee.\r",
        "params": {
          "grantee": "Recipient of payment.\r",
          "value": "Amount in WEI or GRAINS to fund.\r"
        }
      },
      "approveRefund(uint256,address)": {
        "details": "Approve refunding a portion of the contract's available balance.\r     Refunds are split between donors based on their contribution to totalFunded.\r",
        "params": {
          "grantee": "Grantee address to reduce allocation from.\r",
          "value": "Amount to refund.\r"
        }
      },
      "availableBalance()": {
        "details": "Get available grant balance.\r",
        "return": "Balance remaining in contract.\r"
      },
      "canFund()": {
        "details": "Funding status check.\r",
        "return": "true if can fund grant.\r"
      },
      "cancelGrant()": {
        "details": "Cancel grant and enable refunds.\r"
      },
      "constructor": {
        "details": "Grant creation function. May be called by grantors, grantees, or any other relevant party.\r",
        "params": {
          "_amounts": "Respective allocations for each Grantee (must follow sort order of _grantees).\r",
          "_contractExpiration": "(Optional) Date after which payouts must be complete or anyone can trigger refunds.\r",
          "_currency": "(Optional) If null, amount is in wei, otherwise address of ERC20-compliant contract.\r",
          "_fundingExpiration": "(Optional) Date after which signaling OR funds cannot be sent.\r",
          "_grantees": "Sorted recipients of unlocked funds.\r",
          "_manager": "(Optional) Multisig or EOA address of grant manager.\r",
          "_targetFunding": "(Optional) Funding threshold required to release funds.\r"
        }
      },
      "fund(uint256)": {
        "details": "Fund a grant proposal.\r",
        "params": {
          "value": "Amount in WEI or GRAINS to fund.\r"
        },
        "return": "Cumulative funding received for this grant.\r"
      },
      "remainingAllocation(address)": {
        "details": "Grantee specific check for remaining allocated funds.\r",
        "params": {
          "grantee": "'s address.\r"
        }
      },
      "signal(bool,uint256)": {
        "details": "Voting Signal Method.\r",
        "params": {
          "support": "true if in support of grant false if opposed.\r",
          "value": "Number of signals denoted in Token GRAINs or WEI.\r"
        },
        "return": "True if successful, otherwise false.\r"
      },
      "withdrawRefund(address)": {
        "details": "Withdraws portion of the contract's available balance.\r     Amount donor receives is proportionate to their funding contribution.\r",
        "params": {
          "donor": "Donor address to refund.\r"
        },
        "return": "true if withdraw successful.\r"
      }
    },
    "title": "Grants Spec Contract.\r"
  },
  "userdoc": {
    "methods": {}
  }
}