{
  "abi": [
    {
      "constant": false,
      "inputs": [
        {
          "name": "value",
          "type": "uint256"
        },
        {
          "name": "grantee",
          "type": "address"
        }
      ],
      "name": "withdrawPayout",
      "outputs": [
        {
          "name": "",
          "type": "bool"
        }
      ],
      "payable": false,
      "stateMutability": "nonpayable",
      "type": "function"
    },
    {
      "constant": false,
      "inputs": [
        {
          "name": "support",
          "type": "bool"
        },
        {
          "name": "value",
          "type": "uint256"
        }
      ],
      "name": "signal",
      "outputs": [
        {
          "name": "",
          "type": "bool"
        }
      ],
      "payable": true,
      "stateMutability": "payable",
      "type": "function"
    },
    {
      "constant": true,
      "inputs": [],
      "name": "fundingExpiration",
      "outputs": [
        {
          "name": "",
          "type": "uint256"
        }
      ],
      "payable": false,
      "stateMutability": "view",
      "type": "function"
    },
    {
      "constant": true,
      "inputs": [
        {
          "name": "toCheck",
          "type": "address"
        }
      ],
      "name": "isDonor",
      "outputs": [
        {
          "name": "",
          "type": "bool"
        }
      ],
      "payable": false,
      "stateMutability": "view",
      "type": "function"
    },
    {
      "constant": true,
      "inputs": [
        {
          "name": "toCheck",
          "type": "address"
        }
      ],
      "name": "isGrantee",
      "outputs": [
        {
          "name": "",
          "type": "bool"
        }
      ],
      "payable": false,
      "stateMutability": "view",
      "type": "function"
    },
    {
      "constant": true,
      "inputs": [],
      "name": "manager",
      "outputs": [
        {
          "name": "",
          "type": "address"
        }
      ],
      "payable": false,
      "stateMutability": "view",
      "type": "function"
    },
    {
      "constant": true,
      "inputs": [],
      "name": "grantCancelled",
      "outputs": [
        {
          "name": "",
          "type": "bool"
        }
      ],
      "payable": false,
      "stateMutability": "view",
      "type": "function"
    },
    {
      "constant": true,
      "inputs": [
        {
          "name": "grantee",
          "type": "address"
        }
      ],
      "name": "remainingAllocation",
      "outputs": [
        {
          "name": "",
          "type": "uint256"
        }
      ],
      "payable": false,
      "stateMutability": "view",
      "type": "function"
    },
    {
      "constant": true,
      "inputs": [
        {
          "name": "",
          "type": "address"
        }
      ],
      "name": "grantees",
      "outputs": [
        {
          "name": "targetFunding",
          "type": "uint256"
        },
        {
          "name": "totalPayed",
          "type": "uint256"
        },
        {
          "name": "payoutApproved",
          "type": "uint256"
        }
      ],
      "payable": false,
      "stateMutability": "view",
      "type": "function"
    },
    {
      "constant": false,
      "inputs": [],
      "name": "cancelGrant",
      "outputs": [],
      "payable": false,
      "stateMutability": "nonpayable",
      "type": "function"
    },
    {
      "constant": false,
      "inputs": [
        {
          "name": "value",
          "type": "uint256"
        },
        {
          "name": "grantee",
          "type": "address"
        }
      ],
      "name": "approvePayout",
      "outputs": [],
      "payable": false,
      "stateMutability": "nonpayable",
      "type": "function"
    },
    {
      "constant": false,
      "inputs": [
        {
          "name": "donor",
          "type": "address"
        }
      ],
      "name": "withdrawRefund",
      "outputs": [
        {
          "name": "",
          "type": "bool"
        }
      ],
      "payable": false,
      "stateMutability": "nonpayable",
      "type": "function"
    },
    {
      "constant": true,
      "inputs": [],
      "name": "contractExpiration",
      "outputs": [
        {
          "name": "",
          "type": "uint256"
        }
      ],
      "payable": false,
      "stateMutability": "view",
      "type": "function"
    },
    {
      "constant": true,
      "inputs": [],
      "name": "availableBalance",
      "outputs": [
        {
          "name": "",
          "type": "uint256"
        }
      ],
      "payable": false,
      "stateMutability": "view",
      "type": "function"
    },
    {
      "constant": true,
      "inputs": [],
      "name": "canFund",
      "outputs": [
        {
          "name": "",
          "type": "bool"
        }
      ],
      "payable": false,
      "stateMutability": "view",
      "type": "function"
    },
    {
      "constant": true,
      "inputs": [],
      "name": "totalPayed",
      "outputs": [
        {
          "name": "",
          "type": "uint256"
        }
      ],
      "payable": false,
      "stateMutability": "view",
      "type": "function"
    },
    {
      "constant": true,
      "inputs": [
        {
          "name": "",
          "type": "address"
        }
      ],
      "name": "donors",
      "outputs": [
        {
          "name": "funded",
          "type": "uint256"
        },
        {
          "name": "refunded",
          "type": "uint256"
        }
      ],
      "payable": false,
      "stateMutability": "view",
      "type": "function"
    },
    {
      "constant": false,
      "inputs": [
        {
          "name": "value",
          "type": "uint256"
        }
      ],
      "name": "fund",
      "outputs": [
        {
          "name": "",
          "type": "bool"
        }
      ],
      "payable": false,
      "stateMutability": "nonpayable",
      "type": "function"
    },
    {
      "constant": false,
      "inputs": [
        {
          "name": "value",
          "type": "uint256"
        },
        {
          "name": "grantee",
          "type": "address"
        }
      ],
      "name": "approveRefund",
      "outputs": [],
      "payable": false,
      "stateMutability": "nonpayable",
      "type": "function"
    },
    {
      "constant": true,
      "inputs": [],
      "name": "totalRefunded",
      "outputs": [
        {
          "name": "",
          "type": "uint256"
        }
      ],
      "payable": false,
      "stateMutability": "view",
      "type": "function"
    },
    {
      "constant": true,
      "inputs": [],
      "name": "currency",
      "outputs": [
        {
          "name": "",
          "type": "address"
        }
      ],
      "payable": false,
      "stateMutability": "view",
      "type": "function"
    },
    {
      "constant": true,
      "inputs": [
        {
          "name": "toCheck",
          "type": "address"
        }
      ],
      "name": "isManager",
      "outputs": [
        {
          "name": "",
          "type": "bool"
        }
      ],
      "payable": false,
      "stateMutability": "view",
      "type": "function"
    },
    {
      "constant": true,
      "inputs": [],
      "name": "targetFunding",
      "outputs": [
        {
          "name": "",
          "type": "uint256"
        }
      ],
      "payable": false,
      "stateMutability": "view",
      "type": "function"
    },
    {
      "constant": true,
      "inputs": [],
      "name": "pendingPayments",
      "outputs": [
        {
          "name": "",
          "type": "uint256"
        }
      ],
      "payable": false,
      "stateMutability": "view",
      "type": "function"
    },
    {
      "constant": true,
      "inputs": [],
      "name": "totalFunding",
      "outputs": [
        {
          "name": "",
          "type": "uint256"
        }
      ],
      "payable": false,
      "stateMutability": "view",
      "type": "function"
    },
    {
      "inputs": [
        {
          "name": "_grantees",
          "type": "address[]"
        },
        {
          "name": "_amounts",
          "type": "uint256[]"
        },
        {
          "name": "_manager",
          "type": "address"
        },
        {
          "name": "_currency",
          "type": "address"
        },
        {
          "name": "_targetFunding",
          "type": "uint256"
        },
        {
          "name": "_fundingExpiration",
          "type": "uint256"
        },
        {
          "name": "_contractExpiration",
          "type": "uint256"
        }
      ],
      "payable": false,
      "stateMutability": "nonpayable",
      "type": "constructor"
    },
    {
      "payable": true,
      "stateMutability": "payable",
      "type": "fallback"
    },
    {
      "anonymous": false,
      "inputs": [
        {
          "indexed": true,
          "name": "support",
          "type": "bool"
        },
        {
          "indexed": true,
          "name": "signaler",
          "type": "address"
        },
        {
          "indexed": true,
          "name": "token",
          "type": "address"
        },
        {
          "indexed": false,
          "name": "value",
          "type": "uint256"
        }
      ],
      "name": "LogSignal",
      "type": "event"
    },
    {
      "anonymous": false,
      "inputs": [],
      "name": "LogFundingComplete",
      "type": "event"
    },
    {
      "anonymous": false,
      "inputs": [],
      "name": "LogGrantCancellation",
      "type": "event"
    },
    {
      "anonymous": false,
      "inputs": [
        {
          "indexed": true,
          "name": "donor",
          "type": "address"
        },
        {
          "indexed": false,
          "name": "value",
          "type": "uint256"
        }
      ],
      "name": "LogFunding",
      "type": "event"
    },
    {
      "anonymous": false,
      "inputs": [
        {
          "indexed": true,
          "name": "donor",
          "type": "address"
        },
        {
          "indexed": false,
          "name": "value",
          "type": "uint256"
        }
      ],
      "name": "LogRefund",
      "type": "event"
    },
    {
      "anonymous": false,
      "inputs": [
        {
          "indexed": true,
          "name": "grantee",
          "type": "address"
        },
        {
          "indexed": false,
          "name": "value",
          "type": "uint256"
        }
      ],
      "name": "LogPayment",
      "type": "event"
    },
    {
      "anonymous": false,
      "inputs": [
        {
          "indexed": true,
          "name": "grantee",
          "type": "address"
        },
        {
          "indexed": false,
          "name": "value",
          "type": "uint256"
        }
      ],
      "name": "LogPaymentApproval",
      "type": "event"
    },
    {
      "anonymous": false,
      "inputs": [
        {
          "indexed": false,
          "name": "amount",
          "type": "uint256"
        },
        {
          "indexed": false,
          "name": "totalRefunded",
          "type": "uint256"
        }
      ],
      "name": "LogRefundApproval",
      "type": "event"
    }
  ],
  "evm": {
    "bytecode": {
      "linkReferences": {},
      "object": "6080604052670de0b6b3a7640000600d553480156200001d57600080fd5b50604051620045fe380380620045fe833981810160405262000043919081019062000648565b6001600c8190555060008214806200005a57508082105b6200009c576040517f08c379a0000000000000000000000000000000000000000000000000000000008152600401620000939062000d01565b60405180910390fd5b6000821480620000ab57504282115b620000ed576040517f08c379a0000000000000000000000000000000000000000000000000000000008152600401620000e49062000cbd565b60405180910390fd5b6000811480620000fc57504281115b6200013e576040517f08c379a0000000000000000000000000000000000000000000000000000000008152600401620001359062000c57565b60405180910390fd5b600087511162000185576040517f08c379a00000000000000000000000000000000000000000000000000000000081526004016200017c9062000c35565b60405180910390fd5b8551875114620001cc576040517f08c379a0000000000000000000000000000000000000000000000000000000008152600401620001c39062000cdf565b60405180910390fd5b846000806101000a81548173ffffffffffffffffffffffffffffffffffffffff021916908373ffffffffffffffffffffffffffffffffffffffff16021790555083600160006101000a81548173ffffffffffffffffffffffffffffffffffffffff021916908373ffffffffffffffffffffffffffffffffffffffff1602179055508260028190555081600781905550806008819055506000806000905060008090505b8951811015620004535760008a82815181106200028857fe5b6020026020010151905060008a8381518110620002a157fe5b6020026020010151905060008111620002f1576040517f08c379a0000000000000000000000000000000000000000000000000000000008152600401620002e89062000bcf565b60405180910390fd5b8373ffffffffffffffffffffffffffffffffffffffff168273ffffffffffffffffffffffffffffffffffffffff161162000362576040517f08c379a0000000000000000000000000000000000000000000000000000000008152600401620003599062000bf1565b60405180910390fd5b8973ffffffffffffffffffffffffffffffffffffffff168273ffffffffffffffffffffffffffffffffffffffff161415620003d4576040517f08c379a0000000000000000000000000000000000000000000000000000000008152600401620003cb9062000c9b565b60405180910390fd5b620003f78186620004a86401000000000262001ea1179091906401000000009004565b945081935080600a60008473ffffffffffffffffffffffffffffffffffffffff1673ffffffffffffffffffffffffffffffffffffffff16815260200190815260200160002060000181905550505080806001019150506200026f565b5084821462000499576040517f08c379a0000000000000000000000000000000000000000000000000000000008152600401620004909062000c79565b60405180910390fd5b50505050505050505062000e26565b600080828401905083811015620004f6576040517f08c379a0000000000000000000000000000000000000000000000000000000008152600401620004ed9062000c13565b60405180910390fd5b8091505092915050565b600081519050620005118162000df2565b92915050565b600082601f8301126200052957600080fd5b8151620005406200053a8262000d51565b62000d23565b915081818352602084019350602081019050838560208402820111156200056657600080fd5b60005b838110156200059a57816200057f888262000500565b84526020840193506020830192505060018101905062000569565b5050505092915050565b600082601f830112620005b657600080fd5b8151620005cd620005c78262000d7a565b62000d23565b91508181835260208401935060208101905083856020840282011115620005f357600080fd5b60005b838110156200062757816200060c888262000631565b845260208401935060208301925050600181019050620005f6565b5050505092915050565b600081519050620006428162000e0c565b92915050565b600080600080600080600060e0888a0312156200066457600080fd5b600088015167ffffffffffffffff8111156200067f57600080fd5b6200068d8a828b0162000517565b975050602088015167ffffffffffffffff811115620006ab57600080fd5b620006b98a828b01620005a4565b9650506040620006cc8a828b0162000500565b9550506060620006df8a828b0162000500565b9450506080620006f28a828b0162000631565b93505060a0620007058a828b0162000631565b92505060c0620007188a828b0162000631565b91505092959891949750929550565b60006200073660448362000da3565b91507f636f6e7374727563746f723a3a496e76616c696420417267756d656e742e206360008301527f757272656e74416d6f756e74206d75737420626520677265617465722074686160208301527f6e20302e000000000000000000000000000000000000000000000000000000006040830152606082019050919050565b6000620007c460438362000da3565b91507f636f6e7374727563746f723a3a496e76616c696420417267756d656e742e204460008301527f75706c6963617465206f72206f7574206f66206f72646572205f6772616e746560208301527f65732e00000000000000000000000000000000000000000000000000000000006040830152606082019050919050565b600062000852601b8362000da3565b91507f536166654d6174683a206164646974696f6e206f766572666c6f7700000000006000830152602082019050919050565b600062000894603e8362000da3565b91507f636f6e7374727563746f723a3a496e76616c696420417267756d656e742e204d60008301527f7573742068617665206f6e65206f72206d6f7265206772616e746565732e00006020830152604082019050919050565b6000620008fc603d8362000da3565b91507f636f6e7374727563746f723a3a496e76616c696420417267756d656e742e205f60008301527f636f6e747261637445787069726174696f6e206e6f74203e206e6f772e0000006020830152604082019050919050565b600062000964604c8362000da3565b91507f636f6e7374727563746f723a3a496e76616c696420417267756d656e742e205f60008301527f74617267657446756e64696e67206d75737420657175616c20746f74616c467560208301527f6e64696e67416d6f756e742e00000000000000000000000000000000000000006040830152606082019050919050565b6000620009f2603c8362000da3565b91507f636f6e7374727563746f723a3a496e76616c696420417267756d656e742e205f60008301527f6d616e616765722063616e6e6f742062652061204772616e7465652e000000006020830152604082019050919050565b600062000a5a603c8362000da3565b91507f636f6e7374727563746f723a3a496e76616c696420417267756d656e742e205f60008301527f66756e64696e6745787069726174696f6e206e6f74203e206e6f772e000000006020830152604082019050919050565b600062000ac2604a8362000da3565b91507f636f6e7374727563746f723a3a496e76616c696420417267756d656e742e205f60008301527f6772616e746565732e6c656e677468206d75737420657175616c205f616d6f7560208301527f6e74732e6c656e677468000000000000000000000000000000000000000000006040830152606082019050919050565b600062000b50604c8362000da3565b91507f636f6e7374727563746f723a3a496e76616c696420417267756d656e742e205f60008301527f66756e64696e6745787069726174696f6e206e6f74203c205f636f6e7472616360208301527f7445787069726174696f6e2e00000000000000000000000000000000000000006040830152606082019050919050565b6000602082019050818103600083015262000bea8162000727565b9050919050565b6000602082019050818103600083015262000c0c81620007b5565b9050919050565b6000602082019050818103600083015262000c2e8162000843565b9050919050565b6000602082019050818103600083015262000c508162000885565b9050919050565b6000602082019050818103600083015262000c7281620008ed565b9050919050565b6000602082019050818103600083015262000c948162000955565b9050919050565b6000602082019050818103600083015262000cb681620009e3565b9050919050565b6000602082019050818103600083015262000cd88162000a4b565b9050919050565b6000602082019050818103600083015262000cfa8162000ab3565b9050919050565b6000602082019050818103600083015262000d1c8162000b41565b9050919050565b6000604051905081810181811067ffffffffffffffff8211171562000d4757600080fd5b8060405250919050565b600067ffffffffffffffff82111562000d6957600080fd5b602082029050602081019050919050565b600067ffffffffffffffff82111562000d9257600080fd5b602082029050602081019050919050565b600082825260208201905092915050565b600062000dc18262000dc8565b9050919050565b600073ffffffffffffffffffffffffffffffffffffffff82169050919050565b6000819050919050565b62000dfd8162000db4565b811462000e0957600080fd5b50565b62000e178162000de8565b811462000e2357600080fd5b50565b6137c88062000e366000396000f3fe608060405260043610610182576000357c010000000000000000000000000000000000000000000000000000000090048063a814001f116100ee578063d5f8ab89116100a7578063f3ae241511610081578063f3ae241514610595578063f4d42453146105d2578063f91c9504146105fd578063fe47a8a71461062857610182565b8063d5f8ab8914610516578063d90829621461053f578063e5a6b10f1461056a57610182565b8063a814001f146103ef578063ab2f0e511461041a578063bc352c9114610445578063bc57910314610470578063ca0cdea81461049b578063ca1d209d146104d957610182565b806356039d6e1161014057806356039d6e146102cb5780635676e41a146102f6578063589596b7146103335780636491768f1461037257806381dc064b14610389578063a16c86f7146103b257610182565b8062adb8d11461018e57806303bd2dfe146101cb57806316fecbb2146101fb5780632bc3d7aa146102265780632f3be79014610263578063481c6a75146102a0575b61018b34610653565b50005b34801561019a57600080fd5b506101b560048036036101b09190810190612395565b610904565b6040516101c2919061323b565b60405180910390f35b6101e560048036036101e09190810190612330565b610d33565b6040516101f2919061323b565b60405180910390f35b34801561020757600080fd5b5061021061117b565b60405161021d9190613636565b60405180910390f35b34801561023257600080fd5b5061024d600480360361024891908101906122de565b611181565b60405161025a919061323b565b60405180910390f35b34801561026f57600080fd5b5061028a600480360361028591908101906122de565b6111cf565b604051610297919061323b565b60405180910390f35b3480156102ac57600080fd5b506102b561121d565b6040516102c29190613197565b60405180910390f35b3480156102d757600080fd5b506102e0611242565b6040516102ed919061323b565b60405180910390f35b34801561030257600080fd5b5061031d600480360361031891908101906122de565b611255565b60405161032a9190613636565b60405180910390f35b34801561033f57600080fd5b5061035a600480360361035591908101906122de565b611349565b6040516103699392919061367a565b60405180910390f35b34801561037e57600080fd5b50610387611373565b005b34801561039557600080fd5b506103b060048036036103ab9190810190612395565b6114bb565b005b3480156103be57600080fd5b506103d960048036036103d491908101906122de565b6116ec565b6040516103e6919061323b565b60405180910390f35b3480156103fb57600080fd5b50610404611b92565b6040516104119190613636565b60405180910390f35b34801561042657600080fd5b5061042f611b98565b60405161043c9190613636565b60405180910390f35b34801561045157600080fd5b5061045a611bde565b604051610467919061323b565b60405180910390f35b34801561047c57600080fd5b50610485611c1e565b6040516104929190613636565b60405180910390f35b3480156104a757600080fd5b506104c260048036036104bd91908101906122de565b611c24565b6040516104d0929190613651565b60405180910390f35b3480156104e557600080fd5b5061050060048036036104fb919081019061236c565b610653565b60405161050d919061323b565b60405180910390f35b34801561052257600080fd5b5061053d60048036036105389190810190612395565b611c48565b005b34801561054b57600080fd5b50610554611e0a565b6040516105619190613636565b60405180910390f35b34801561057657600080fd5b5061057f611e10565b60405161058c9190613197565b60405180910390f35b3480156105a157600080fd5b506105bc60048036036105b791908101906122de565b611e36565b6040516105c9919061323b565b60405180910390f35b3480156105de57600080fd5b506105e7611e8f565b6040516105f49190613636565b60405180910390f35b34801561060957600080fd5b50610612611e95565b60405161061f9190613636565b60405180910390f35b34801561063457600080fd5b5061063d611e9b565b60405161064a9190613636565b60405180910390f35b60006001600c600082825401925050819055506000600c549050610675611bde565b6106b4576040517f08c379a00000000000000000000000000000000000000000000000000000000081526004016106ab90613556565b60405180910390fd5b60006106cb84600354611ea190919063ffffffff16565b905060006002548211156106f6576106ee60025483611ef690919063ffffffff16565b905060025491505b61075d8161074f87600b60003373ffffffffffffffffffffffffffffffffffffffff1673ffffffffffffffffffffffffffffffffffffffff16815260200190815260200160002060000154611ea190919063ffffffff16565b611ef690919063ffffffff16565b600b60003373ffffffffffffffffffffffffffffffffffffffff1673ffffffffffffffffffffffffffffffffffffffff1681526020019081526020016000206000018190555081600381905550600073ffffffffffffffffffffffffffffffffffffffff16600160009054906101000a900473ffffffffffffffffffffffffffffffffffffffff1673ffffffffffffffffffffffffffffffffffffffff1614156108105761080b8582611f4c565b61081b565b61081a8582612053565b5b3373ffffffffffffffffffffffffffffffffffffffff167f9f1a5e1a5d3381f9af1a62f8d61e4ae71444e28af488786cb10c8b2b457632ae6108668388611ef690919063ffffffff16565b6040516108739190613636565b60405180910390a260025460035414156108b4577f512829c8dab135587881316e27c9e1cd524033b3daf7ae881d2c801943ea938160405160405180910390a15b600193505050600c5481146108fe576040517f08c379a00000000000000000000000000000000000000000000000000000000081526004016108f5906135b6565b60405180910390fd5b50919050565b60006001600c600082825401925050819055506000600c54905083600a60008573ffffffffffffffffffffffffffffffffffffffff1673ffffffffffffffffffffffffffffffffffffffff16815260200190815260200160002060020154146109a2576040517f08c379a000000000000000000000000000000000000000000000000000000000815260040161099990613316565b60405180910390fd5b6109b784600454611ea190919063ffffffff16565b6004819055506109d284600654611ef690919063ffffffff16565b6006819055506000600a60008573ffffffffffffffffffffffffffffffffffffffff1673ffffffffffffffffffffffffffffffffffffffff16815260200190815260200160002060020181905550610a7584600a60008673ffffffffffffffffffffffffffffffffffffffff1673ffffffffffffffffffffffffffffffffffffffff16815260200190815260200160002060010154611ea190919063ffffffff16565b600a60008573ffffffffffffffffffffffffffffffffffffffff1673ffffffffffffffffffffffffffffffffffffffff16815260200190815260200160002060010181905550600073ffffffffffffffffffffffffffffffffffffffff16600160009054906101000a900473ffffffffffffffffffffffffffffffffffffffff1673ffffffffffffffffffffffffffffffffffffffff161415610b8b573373ffffffffffffffffffffffffffffffffffffffff166108fc859081150290604051600060405180830381858888f19350505050610b86576040517f08c379a0000000000000000000000000000000000000000000000000000000008152600401610b7d906133b6565b60405180910390fd5b610c96565b600160009054906101000a900473ffffffffffffffffffffffffffffffffffffffff1673ffffffffffffffffffffffffffffffffffffffff1663a9059cbb84866040518363ffffffff167c0100000000000000000000000000000000000000000000000000000000028152600401610c04929190613212565b602060405180830381600087803b158015610c1e57600080fd5b505af1158015610c32573d6000803e3d6000fd5b505050506040513d601f19601f82011682018060405250610c569190810190612307565b610c95576040517f08c379a0000000000000000000000000000000000000000000000000000000008152600401610c8c90613416565b60405180910390fd5b5b8273ffffffffffffffffffffffffffffffffffffffff167f27a391d95d67e3626574fb5fbe3532bb7366e9254957b1f0e840953c248b2aa885604051610cdc9190613636565b60405180910390a260019150600c548114610d2c576040517f08c379a0000000000000000000000000000000000000000000000000000000008152600401610d23906135b6565b60405180910390fd5b5092915050565b600060025460035410610d7b576040517f08c379a0000000000000000000000000000000000000000000000000000000008152600401610d7290613456565b60405180910390fd5b600160009054906101000a900473ffffffffffffffffffffffffffffffffffffffff1673ffffffffffffffffffffffffffffffffffffffff163373ffffffffffffffffffffffffffffffffffffffff168415157fa1d829418391d83a1fa2178a31e7ea2a8941658722e6096aa43c3d11c8c656bd85604051610dfd9190613636565b60405180910390a4600073ffffffffffffffffffffffffffffffffffffffff16600160009054906101000a900473ffffffffffffffffffffffffffffffffffffffff1673ffffffffffffffffffffffffffffffffffffffff161415610f1757813414610e9e576040517f08c379a0000000000000000000000000000000000000000000000000000000008152600401610e9590613536565b60405180910390fd5b3373ffffffffffffffffffffffffffffffffffffffff166108fc349081150290604051600060405180830381858888f19350505050610f12576040517f08c379a0000000000000000000000000000000000000000000000000000000008152600401610f09906135d6565b60405180910390fd5b611171565b60003414610f5a576040517f08c379a0000000000000000000000000000000000000000000000000000000008152600401610f5190613336565b60405180910390fd5b600160009054906101000a900473ffffffffffffffffffffffffffffffffffffffff1673ffffffffffffffffffffffffffffffffffffffff166323b872dd3330856040518463ffffffff167c0100000000000000000000000000000000000000000000000000000000028152600401610fd5939291906131b2565b602060405180830381600087803b158015610fef57600080fd5b505af1158015611003573d6000803e3d6000fd5b505050506040513d601f19601f820116820180604052506110279190810190612307565b611066576040517f08c379a000000000000000000000000000000000000000000000000000000000815260040161105d906133f6565b60405180910390fd5b600160009054906101000a900473ffffffffffffffffffffffffffffffffffffffff1673ffffffffffffffffffffffffffffffffffffffff1663a9059cbb33846040518363ffffffff167c01000000000000000000000000000000000000000000000000000000000281526004016110df9291906131e9565b602060405180830381600087803b1580156110f957600080fd5b505af115801561110d573d6000803e3d6000fd5b505050506040513d601f19601f820116820180604052506111319190810190612307565b611170576040517f08c379a000000000000000000000000000000000000000000000000000000000815260040161116790613616565b60405180910390fd5b5b6001905092915050565b60075481565b600080600b60008473ffffffffffffffffffffffffffffffffffffffff1673ffffffffffffffffffffffffffffffffffffffff16815260200190815260200160002060000154119050919050565b600080600a60008473ffffffffffffffffffffffffffffffffffffffff1673ffffffffffffffffffffffffffffffffffffffff16815260200190815260200160002060000154119050919050565b6000809054906101000a900473ffffffffffffffffffffffffffffffffffffffff1681565b600960009054906101000a900460ff1681565b6000611342600a60008473ffffffffffffffffffffffffffffffffffffffff1673ffffffffffffffffffffffffffffffffffffffff16815260200190815260200160002060020154611334600a60008673ffffffffffffffffffffffffffffffffffffffff1673ffffffffffffffffffffffffffffffffffffffff16815260200190815260200160002060010154600a60008773ffffffffffffffffffffffffffffffffffffffff1673ffffffffffffffffffffffffffffffffffffffff16815260200190815260200160002060000154611ef690919063ffffffff16565b611ef690919063ffffffff16565b9050919050565b600a6020528060005260406000206000915090508060000154908060010154908060020154905083565b600960009054906101000a900460ff16156113c3576040517f08c379a00000000000000000000000000000000000000000000000000000000081526004016113ba90613396565b60405180910390fd5b6113cc33611e36565b611450576000600754141580156113e557504260075411155b80156113f45750600254600354105b80611410575060006008541415801561140f57504260085411155b5b61144f576040517f08c379a000000000000000000000000000000000000000000000000000000000815260040161144690613356565b60405180910390fd5b5b61146c61145b611b98565b600554611ea190919063ffffffff16565b6005819055506001600960006101000a81548160ff0219169083151502179055507f0e6e9dacf028bdcfdf84ef7bae6711f8d6b15d47d98c1f9772447c1ea4bc0dd660405160405180910390a1565b6114c433611e36565b611503576040517f08c379a00000000000000000000000000000000000000000000000000000000081526004016114fa90613576565b60405180910390fd5b60035460025414611549576040517f08c379a000000000000000000000000000000000000000000000000000000000815260040161154090613436565b60405180910390fd5b600960009054906101000a900460ff1615611599576040517f08c379a000000000000000000000000000000000000000000000000000000000815260040161159090613256565b60405180910390fd5b816115a382611255565b10156115e4576040517f08c379a00000000000000000000000000000000000000000000000000000000081526004016115db90613276565b60405180910390fd5b61163982600a60008473ffffffffffffffffffffffffffffffffffffffff1673ffffffffffffffffffffffffffffffffffffffff16815260200190815260200160002060020154611ea190919063ffffffff16565b600a60008373ffffffffffffffffffffffffffffffffffffffff1673ffffffffffffffffffffffffffffffffffffffff1681526020019081526020016000206002018190555061169482600654611ea190919063ffffffff16565b6006819055508073ffffffffffffffffffffffffffffffffffffffff167fc50ecc171765f66228b4db8bf340aa2e9678006dc898fcfc34075aec9b5570e4836040516116e09190613636565b60405180910390a25050565b60006001600c600082825401925050819055506000600c5490506000611773600354611765600d54600b60008973ffffffffffffffffffffffffffffffffffffffff1673ffffffffffffffffffffffffffffffffffffffff168152602001908152602001600020600001546121be90919063ffffffff16565b61222e90919063ffffffff16565b905060006117a0600d54611792846005546121be90919063ffffffff16565b61222e90919063ffffffff16565b9050600b60008673ffffffffffffffffffffffffffffffffffffffff1673ffffffffffffffffffffffffffffffffffffffff16815260200190815260200160002060010154811015611827576040517f08c379a000000000000000000000000000000000000000000000000000000000815260040161181e906135f6565b60405180910390fd5b61187c600b60008773ffffffffffffffffffffffffffffffffffffffff1673ffffffffffffffffffffffffffffffffffffffff1681526020019081526020016000206001015482611ef690919063ffffffff16565b90506118d381600b60008873ffffffffffffffffffffffffffffffffffffffff1673ffffffffffffffffffffffffffffffffffffffff16815260200190815260200160002060010154611ea190919063ffffffff16565b600b60008773ffffffffffffffffffffffffffffffffffffffff1673ffffffffffffffffffffffffffffffffffffffff16815260200190815260200160002060010181905550600073ffffffffffffffffffffffffffffffffffffffff16600160009054906101000a900473ffffffffffffffffffffffffffffffffffffffff1673ffffffffffffffffffffffffffffffffffffffff1614156119e9573373ffffffffffffffffffffffffffffffffffffffff166108fc829081150290604051600060405180830381858888f193505050506119e4576040517f08c379a00000000000000000000000000000000000000000000000000000000081526004016119db90613516565b60405180910390fd5b611af4565b600160009054906101000a900473ffffffffffffffffffffffffffffffffffffffff1673ffffffffffffffffffffffffffffffffffffffff1663a9059cbb86836040518363ffffffff167c0100000000000000000000000000000000000000000000000000000000028152600401611a62929190613212565b602060405180830381600087803b158015611a7c57600080fd5b505af1158015611a90573d6000803e3d6000fd5b505050506040513d601f19601f82011682018060405250611ab49190810190612307565b611af3576040517f08c379a0000000000000000000000000000000000000000000000000000000008152600401611aea90613596565b60405180910390fd5b5b8473ffffffffffffffffffffffffffffffffffffffff167fb6c0eca8138e097d71e2dd31e19a1266487f0553f170b7260ffe68bcbe9ff8a782604051611b3a9190613636565b60405180910390a2600193505050600c548114611b8c576040517f08c379a0000000000000000000000000000000000000000000000000000000008152600401611b83906135b6565b60405180910390fd5b50919050565b60085481565b6000611bd9600654611bcb600554611bbd600454600354611ef690919063ffffffff16565b611ef690919063ffffffff16565b611ef690919063ffffffff16565b905090565b6000806007541480611bf1575042600754115b8015611c005750600254600354105b8015611c195750600960009054906101000a900460ff16155b905090565b60045481565b600b6020528060005260406000206000915090508060000154908060010154905082565b611c5133611e36565b611c90576040517f08c379a0000000000000000000000000000000000000000000000000000000008152600401611c8790613576565b60405180910390fd5b600073ffffffffffffffffffffffffffffffffffffffff168173ffffffffffffffffffffffffffffffffffffffff1614611d665781611cce82611255565b1015611d0f576040517f08c379a0000000000000000000000000000000000000000000000000000000008152600401611d06906132d6565b60405180910390fd5b611d6482600a60008473ffffffffffffffffffffffffffffffffffffffff1673ffffffffffffffffffffffffffffffffffffffff16815260200190815260200160002060000154611ef690919063ffffffff16565b505b611d6e611b98565b821115611db0576040517f08c379a0000000000000000000000000000000000000000000000000000000008152600401611da790613476565b60405180910390fd5b611dc582600554611ea190919063ffffffff16565b6005819055507f481131d4f3f5d97379f8d85b228d5cdf2a381a9666ca66d4b4094553a8e10ad082600554604051611dfe929190613651565b60405180910390a15050565b60055481565b600160009054906101000a900473ffffffffffffffffffffffffffffffffffffffff1681565b60008173ffffffffffffffffffffffffffffffffffffffff166000809054906101000a900473ffffffffffffffffffffffffffffffffffffffff1673ffffffffffffffffffffffffffffffffffffffff16149050919050565b60025481565b60065481565b60035481565b600080828401905083811015611eec576040517f08c379a0000000000000000000000000000000000000000000000000000000008152600401611ee3906132f6565b60405180910390fd5b8091505092915050565b600082821115611f3b576040517f08c379a0000000000000000000000000000000000000000000000000000000008152600401611f3290613376565b60405180910390fd5b600082840390508091505092915050565b813414611f8e576040517f08c379a0000000000000000000000000000000000000000000000000000000008152600401611f85906132b6565b60405180910390fd5b60003411611fd1576040517f08c379a0000000000000000000000000000000000000000000000000000000008152600401611fc8906134d6565b60405180910390fd5b600081111561204f573373ffffffffffffffffffffffffffffffffffffffff166108fc829081150290604051600060405180830381858888f1935050505061204e576040517f08c379a0000000000000000000000000000000000000000000000000000000008152600401612045906134b6565b60405180910390fd5b5b5050565b60003414612096576040517f08c379a000000000000000000000000000000000000000000000000000000000815260040161208d90613296565b60405180910390fd5b60006120ab8284611ef690919063ffffffff16565b9050600160009054906101000a900473ffffffffffffffffffffffffffffffffffffffff1673ffffffffffffffffffffffffffffffffffffffff166323b872dd3330846040518463ffffffff167c0100000000000000000000000000000000000000000000000000000000028152600401612128939291906131b2565b602060405180830381600087803b15801561214257600080fd5b505af1158015612156573d6000803e3d6000fd5b505050506040513d601f19601f8201168201806040525061217a9190810190612307565b6121b9576040517f08c379a00000000000000000000000000000000000000000000000000000000081526004016121b0906134f6565b60405180910390fd5b505050565b6000808314156121d15760009050612228565b60008284029050828482816121e257fe5b0414612223576040517f08c379a000000000000000000000000000000000000000000000000000000000815260040161221a90613496565b60405180910390fd5b809150505b92915050565b6000808211612272576040517f08c379a0000000000000000000000000000000000000000000000000000000008152600401612269906133d6565b60405180910390fd5b600082848161227d57fe5b0490508091505092915050565b60008135905061229981613740565b92915050565b6000813590506122ae81613757565b92915050565b6000815190506122c381613757565b92915050565b6000813590506122d88161376e565b92915050565b6000602082840312156122f057600080fd5b60006122fe8482850161228a565b91505092915050565b60006020828403121561231957600080fd5b6000612327848285016122b4565b91505092915050565b6000806040838503121561234357600080fd5b60006123518582860161229f565b9250506020612362858286016122c9565b9150509250929050565b60006020828403121561237e57600080fd5b600061238c848285016122c9565b91505092915050565b600080604083850312156123a857600080fd5b60006123b6858286016122c9565b92505060206123c78582860161228a565b9150509250929050565b6123da8161370a565b82525050565b6123e9816136c2565b82525050565b6123f8816136d4565b82525050565b600061240b6042836136b1565b91507f617070726f76655061796f75743a3a537461747573204572726f722e2043616e60008301527f6e6f7420617070726f7665206966206772616e742069732063616e63656c6c6560208301527f642e0000000000000000000000000000000000000000000000000000000000006040830152606082019050919050565b6000612497604a836136b1565b91507f617070726f76655061796f75743a3a496e76616c696420417267756d656e742e60008301527f2076616c75652063616e6e6f74206578636565642072656d61696e696e67206160208301527f6c6c6f636174696f6e2e000000000000000000000000000000000000000000006040830152606082019050919050565b60006125236049836136b1565b91507f66756e6457697468546f6b656e3a3a43757272656e6379204572726f722e204360008301527f616e6e6f742073656e6420457468657220746f206120746f6b656e2066756e6460208301527f6564206772616e742e00000000000000000000000000000000000000000000006040830152606082019050919050565b60006125af603c836136b1565b91507f66756e645769746845746865723a3a496e76616c696420417267756d656e742e60008301527f2076616c7565206d75737420657175616c206d73672e76616c75652e000000006020830152604082019050919050565b60006126156049836136b1565b91507f617070726f7665526566756e643a3a496e76616c696420417267756d656e742e60008301527f2056616c75652067726561746572207468616e2072656d61696e696e6720616c60208301527f6c6f636174696f6e2e00000000000000000000000000000000000000000000006040830152606082019050919050565b60006126a1601b836136b1565b91507f536166654d6174683a206164646974696f6e206f766572666c6f7700000000006000830152602082019050919050565b60006126e1604a836136b1565b91507f77697468647261775061796f75743a3a496e76616c696420417267756d656e7460008301527f2e206772616e746565207061796f7574417070726f766564206d75737420657160208301527f75616c2076616c75652e000000000000000000000000000000000000000000006040830152606082019050919050565b600061276d6042836136b1565b91507f7369676e616c3a3a43757272656e6379204572726f722e2043616e6e6f74207360008301527f656e6420457468657220746f206120746f6b656e2066756e646564206772616e60208301527f742e0000000000000000000000000000000000000000000000000000000000006040830152606082019050919050565b60006127f9603f836136b1565b91507f63616e63656c4772616e743a3a496e76616c69642053656e6465722e2053656e60008301527f646572206d757374206265206d616e61676572206f7220657870697265642e006020830152604082019050919050565b600061285f601e836136b1565b91507f536166654d6174683a207375627472616374696f6e206f766572666c6f7700006000830152602082019050919050565b600061289f602d836136b1565b91507f63616e63656c4772616e743a3a537461747573204572726f722e20416c72656160008301527f64792063616e63656c6c65642e000000000000000000000000000000000000006020830152604082019050919050565b60006129056040836136b1565b91507f77697468647261775061796f75743a3a5472616e73666572204572726f722e2060008301527f556e61626c6520746f2073656e642076616c756520746f204772616e7465652e6020830152604082019050919050565b600061296b601a836136b1565b91507f536166654d6174683a206469766973696f6e206279207a65726f0000000000006000830152602082019050919050565b60006129ab6038836136b1565b91507f7369676e616c3a3a5472616e73666572204572726f722e20455243323020746f60008301527f6b656e207472616e7366657246726f6d206661696c65642e00000000000000006020830152604082019050919050565b6000612a11603c836136b1565b91507f77697468647261775061796f75743a3a5472616e73666572204572726f722e2060008301527f455243323020746f6b656e207472616e73666572206661696c65642e000000006020830152604082019050919050565b6000612a776046836136b1565b91507f617070726f76655061796f75743a3a537461747573204572726f722e2043616e60008301527f6e6f7420617070726f76652069662066756e64696e6720746172676574206e6f60208301527f74206d65742e00000000000000000000000000000000000000000000000000006040830152606082019050919050565b6000612b03602d836136b1565b91507f7369676e616c3a3a537461747573204572726f722e2046756e64696e6720746160008301527f7267657420726561636865642e000000000000000000000000000000000000006020830152604082019050919050565b6000612b69604a836136b1565b91507f617070726f7665526566756e643a3a496e76616c696420417267756d656e742e60008301527f20416d6f756e742069732067726561746572207468616e20417661696c61626c60208301527f652042616c616e63652e000000000000000000000000000000000000000000006040830152606082019050919050565b6000612bf56021836136b1565b91507f536166654d6174683a206d756c7469706c69636174696f6e206f766572666c6f60008301527f77000000000000000000000000000000000000000000000000000000000000006020830152604082019050919050565b6000612c5b6044836136b1565b91507f66756e645769746845746865723a3a5472616e73666572204572726f722e205560008301527f6e61626c6520746f2073656e64206368616e6765206261636b20746f2073656e60208301527f6465722e000000000000000000000000000000000000000000000000000000006040830152606082019050919050565b6000612ce7603a836136b1565b91507f66756e645769746845746865723a3a496e76616c69642056616c75652e206d7360008301527f672e76616c75652062652067726561746572207468616e20302e0000000000006020830152604082019050919050565b6000612d4d6036836136b1565b91507f66756e643a3a5472616e73666572204572726f722e20455243323020746f6b6560008301527f6e207472616e7366657246726f6d206661696c65642e000000000000000000006020830152604082019050919050565b6000612db36044836136b1565b91507f7769746864726177526566756e643a3a5472616e73666572204572726f722e2060008301527f556e61626c6520746f2073656e6420726566756e6456616c756520746f20446f60208301527f6e6f722e000000000000000000000000000000000000000000000000000000006040830152606082019050919050565b6000612e3f6035836136b1565b91507f7369676e616c3a3a496e76616c696420417267756d656e742e2076616c75652060008301527f6d757374206d61746368206d73672e76616c75652e00000000000000000000006020830152604082019050919050565b6000612ea5602e836136b1565b91507f66756e643a3a537461747573204572726f722e204772616e74206e6f74206f7060008301527f656e20746f2066756e64696e672e0000000000000000000000000000000000006020830152604082019050919050565b6000612f0b6046836136b1565b91507f6f6e6c794d616e616765723a3a5065726d697373696f6e204572726f722e204660008301527f756e6374696f6e2063616e206f6e6c792062652063616c6c6564206279206d6160208301527f6e616765722e00000000000000000000000000000000000000000000000000006040830152606082019050919050565b6000612f97603c836136b1565b91507f7769746864726177526566756e643a3a5472616e73666572204572726f722e2060008301527f455243323020746f6b656e207472616e73666572206661696c65642e000000006020830152604082019050919050565b6000612ffd601f836136b1565b91507f5265656e7472616e637947756172643a207265656e7472616e742063616c6c006000830152602082019050919050565b600061303d6040836136b1565b91507f7369676e616c3a3a5472616e73666572204572726f722e20556e61626c65207460008301527f6f2073656e64206d73672e76616c7565206261636b20746f2073656e6465722e6020830152604082019050919050565b60006130a36043836136b1565b91507f7769746864726177526566756e643a3a4572726f722e20446f6e6f722068617360008301527f20616c72656164792077697468647261776e20656c696769626c65207265667560208301527f6e642e00000000000000000000000000000000000000000000000000000000006040830152606082019050919050565b600061312f6034836136b1565b91507f7369676e616c3a3a5472616e73666572204572726f722e20455243323020746f60008301527f6b656e207472616e73666572206661696c65642e0000000000000000000000006020830152604082019050919050565b61319181613700565b82525050565b60006020820190506131ac60008301846123e0565b92915050565b60006060820190506131c760008301866123d1565b6131d460208301856123d1565b6131e16040830184613188565b949350505050565b60006040820190506131fe60008301856123d1565b61320b6020830184613188565b9392505050565b600060408201905061322760008301856123e0565b6132346020830184613188565b9392505050565b600060208201905061325060008301846123ef565b92915050565b6000602082019050818103600083015261326f816123fe565b9050919050565b6000602082019050818103600083015261328f8161248a565b9050919050565b600060208201905081810360008301526132af81612516565b9050919050565b600060208201905081810360008301526132cf816125a2565b9050919050565b600060208201905081810360008301526132ef81612608565b9050919050565b6000602082019050818103600083015261330f81612694565b9050919050565b6000602082019050818103600083015261332f816126d4565b9050919050565b6000602082019050818103600083015261334f81612760565b9050919050565b6000602082019050818103600083015261336f816127ec565b9050919050565b6000602082019050818103600083015261338f81612852565b9050919050565b600060208201905081810360008301526133af81612892565b9050919050565b600060208201905081810360008301526133cf816128f8565b9050919050565b600060208201905081810360008301526133ef8161295e565b9050919050565b6000602082019050818103600083015261340f8161299e565b9050919050565b6000602082019050818103600083015261342f81612a04565b9050919050565b6000602082019050818103600083015261344f81612a6a565b9050919050565b6000602082019050818103600083015261346f81612af6565b9050919050565b6000602082019050818103600083015261348f81612b5c565b9050919050565b600060208201905081810360008301526134af81612be8565b9050919050565b600060208201905081810360008301526134cf81612c4e565b9050919050565b600060208201905081810360008301526134ef81612cda565b9050919050565b6000602082019050818103600083015261350f81612d40565b9050919050565b6000602082019050818103600083015261352f81612da6565b9050919050565b6000602082019050818103600083015261354f81612e32565b9050919050565b6000602082019050818103600083015261356f81612e98565b9050919050565b6000602082019050818103600083015261358f81612efe565b9050919050565b600060208201905081810360008301526135af81612f8a565b9050919050565b600060208201905081810360008301526135cf81612ff0565b9050919050565b600060208201905081810360008301526135ef81613030565b9050919050565b6000602082019050818103600083015261360f81613096565b9050919050565b6000602082019050818103600083015261362f81613122565b9050919050565b600060208201905061364b6000830184613188565b92915050565b60006040820190506136666000830185613188565b6136736020830184613188565b9392505050565b600060608201905061368f6000830186613188565b61369c6020830185613188565b6136a96040830184613188565b949350505050565b600082825260208201905092915050565b60006136cd826136e0565b9050919050565b60008115159050919050565b600073ffffffffffffffffffffffffffffffffffffffff82169050919050565b6000819050919050565b60006137158261371c565b9050919050565b60006137278261372e565b9050919050565b6000613739826136e0565b9050919050565b613749816136c2565b811461375457600080fd5b50565b613760816136d4565b811461376b57600080fd5b50565b61377781613700565b811461378257600080fd5b5056fea365627a7a723058208beca9eebd31cf7ef175f81e7095d744c656bf1f9c7c4bd4405aa3217f32c0666c6578706572696d656e74616cf564736f6c634300050a0040",
      "opcodes": "PUSH1 0x80 PUSH1 0x40 MSTORE PUSH8 0xDE0B6B3A7640000 PUSH1 0xD SSTORE CALLVALUE DUP1 ISZERO PUSH3 0x1D JUMPI PUSH1 0x0 DUP1 REVERT JUMPDEST POP PUSH1 0x40 MLOAD PUSH3 0x45FE CODESIZE SUB DUP1 PUSH3 0x45FE DUP4 CODECOPY DUP2 DUP2 ADD PUSH1 0x40 MSTORE PUSH3 0x43 SWAP2 SWAP1 DUP2 ADD SWAP1 PUSH3 0x648 JUMP JUMPDEST PUSH1 0x1 PUSH1 0xC DUP2 SWAP1 SSTORE POP PUSH1 0x0 DUP3 EQ DUP1 PUSH3 0x5A JUMPI POP DUP1 DUP3 LT JUMPDEST PUSH3 0x9C JUMPI PUSH1 0x40 MLOAD PUSH32 0x8C379A000000000000000000000000000000000000000000000000000000000 DUP2 MSTORE PUSH1 0x4 ADD PUSH3 0x93 SWAP1 PUSH3 0xD01 JUMP JUMPDEST PUSH1 0x40 MLOAD DUP1 SWAP2 SUB SWAP1 REVERT JUMPDEST PUSH1 0x0 DUP3 EQ DUP1 PUSH3 0xAB JUMPI POP TIMESTAMP DUP3 GT JUMPDEST PUSH3 0xED JUMPI PUSH1 0x40 MLOAD PUSH32 0x8C379A000000000000000000000000000000000000000000000000000000000 DUP2 MSTORE PUSH1 0x4 ADD PUSH3 0xE4 SWAP1 PUSH3 0xCBD JUMP JUMPDEST PUSH1 0x40 MLOAD DUP1 SWAP2 SUB SWAP1 REVERT JUMPDEST PUSH1 0x0 DUP2 EQ DUP1 PUSH3 0xFC JUMPI POP TIMESTAMP DUP2 GT JUMPDEST PUSH3 0x13E JUMPI PUSH1 0x40 MLOAD PUSH32 0x8C379A000000000000000000000000000000000000000000000000000000000 DUP2 MSTORE PUSH1 0x4 ADD PUSH3 0x135 SWAP1 PUSH3 0xC57 JUMP JUMPDEST PUSH1 0x40 MLOAD DUP1 SWAP2 SUB SWAP1 REVERT JUMPDEST PUSH1 0x0 DUP8 MLOAD GT PUSH3 0x185 JUMPI PUSH1 0x40 MLOAD PUSH32 0x8C379A000000000000000000000000000000000000000000000000000000000 DUP2 MSTORE PUSH1 0x4 ADD PUSH3 0x17C SWAP1 PUSH3 0xC35 JUMP JUMPDEST PUSH1 0x40 MLOAD DUP1 SWAP2 SUB SWAP1 REVERT JUMPDEST DUP6 MLOAD DUP8 MLOAD EQ PUSH3 0x1CC JUMPI PUSH1 0x40 MLOAD PUSH32 0x8C379A000000000000000000000000000000000000000000000000000000000 DUP2 MSTORE PUSH1 0x4 ADD PUSH3 0x1C3 SWAP1 PUSH3 0xCDF JUMP JUMPDEST PUSH1 0x40 MLOAD DUP1 SWAP2 SUB SWAP1 REVERT JUMPDEST DUP5 PUSH1 0x0 DUP1 PUSH2 0x100 EXP DUP2 SLOAD DUP2 PUSH20 0xFFFFFFFFFFFFFFFFFFFFFFFFFFFFFFFFFFFFFFFF MUL NOT AND SWAP1 DUP4 PUSH20 0xFFFFFFFFFFFFFFFFFFFFFFFFFFFFFFFFFFFFFFFF AND MUL OR SWAP1 SSTORE POP DUP4 PUSH1 0x1 PUSH1 0x0 PUSH2 0x100 EXP DUP2 SLOAD DUP2 PUSH20 0xFFFFFFFFFFFFFFFFFFFFFFFFFFFFFFFFFFFFFFFF MUL NOT AND SWAP1 DUP4 PUSH20 0xFFFFFFFFFFFFFFFFFFFFFFFFFFFFFFFFFFFFFFFF AND MUL OR SWAP1 SSTORE POP DUP3 PUSH1 0x2 DUP2 SWAP1 SSTORE POP DUP2 PUSH1 0x7 DUP2 SWAP1 SSTORE POP DUP1 PUSH1 0x8 DUP2 SWAP1 SSTORE POP PUSH1 0x0 DUP1 PUSH1 0x0 SWAP1 POP PUSH1 0x0 DUP1 SWAP1 POP JUMPDEST DUP10 MLOAD DUP2 LT ISZERO PUSH3 0x453 JUMPI PUSH1 0x0 DUP11 DUP3 DUP2 MLOAD DUP2 LT PUSH3 0x288 JUMPI INVALID JUMPDEST PUSH1 0x20 MUL PUSH1 0x20 ADD ADD MLOAD SWAP1 POP PUSH1 0x0 DUP11 DUP4 DUP2 MLOAD DUP2 LT PUSH3 0x2A1 JUMPI INVALID JUMPDEST PUSH1 0x20 MUL PUSH1 0x20 ADD ADD MLOAD SWAP1 POP PUSH1 0x0 DUP2 GT PUSH3 0x2F1 JUMPI PUSH1 0x40 MLOAD PUSH32 0x8C379A000000000000000000000000000000000000000000000000000000000 DUP2 MSTORE PUSH1 0x4 ADD PUSH3 0x2E8 SWAP1 PUSH3 0xBCF JUMP JUMPDEST PUSH1 0x40 MLOAD DUP1 SWAP2 SUB SWAP1 REVERT JUMPDEST DUP4 PUSH20 0xFFFFFFFFFFFFFFFFFFFFFFFFFFFFFFFFFFFFFFFF AND DUP3 PUSH20 0xFFFFFFFFFFFFFFFFFFFFFFFFFFFFFFFFFFFFFFFF AND GT PUSH3 0x362 JUMPI PUSH1 0x40 MLOAD PUSH32 0x8C379A000000000000000000000000000000000000000000000000000000000 DUP2 MSTORE PUSH1 0x4 ADD PUSH3 0x359 SWAP1 PUSH3 0xBF1 JUMP JUMPDEST PUSH1 0x40 MLOAD DUP1 SWAP2 SUB SWAP1 REVERT JUMPDEST DUP10 PUSH20 0xFFFFFFFFFFFFFFFFFFFFFFFFFFFFFFFFFFFFFFFF AND DUP3 PUSH20 0xFFFFFFFFFFFFFFFFFFFFFFFFFFFFFFFFFFFFFFFF AND EQ ISZERO PUSH3 0x3D4 JUMPI PUSH1 0x40 MLOAD PUSH32 0x8C379A000000000000000000000000000000000000000000000000000000000 DUP2 MSTORE PUSH1 0x4 ADD PUSH3 0x3CB SWAP1 PUSH3 0xC9B JUMP JUMPDEST PUSH1 0x40 MLOAD DUP1 SWAP2 SUB SWAP1 REVERT JUMPDEST PUSH3 0x3F7 DUP2 DUP7 PUSH3 0x4A8 PUSH5 0x100000000 MUL PUSH3 0x1EA1 OR SWAP1 SWAP2 SWAP1 PUSH5 0x100000000 SWAP1 DIV JUMP JUMPDEST SWAP5 POP DUP2 SWAP4 POP DUP1 PUSH1 0xA PUSH1 0x0 DUP5 PUSH20 0xFFFFFFFFFFFFFFFFFFFFFFFFFFFFFFFFFFFFFFFF AND PUSH20 0xFFFFFFFFFFFFFFFFFFFFFFFFFFFFFFFFFFFFFFFF AND DUP2 MSTORE PUSH1 0x20 ADD SWAP1 DUP2 MSTORE PUSH1 0x20 ADD PUSH1 0x0 KECCAK256 PUSH1 0x0 ADD DUP2 SWAP1 SSTORE POP POP POP DUP1 DUP1 PUSH1 0x1 ADD SWAP2 POP POP PUSH3 0x26F JUMP JUMPDEST POP DUP5 DUP3 EQ PUSH3 0x499 JUMPI PUSH1 0x40 MLOAD PUSH32 0x8C379A000000000000000000000000000000000000000000000000000000000 DUP2 MSTORE PUSH1 0x4 ADD PUSH3 0x490 SWAP1 PUSH3 0xC79 JUMP JUMPDEST PUSH1 0x40 MLOAD DUP1 SWAP2 SUB SWAP1 REVERT JUMPDEST POP POP POP POP POP POP POP POP POP PUSH3 0xE26 JUMP JUMPDEST PUSH1 0x0 DUP1 DUP3 DUP5 ADD SWAP1 POP DUP4 DUP2 LT ISZERO PUSH3 0x4F6 JUMPI PUSH1 0x40 MLOAD PUSH32 0x8C379A000000000000000000000000000000000000000000000000000000000 DUP2 MSTORE PUSH1 0x4 ADD PUSH3 0x4ED SWAP1 PUSH3 0xC13 JUMP JUMPDEST PUSH1 0x40 MLOAD DUP1 SWAP2 SUB SWAP1 REVERT JUMPDEST DUP1 SWAP2 POP POP SWAP3 SWAP2 POP POP JUMP JUMPDEST PUSH1 0x0 DUP2 MLOAD SWAP1 POP PUSH3 0x511 DUP2 PUSH3 0xDF2 JUMP JUMPDEST SWAP3 SWAP2 POP POP JUMP JUMPDEST PUSH1 0x0 DUP3 PUSH1 0x1F DUP4 ADD SLT PUSH3 0x529 JUMPI PUSH1 0x0 DUP1 REVERT JUMPDEST DUP2 MLOAD PUSH3 0x540 PUSH3 0x53A DUP3 PUSH3 0xD51 JUMP JUMPDEST PUSH3 0xD23 JUMP JUMPDEST SWAP2 POP DUP2 DUP2 DUP4 MSTORE PUSH1 0x20 DUP5 ADD SWAP4 POP PUSH1 0x20 DUP2 ADD SWAP1 POP DUP4 DUP6 PUSH1 0x20 DUP5 MUL DUP3 ADD GT ISZERO PUSH3 0x566 JUMPI PUSH1 0x0 DUP1 REVERT JUMPDEST PUSH1 0x0 JUMPDEST DUP4 DUP2 LT ISZERO PUSH3 0x59A JUMPI DUP2 PUSH3 0x57F DUP9 DUP3 PUSH3 0x500 JUMP JUMPDEST DUP5 MSTORE PUSH1 0x20 DUP5 ADD SWAP4 POP PUSH1 0x20 DUP4 ADD SWAP3 POP POP PUSH1 0x1 DUP2 ADD SWAP1 POP PUSH3 0x569 JUMP JUMPDEST POP POP POP POP SWAP3 SWAP2 POP POP JUMP JUMPDEST PUSH1 0x0 DUP3 PUSH1 0x1F DUP4 ADD SLT PUSH3 0x5B6 JUMPI PUSH1 0x0 DUP1 REVERT JUMPDEST DUP2 MLOAD PUSH3 0x5CD PUSH3 0x5C7 DUP3 PUSH3 0xD7A JUMP JUMPDEST PUSH3 0xD23 JUMP JUMPDEST SWAP2 POP DUP2 DUP2 DUP4 MSTORE PUSH1 0x20 DUP5 ADD SWAP4 POP PUSH1 0x20 DUP2 ADD SWAP1 POP DUP4 DUP6 PUSH1 0x20 DUP5 MUL DUP3 ADD GT ISZERO PUSH3 0x5F3 JUMPI PUSH1 0x0 DUP1 REVERT JUMPDEST PUSH1 0x0 JUMPDEST DUP4 DUP2 LT ISZERO PUSH3 0x627 JUMPI DUP2 PUSH3 0x60C DUP9 DUP3 PUSH3 0x631 JUMP JUMPDEST DUP5 MSTORE PUSH1 0x20 DUP5 ADD SWAP4 POP PUSH1 0x20 DUP4 ADD SWAP3 POP POP PUSH1 0x1 DUP2 ADD SWAP1 POP PUSH3 0x5F6 JUMP JUMPDEST POP POP POP POP SWAP3 SWAP2 POP POP JUMP JUMPDEST PUSH1 0x0 DUP2 MLOAD SWAP1 POP PUSH3 0x642 DUP2 PUSH3 0xE0C JUMP JUMPDEST SWAP3 SWAP2 POP POP JUMP JUMPDEST PUSH1 0x0 DUP1 PUSH1 0x0 DUP1 PUSH1 0x0 DUP1 PUSH1 0x0 PUSH1 0xE0 DUP9 DUP11 SUB SLT ISZERO PUSH3 0x664 JUMPI PUSH1 0x0 DUP1 REVERT JUMPDEST PUSH1 0x0 DUP9 ADD MLOAD PUSH8 0xFFFFFFFFFFFFFFFF DUP2 GT ISZERO PUSH3 0x67F JUMPI PUSH1 0x0 DUP1 REVERT JUMPDEST PUSH3 0x68D DUP11 DUP3 DUP12 ADD PUSH3 0x517 JUMP JUMPDEST SWAP8 POP POP PUSH1 0x20 DUP9 ADD MLOAD PUSH8 0xFFFFFFFFFFFFFFFF DUP2 GT ISZERO PUSH3 0x6AB JUMPI PUSH1 0x0 DUP1 REVERT JUMPDEST PUSH3 0x6B9 DUP11 DUP3 DUP12 ADD PUSH3 0x5A4 JUMP JUMPDEST SWAP7 POP POP PUSH1 0x40 PUSH3 0x6CC DUP11 DUP3 DUP12 ADD PUSH3 0x500 JUMP JUMPDEST SWAP6 POP POP PUSH1 0x60 PUSH3 0x6DF DUP11 DUP3 DUP12 ADD PUSH3 0x500 JUMP JUMPDEST SWAP5 POP POP PUSH1 0x80 PUSH3 0x6F2 DUP11 DUP3 DUP12 ADD PUSH3 0x631 JUMP JUMPDEST SWAP4 POP POP PUSH1 0xA0 PUSH3 0x705 DUP11 DUP3 DUP12 ADD PUSH3 0x631 JUMP JUMPDEST SWAP3 POP POP PUSH1 0xC0 PUSH3 0x718 DUP11 DUP3 DUP12 ADD PUSH3 0x631 JUMP JUMPDEST SWAP2 POP POP SWAP3 SWAP6 SWAP9 SWAP2 SWAP5 SWAP8 POP SWAP3 SWAP6 POP JUMP JUMPDEST PUSH1 0x0 PUSH3 0x736 PUSH1 0x44 DUP4 PUSH3 0xDA3 JUMP JUMPDEST SWAP2 POP PUSH32 0x636F6E7374727563746F723A3A496E76616C696420417267756D656E742E2063 PUSH1 0x0 DUP4 ADD MSTORE PUSH32 0x757272656E74416D6F756E74206D757374206265206772656174657220746861 PUSH1 0x20 DUP4 ADD MSTORE PUSH32 0x6E20302E00000000000000000000000000000000000000000000000000000000 PUSH1 0x40 DUP4 ADD MSTORE PUSH1 0x60 DUP3 ADD SWAP1 POP SWAP2 SWAP1 POP JUMP JUMPDEST PUSH1 0x0 PUSH3 0x7C4 PUSH1 0x43 DUP4 PUSH3 0xDA3 JUMP JUMPDEST SWAP2 POP PUSH32 0x636F6E7374727563746F723A3A496E76616C696420417267756D656E742E2044 PUSH1 0x0 DUP4 ADD MSTORE PUSH32 0x75706C6963617465206F72206F7574206F66206F72646572205F6772616E7465 PUSH1 0x20 DUP4 ADD MSTORE PUSH32 0x65732E0000000000000000000000000000000000000000000000000000000000 PUSH1 0x40 DUP4 ADD MSTORE PUSH1 0x60 DUP3 ADD SWAP1 POP SWAP2 SWAP1 POP JUMP JUMPDEST PUSH1 0x0 PUSH3 0x852 PUSH1 0x1B DUP4 PUSH3 0xDA3 JUMP JUMPDEST SWAP2 POP PUSH32 0x536166654D6174683A206164646974696F6E206F766572666C6F770000000000 PUSH1 0x0 DUP4 ADD MSTORE PUSH1 0x20 DUP3 ADD SWAP1 POP SWAP2 SWAP1 POP JUMP JUMPDEST PUSH1 0x0 PUSH3 0x894 PUSH1 0x3E DUP4 PUSH3 0xDA3 JUMP JUMPDEST SWAP2 POP PUSH32 0x636F6E7374727563746F723A3A496E76616C696420417267756D656E742E204D PUSH1 0x0 DUP4 ADD MSTORE PUSH32 0x7573742068617665206F6E65206F72206D6F7265206772616E746565732E0000 PUSH1 0x20 DUP4 ADD MSTORE PUSH1 0x40 DUP3 ADD SWAP1 POP SWAP2 SWAP1 POP JUMP JUMPDEST PUSH1 0x0 PUSH3 0x8FC PUSH1 0x3D DUP4 PUSH3 0xDA3 JUMP JUMPDEST SWAP2 POP PUSH32 0x636F6E7374727563746F723A3A496E76616C696420417267756D656E742E205F PUSH1 0x0 DUP4 ADD MSTORE PUSH32 0x636F6E747261637445787069726174696F6E206E6F74203E206E6F772E000000 PUSH1 0x20 DUP4 ADD MSTORE PUSH1 0x40 DUP3 ADD SWAP1 POP SWAP2 SWAP1 POP JUMP JUMPDEST PUSH1 0x0 PUSH3 0x964 PUSH1 0x4C DUP4 PUSH3 0xDA3 JUMP JUMPDEST SWAP2 POP PUSH32 0x636F6E7374727563746F723A3A496E76616C696420417267756D656E742E205F PUSH1 0x0 DUP4 ADD MSTORE PUSH32 0x74617267657446756E64696E67206D75737420657175616C20746F74616C4675 PUSH1 0x20 DUP4 ADD MSTORE PUSH32 0x6E64696E67416D6F756E742E0000000000000000000000000000000000000000 PUSH1 0x40 DUP4 ADD MSTORE PUSH1 0x60 DUP3 ADD SWAP1 POP SWAP2 SWAP1 POP JUMP JUMPDEST PUSH1 0x0 PUSH3 0x9F2 PUSH1 0x3C DUP4 PUSH3 0xDA3 JUMP JUMPDEST SWAP2 POP PUSH32 0x636F6E7374727563746F723A3A496E76616C696420417267756D656E742E205F PUSH1 0x0 DUP4 ADD MSTORE PUSH32 0x6D616E616765722063616E6E6F742062652061204772616E7465652E00000000 PUSH1 0x20 DUP4 ADD MSTORE PUSH1 0x40 DUP3 ADD SWAP1 POP SWAP2 SWAP1 POP JUMP JUMPDEST PUSH1 0x0 PUSH3 0xA5A PUSH1 0x3C DUP4 PUSH3 0xDA3 JUMP JUMPDEST SWAP2 POP PUSH32 0x636F6E7374727563746F723A3A496E76616C696420417267756D656E742E205F PUSH1 0x0 DUP4 ADD MSTORE PUSH32 0x66756E64696E6745787069726174696F6E206E6F74203E206E6F772E00000000 PUSH1 0x20 DUP4 ADD MSTORE PUSH1 0x40 DUP3 ADD SWAP1 POP SWAP2 SWAP1 POP JUMP JUMPDEST PUSH1 0x0 PUSH3 0xAC2 PUSH1 0x4A DUP4 PUSH3 0xDA3 JUMP JUMPDEST SWAP2 POP PUSH32 0x636F6E7374727563746F723A3A496E76616C696420417267756D656E742E205F PUSH1 0x0 DUP4 ADD MSTORE PUSH32 0x6772616E746565732E6C656E677468206D75737420657175616C205F616D6F75 PUSH1 0x20 DUP4 ADD MSTORE PUSH32 0x6E74732E6C656E67746800000000000000000000000000000000000000000000 PUSH1 0x40 DUP4 ADD MSTORE PUSH1 0x60 DUP3 ADD SWAP1 POP SWAP2 SWAP1 POP JUMP JUMPDEST PUSH1 0x0 PUSH3 0xB50 PUSH1 0x4C DUP4 PUSH3 0xDA3 JUMP JUMPDEST SWAP2 POP PUSH32 0x636F6E7374727563746F723A3A496E76616C696420417267756D656E742E205F PUSH1 0x0 DUP4 ADD MSTORE PUSH32 0x66756E64696E6745787069726174696F6E206E6F74203C205F636F6E74726163 PUSH1 0x20 DUP4 ADD MSTORE PUSH32 0x7445787069726174696F6E2E0000000000000000000000000000000000000000 PUSH1 0x40 DUP4 ADD MSTORE PUSH1 0x60 DUP3 ADD SWAP1 POP SWAP2 SWAP1 POP JUMP JUMPDEST PUSH1 0x0 PUSH1 0x20 DUP3 ADD SWAP1 POP DUP2 DUP2 SUB PUSH1 0x0 DUP4 ADD MSTORE PUSH3 0xBEA DUP2 PUSH3 0x727 JUMP JUMPDEST SWAP1 POP SWAP2 SWAP1 POP JUMP JUMPDEST PUSH1 0x0 PUSH1 0x20 DUP3 ADD SWAP1 POP DUP2 DUP2 SUB PUSH1 0x0 DUP4 ADD MSTORE PUSH3 0xC0C DUP2 PUSH3 0x7B5 JUMP JUMPDEST SWAP1 POP SWAP2 SWAP1 POP JUMP JUMPDEST PUSH1 0x0 PUSH1 0x20 DUP3 ADD SWAP1 POP DUP2 DUP2 SUB PUSH1 0x0 DUP4 ADD MSTORE PUSH3 0xC2E DUP2 PUSH3 0x843 JUMP JUMPDEST SWAP1 POP SWAP2 SWAP1 POP JUMP JUMPDEST PUSH1 0x0 PUSH1 0x20 DUP3 ADD SWAP1 POP DUP2 DUP2 SUB PUSH1 0x0 DUP4 ADD MSTORE PUSH3 0xC50 DUP2 PUSH3 0x885 JUMP JUMPDEST SWAP1 POP SWAP2 SWAP1 POP JUMP JUMPDEST PUSH1 0x0 PUSH1 0x20 DUP3 ADD SWAP1 POP DUP2 DUP2 SUB PUSH1 0x0 DUP4 ADD MSTORE PUSH3 0xC72 DUP2 PUSH3 0x8ED JUMP JUMPDEST SWAP1 POP SWAP2 SWAP1 POP JUMP JUMPDEST PUSH1 0x0 PUSH1 0x20 DUP3 ADD SWAP1 POP DUP2 DUP2 SUB PUSH1 0x0 DUP4 ADD MSTORE PUSH3 0xC94 DUP2 PUSH3 0x955 JUMP JUMPDEST SWAP1 POP SWAP2 SWAP1 POP JUMP JUMPDEST PUSH1 0x0 PUSH1 0x20 DUP3 ADD SWAP1 POP DUP2 DUP2 SUB PUSH1 0x0 DUP4 ADD MSTORE PUSH3 0xCB6 DUP2 PUSH3 0x9E3 JUMP JUMPDEST SWAP1 POP SWAP2 SWAP1 POP JUMP JUMPDEST PUSH1 0x0 PUSH1 0x20 DUP3 ADD SWAP1 POP DUP2 DUP2 SUB PUSH1 0x0 DUP4 ADD MSTORE PUSH3 0xCD8 DUP2 PUSH3 0xA4B JUMP JUMPDEST SWAP1 POP SWAP2 SWAP1 POP JUMP JUMPDEST PUSH1 0x0 PUSH1 0x20 DUP3 ADD SWAP1 POP DUP2 DUP2 SUB PUSH1 0x0 DUP4 ADD MSTORE PUSH3 0xCFA DUP2 PUSH3 0xAB3 JUMP JUMPDEST SWAP1 POP SWAP2 SWAP1 POP JUMP JUMPDEST PUSH1 0x0 PUSH1 0x20 DUP3 ADD SWAP1 POP DUP2 DUP2 SUB PUSH1 0x0 DUP4 ADD MSTORE PUSH3 0xD1C DUP2 PUSH3 0xB41 JUMP JUMPDEST SWAP1 POP SWAP2 SWAP1 POP JUMP JUMPDEST PUSH1 0x0 PUSH1 0x40 MLOAD SWAP1 POP DUP2 DUP2 ADD DUP2 DUP2 LT PUSH8 0xFFFFFFFFFFFFFFFF DUP3 GT OR ISZERO PUSH3 0xD47 JUMPI PUSH1 0x0 DUP1 REVERT JUMPDEST DUP1 PUSH1 0x40 MSTORE POP SWAP2 SWAP1 POP JUMP JUMPDEST PUSH1 0x0 PUSH8 0xFFFFFFFFFFFFFFFF DUP3 GT ISZERO PUSH3 0xD69 JUMPI PUSH1 0x0 DUP1 REVERT JUMPDEST PUSH1 0x20 DUP3 MUL SWAP1 POP PUSH1 0x20 DUP2 ADD SWAP1 POP SWAP2 SWAP1 POP JUMP JUMPDEST PUSH1 0x0 PUSH8 0xFFFFFFFFFFFFFFFF DUP3 GT ISZERO PUSH3 0xD92 JUMPI PUSH1 0x0 DUP1 REVERT JUMPDEST PUSH1 0x20 DUP3 MUL SWAP1 POP PUSH1 0x20 DUP2 ADD SWAP1 POP SWAP2 SWAP1 POP JUMP JUMPDEST PUSH1 0x0 DUP3 DUP3 MSTORE PUSH1 0x20 DUP3 ADD SWAP1 POP SWAP3 SWAP2 POP POP JUMP JUMPDEST PUSH1 0x0 PUSH3 0xDC1 DUP3 PUSH3 0xDC8 JUMP JUMPDEST SWAP1 POP SWAP2 SWAP1 POP JUMP JUMPDEST PUSH1 0x0 PUSH20 0xFFFFFFFFFFFFFFFFFFFFFFFFFFFFFFFFFFFFFFFF DUP3 AND SWAP1 POP SWAP2 SWAP1 POP JUMP JUMPDEST PUSH1 0x0 DUP2 SWAP1 POP SWAP2 SWAP1 POP JUMP JUMPDEST PUSH3 0xDFD DUP2 PUSH3 0xDB4 JUMP JUMPDEST DUP2 EQ PUSH3 0xE09 JUMPI PUSH1 0x0 DUP1 REVERT JUMPDEST POP JUMP JUMPDEST PUSH3 0xE17 DUP2 PUSH3 0xDE8 JUMP JUMPDEST DUP2 EQ PUSH3 0xE23 JUMPI PUSH1 0x0 DUP1 REVERT JUMPDEST POP JUMP JUMPDEST PUSH2 0x37C8 DUP1 PUSH3 0xE36 PUSH1 0x0 CODECOPY PUSH1 0x0 RETURN INVALID PUSH1 0x80 PUSH1 0x40 MSTORE PUSH1 0x4 CALLDATASIZE LT PUSH2 0x182 JUMPI PUSH1 0x0 CALLDATALOAD PUSH29 0x100000000000000000000000000000000000000000000000000000000 SWAP1 DIV DUP1 PUSH4 0xA814001F GT PUSH2 0xEE JUMPI DUP1 PUSH4 0xD5F8AB89 GT PUSH2 0xA7 JUMPI DUP1 PUSH4 0xF3AE2415 GT PUSH2 0x81 JUMPI DUP1 PUSH4 0xF3AE2415 EQ PUSH2 0x595 JUMPI DUP1 PUSH4 0xF4D42453 EQ PUSH2 0x5D2 JUMPI DUP1 PUSH4 0xF91C9504 EQ PUSH2 0x5FD JUMPI DUP1 PUSH4 0xFE47A8A7 EQ PUSH2 0x628 JUMPI PUSH2 0x182 JUMP JUMPDEST DUP1 PUSH4 0xD5F8AB89 EQ PUSH2 0x516 JUMPI DUP1 PUSH4 0xD9082962 EQ PUSH2 0x53F JUMPI DUP1 PUSH4 0xE5A6B10F EQ PUSH2 0x56A JUMPI PUSH2 0x182 JUMP JUMPDEST DUP1 PUSH4 0xA814001F EQ PUSH2 0x3EF JUMPI DUP1 PUSH4 0xAB2F0E51 EQ PUSH2 0x41A JUMPI DUP1 PUSH4 0xBC352C91 EQ PUSH2 0x445 JUMPI DUP1 PUSH4 0xBC579103 EQ PUSH2 0x470 JUMPI DUP1 PUSH4 0xCA0CDEA8 EQ PUSH2 0x49B JUMPI DUP1 PUSH4 0xCA1D209D EQ PUSH2 0x4D9 JUMPI PUSH2 0x182 JUMP JUMPDEST DUP1 PUSH4 0x56039D6E GT PUSH2 0x140 JUMPI DUP1 PUSH4 0x56039D6E EQ PUSH2 0x2CB JUMPI DUP1 PUSH4 0x5676E41A EQ PUSH2 0x2F6 JUMPI DUP1 PUSH4 0x589596B7 EQ PUSH2 0x333 JUMPI DUP1 PUSH4 0x6491768F EQ PUSH2 0x372 JUMPI DUP1 PUSH4 0x81DC064B EQ PUSH2 0x389 JUMPI DUP1 PUSH4 0xA16C86F7 EQ PUSH2 0x3B2 JUMPI PUSH2 0x182 JUMP JUMPDEST DUP1 PUSH3 0xADB8D1 EQ PUSH2 0x18E JUMPI DUP1 PUSH4 0x3BD2DFE EQ PUSH2 0x1CB JUMPI DUP1 PUSH4 0x16FECBB2 EQ PUSH2 0x1FB JUMPI DUP1 PUSH4 0x2BC3D7AA EQ PUSH2 0x226 JUMPI DUP1 PUSH4 0x2F3BE790 EQ PUSH2 0x263 JUMPI DUP1 PUSH4 0x481C6A75 EQ PUSH2 0x2A0 JUMPI JUMPDEST PUSH2 0x18B CALLVALUE PUSH2 0x653 JUMP JUMPDEST POP STOP JUMPDEST CALLVALUE DUP1 ISZERO PUSH2 0x19A JUMPI PUSH1 0x0 DUP1 REVERT JUMPDEST POP PUSH2 0x1B5 PUSH1 0x4 DUP1 CALLDATASIZE SUB PUSH2 0x1B0 SWAP2 SWAP1 DUP2 ADD SWAP1 PUSH2 0x2395 JUMP JUMPDEST PUSH2 0x904 JUMP JUMPDEST PUSH1 0x40 MLOAD PUSH2 0x1C2 SWAP2 SWAP1 PUSH2 0x323B JUMP JUMPDEST PUSH1 0x40 MLOAD DUP1 SWAP2 SUB SWAP1 RETURN JUMPDEST PUSH2 0x1E5 PUSH1 0x4 DUP1 CALLDATASIZE SUB PUSH2 0x1E0 SWAP2 SWAP1 DUP2 ADD SWAP1 PUSH2 0x2330 JUMP JUMPDEST PUSH2 0xD33 JUMP JUMPDEST PUSH1 0x40 MLOAD PUSH2 0x1F2 SWAP2 SWAP1 PUSH2 0x323B JUMP JUMPDEST PUSH1 0x40 MLOAD DUP1 SWAP2 SUB SWAP1 RETURN JUMPDEST CALLVALUE DUP1 ISZERO PUSH2 0x207 JUMPI PUSH1 0x0 DUP1 REVERT JUMPDEST POP PUSH2 0x210 PUSH2 0x117B JUMP JUMPDEST PUSH1 0x40 MLOAD PUSH2 0x21D SWAP2 SWAP1 PUSH2 0x3636 JUMP JUMPDEST PUSH1 0x40 MLOAD DUP1 SWAP2 SUB SWAP1 RETURN JUMPDEST CALLVALUE DUP1 ISZERO PUSH2 0x232 JUMPI PUSH1 0x0 DUP1 REVERT JUMPDEST POP PUSH2 0x24D PUSH1 0x4 DUP1 CALLDATASIZE SUB PUSH2 0x248 SWAP2 SWAP1 DUP2 ADD SWAP1 PUSH2 0x22DE JUMP JUMPDEST PUSH2 0x1181 JUMP JUMPDEST PUSH1 0x40 MLOAD PUSH2 0x25A SWAP2 SWAP1 PUSH2 0x323B JUMP JUMPDEST PUSH1 0x40 MLOAD DUP1 SWAP2 SUB SWAP1 RETURN JUMPDEST CALLVALUE DUP1 ISZERO PUSH2 0x26F JUMPI PUSH1 0x0 DUP1 REVERT JUMPDEST POP PUSH2 0x28A PUSH1 0x4 DUP1 CALLDATASIZE SUB PUSH2 0x285 SWAP2 SWAP1 DUP2 ADD SWAP1 PUSH2 0x22DE JUMP JUMPDEST PUSH2 0x11CF JUMP JUMPDEST PUSH1 0x40 MLOAD PUSH2 0x297 SWAP2 SWAP1 PUSH2 0x323B JUMP JUMPDEST PUSH1 0x40 MLOAD DUP1 SWAP2 SUB SWAP1 RETURN JUMPDEST CALLVALUE DUP1 ISZERO PUSH2 0x2AC JUMPI PUSH1 0x0 DUP1 REVERT JUMPDEST POP PUSH2 0x2B5 PUSH2 0x121D JUMP JUMPDEST PUSH1 0x40 MLOAD PUSH2 0x2C2 SWAP2 SWAP1 PUSH2 0x3197 JUMP JUMPDEST PUSH1 0x40 MLOAD DUP1 SWAP2 SUB SWAP1 RETURN JUMPDEST CALLVALUE DUP1 ISZERO PUSH2 0x2D7 JUMPI PUSH1 0x0 DUP1 REVERT JUMPDEST POP PUSH2 0x2E0 PUSH2 0x1242 JUMP JUMPDEST PUSH1 0x40 MLOAD PUSH2 0x2ED SWAP2 SWAP1 PUSH2 0x323B JUMP JUMPDEST PUSH1 0x40 MLOAD DUP1 SWAP2 SUB SWAP1 RETURN JUMPDEST CALLVALUE DUP1 ISZERO PUSH2 0x302 JUMPI PUSH1 0x0 DUP1 REVERT JUMPDEST POP PUSH2 0x31D PUSH1 0x4 DUP1 CALLDATASIZE SUB PUSH2 0x318 SWAP2 SWAP1 DUP2 ADD SWAP1 PUSH2 0x22DE JUMP JUMPDEST PUSH2 0x1255 JUMP JUMPDEST PUSH1 0x40 MLOAD PUSH2 0x32A SWAP2 SWAP1 PUSH2 0x3636 JUMP JUMPDEST PUSH1 0x40 MLOAD DUP1 SWAP2 SUB SWAP1 RETURN JUMPDEST CALLVALUE DUP1 ISZERO PUSH2 0x33F JUMPI PUSH1 0x0 DUP1 REVERT JUMPDEST POP PUSH2 0x35A PUSH1 0x4 DUP1 CALLDATASIZE SUB PUSH2 0x355 SWAP2 SWAP1 DUP2 ADD SWAP1 PUSH2 0x22DE JUMP JUMPDEST PUSH2 0x1349 JUMP JUMPDEST PUSH1 0x40 MLOAD PUSH2 0x369 SWAP4 SWAP3 SWAP2 SWAP1 PUSH2 0x367A JUMP JUMPDEST PUSH1 0x40 MLOAD DUP1 SWAP2 SUB SWAP1 RETURN JUMPDEST CALLVALUE DUP1 ISZERO PUSH2 0x37E JUMPI PUSH1 0x0 DUP1 REVERT JUMPDEST POP PUSH2 0x387 PUSH2 0x1373 JUMP JUMPDEST STOP JUMPDEST CALLVALUE DUP1 ISZERO PUSH2 0x395 JUMPI PUSH1 0x0 DUP1 REVERT JUMPDEST POP PUSH2 0x3B0 PUSH1 0x4 DUP1 CALLDATASIZE SUB PUSH2 0x3AB SWAP2 SWAP1 DUP2 ADD SWAP1 PUSH2 0x2395 JUMP JUMPDEST PUSH2 0x14BB JUMP JUMPDEST STOP JUMPDEST CALLVALUE DUP1 ISZERO PUSH2 0x3BE JUMPI PUSH1 0x0 DUP1 REVERT JUMPDEST POP PUSH2 0x3D9 PUSH1 0x4 DUP1 CALLDATASIZE SUB PUSH2 0x3D4 SWAP2 SWAP1 DUP2 ADD SWAP1 PUSH2 0x22DE JUMP JUMPDEST PUSH2 0x16EC JUMP JUMPDEST PUSH1 0x40 MLOAD PUSH2 0x3E6 SWAP2 SWAP1 PUSH2 0x323B JUMP JUMPDEST PUSH1 0x40 MLOAD DUP1 SWAP2 SUB SWAP1 RETURN JUMPDEST CALLVALUE DUP1 ISZERO PUSH2 0x3FB JUMPI PUSH1 0x0 DUP1 REVERT JUMPDEST POP PUSH2 0x404 PUSH2 0x1B92 JUMP JUMPDEST PUSH1 0x40 MLOAD PUSH2 0x411 SWAP2 SWAP1 PUSH2 0x3636 JUMP JUMPDEST PUSH1 0x40 MLOAD DUP1 SWAP2 SUB SWAP1 RETURN JUMPDEST CALLVALUE DUP1 ISZERO PUSH2 0x426 JUMPI PUSH1 0x0 DUP1 REVERT JUMPDEST POP PUSH2 0x42F PUSH2 0x1B98 JUMP JUMPDEST PUSH1 0x40 MLOAD PUSH2 0x43C SWAP2 SWAP1 PUSH2 0x3636 JUMP JUMPDEST PUSH1 0x40 MLOAD DUP1 SWAP2 SUB SWAP1 RETURN JUMPDEST CALLVALUE DUP1 ISZERO PUSH2 0x451 JUMPI PUSH1 0x0 DUP1 REVERT JUMPDEST POP PUSH2 0x45A PUSH2 0x1BDE JUMP JUMPDEST PUSH1 0x40 MLOAD PUSH2 0x467 SWAP2 SWAP1 PUSH2 0x323B JUMP JUMPDEST PUSH1 0x40 MLOAD DUP1 SWAP2 SUB SWAP1 RETURN JUMPDEST CALLVALUE DUP1 ISZERO PUSH2 0x47C JUMPI PUSH1 0x0 DUP1 REVERT JUMPDEST POP PUSH2 0x485 PUSH2 0x1C1E JUMP JUMPDEST PUSH1 0x40 MLOAD PUSH2 0x492 SWAP2 SWAP1 PUSH2 0x3636 JUMP JUMPDEST PUSH1 0x40 MLOAD DUP1 SWAP2 SUB SWAP1 RETURN JUMPDEST CALLVALUE DUP1 ISZERO PUSH2 0x4A7 JUMPI PUSH1 0x0 DUP1 REVERT JUMPDEST POP PUSH2 0x4C2 PUSH1 0x4 DUP1 CALLDATASIZE SUB PUSH2 0x4BD SWAP2 SWAP1 DUP2 ADD SWAP1 PUSH2 0x22DE JUMP JUMPDEST PUSH2 0x1C24 JUMP JUMPDEST PUSH1 0x40 MLOAD PUSH2 0x4D0 SWAP3 SWAP2 SWAP1 PUSH2 0x3651 JUMP JUMPDEST PUSH1 0x40 MLOAD DUP1 SWAP2 SUB SWAP1 RETURN JUMPDEST CALLVALUE DUP1 ISZERO PUSH2 0x4E5 JUMPI PUSH1 0x0 DUP1 REVERT JUMPDEST POP PUSH2 0x500 PUSH1 0x4 DUP1 CALLDATASIZE SUB PUSH2 0x4FB SWAP2 SWAP1 DUP2 ADD SWAP1 PUSH2 0x236C JUMP JUMPDEST PUSH2 0x653 JUMP JUMPDEST PUSH1 0x40 MLOAD PUSH2 0x50D SWAP2 SWAP1 PUSH2 0x323B JUMP JUMPDEST PUSH1 0x40 MLOAD DUP1 SWAP2 SUB SWAP1 RETURN JUMPDEST CALLVALUE DUP1 ISZERO PUSH2 0x522 JUMPI PUSH1 0x0 DUP1 REVERT JUMPDEST POP PUSH2 0x53D PUSH1 0x4 DUP1 CALLDATASIZE SUB PUSH2 0x538 SWAP2 SWAP1 DUP2 ADD SWAP1 PUSH2 0x2395 JUMP JUMPDEST PUSH2 0x1C48 JUMP JUMPDEST STOP JUMPDEST CALLVALUE DUP1 ISZERO PUSH2 0x54B JUMPI PUSH1 0x0 DUP1 REVERT JUMPDEST POP PUSH2 0x554 PUSH2 0x1E0A JUMP JUMPDEST PUSH1 0x40 MLOAD PUSH2 0x561 SWAP2 SWAP1 PUSH2 0x3636 JUMP JUMPDEST PUSH1 0x40 MLOAD DUP1 SWAP2 SUB SWAP1 RETURN JUMPDEST CALLVALUE DUP1 ISZERO PUSH2 0x576 JUMPI PUSH1 0x0 DUP1 REVERT JUMPDEST POP PUSH2 0x57F PUSH2 0x1E10 JUMP JUMPDEST PUSH1 0x40 MLOAD PUSH2 0x58C SWAP2 SWAP1 PUSH2 0x3197 JUMP JUMPDEST PUSH1 0x40 MLOAD DUP1 SWAP2 SUB SWAP1 RETURN JUMPDEST CALLVALUE DUP1 ISZERO PUSH2 0x5A1 JUMPI PUSH1 0x0 DUP1 REVERT JUMPDEST POP PUSH2 0x5BC PUSH1 0x4 DUP1 CALLDATASIZE SUB PUSH2 0x5B7 SWAP2 SWAP1 DUP2 ADD SWAP1 PUSH2 0x22DE JUMP JUMPDEST PUSH2 0x1E36 JUMP JUMPDEST PUSH1 0x40 MLOAD PUSH2 0x5C9 SWAP2 SWAP1 PUSH2 0x323B JUMP JUMPDEST PUSH1 0x40 MLOAD DUP1 SWAP2 SUB SWAP1 RETURN JUMPDEST CALLVALUE DUP1 ISZERO PUSH2 0x5DE JUMPI PUSH1 0x0 DUP1 REVERT JUMPDEST POP PUSH2 0x5E7 PUSH2 0x1E8F JUMP JUMPDEST PUSH1 0x40 MLOAD PUSH2 0x5F4 SWAP2 SWAP1 PUSH2 0x3636 JUMP JUMPDEST PUSH1 0x40 MLOAD DUP1 SWAP2 SUB SWAP1 RETURN JUMPDEST CALLVALUE DUP1 ISZERO PUSH2 0x609 JUMPI PUSH1 0x0 DUP1 REVERT JUMPDEST POP PUSH2 0x612 PUSH2 0x1E95 JUMP JUMPDEST PUSH1 0x40 MLOAD PUSH2 0x61F SWAP2 SWAP1 PUSH2 0x3636 JUMP JUMPDEST PUSH1 0x40 MLOAD DUP1 SWAP2 SUB SWAP1 RETURN JUMPDEST CALLVALUE DUP1 ISZERO PUSH2 0x634 JUMPI PUSH1 0x0 DUP1 REVERT JUMPDEST POP PUSH2 0x63D PUSH2 0x1E9B JUMP JUMPDEST PUSH1 0x40 MLOAD PUSH2 0x64A SWAP2 SWAP1 PUSH2 0x3636 JUMP JUMPDEST PUSH1 0x40 MLOAD DUP1 SWAP2 SUB SWAP1 RETURN JUMPDEST PUSH1 0x0 PUSH1 0x1 PUSH1 0xC PUSH1 0x0 DUP3 DUP3 SLOAD ADD SWAP3 POP POP DUP2 SWAP1 SSTORE POP PUSH1 0x0 PUSH1 0xC SLOAD SWAP1 POP PUSH2 0x675 PUSH2 0x1BDE JUMP JUMPDEST PUSH2 0x6B4 JUMPI PUSH1 0x40 MLOAD PUSH32 0x8C379A000000000000000000000000000000000000000000000000000000000 DUP2 MSTORE PUSH1 0x4 ADD PUSH2 0x6AB SWAP1 PUSH2 0x3556 JUMP JUMPDEST PUSH1 0x40 MLOAD DUP1 SWAP2 SUB SWAP1 REVERT JUMPDEST PUSH1 0x0 PUSH2 0x6CB DUP5 PUSH1 0x3 SLOAD PUSH2 0x1EA1 SWAP1 SWAP2 SWAP1 PUSH4 0xFFFFFFFF AND JUMP JUMPDEST SWAP1 POP PUSH1 0x0 PUSH1 0x2 SLOAD DUP3 GT ISZERO PUSH2 0x6F6 JUMPI PUSH2 0x6EE PUSH1 0x2 SLOAD DUP4 PUSH2 0x1EF6 SWAP1 SWAP2 SWAP1 PUSH4 0xFFFFFFFF AND JUMP JUMPDEST SWAP1 POP PUSH1 0x2 SLOAD SWAP2 POP JUMPDEST PUSH2 0x75D DUP2 PUSH2 0x74F DUP8 PUSH1 0xB PUSH1 0x0 CALLER PUSH20 0xFFFFFFFFFFFFFFFFFFFFFFFFFFFFFFFFFFFFFFFF AND PUSH20 0xFFFFFFFFFFFFFFFFFFFFFFFFFFFFFFFFFFFFFFFF AND DUP2 MSTORE PUSH1 0x20 ADD SWAP1 DUP2 MSTORE PUSH1 0x20 ADD PUSH1 0x0 KECCAK256 PUSH1 0x0 ADD SLOAD PUSH2 0x1EA1 SWAP1 SWAP2 SWAP1 PUSH4 0xFFFFFFFF AND JUMP JUMPDEST PUSH2 0x1EF6 SWAP1 SWAP2 SWAP1 PUSH4 0xFFFFFFFF AND JUMP JUMPDEST PUSH1 0xB PUSH1 0x0 CALLER PUSH20 0xFFFFFFFFFFFFFFFFFFFFFFFFFFFFFFFFFFFFFFFF AND PUSH20 0xFFFFFFFFFFFFFFFFFFFFFFFFFFFFFFFFFFFFFFFF AND DUP2 MSTORE PUSH1 0x20 ADD SWAP1 DUP2 MSTORE PUSH1 0x20 ADD PUSH1 0x0 KECCAK256 PUSH1 0x0 ADD DUP2 SWAP1 SSTORE POP DUP2 PUSH1 0x3 DUP2 SWAP1 SSTORE POP PUSH1 0x0 PUSH20 0xFFFFFFFFFFFFFFFFFFFFFFFFFFFFFFFFFFFFFFFF AND PUSH1 0x1 PUSH1 0x0 SWAP1 SLOAD SWAP1 PUSH2 0x100 EXP SWAP1 DIV PUSH20 0xFFFFFFFFFFFFFFFFFFFFFFFFFFFFFFFFFFFFFFFF AND PUSH20 0xFFFFFFFFFFFFFFFFFFFFFFFFFFFFFFFFFFFFFFFF AND EQ ISZERO PUSH2 0x810 JUMPI PUSH2 0x80B DUP6 DUP3 PUSH2 0x1F4C JUMP JUMPDEST PUSH2 0x81B JUMP JUMPDEST PUSH2 0x81A DUP6 DUP3 PUSH2 0x2053 JUMP JUMPDEST JUMPDEST CALLER PUSH20 0xFFFFFFFFFFFFFFFFFFFFFFFFFFFFFFFFFFFFFFFF AND PUSH32 0x9F1A5E1A5D3381F9AF1A62F8D61E4AE71444E28AF488786CB10C8B2B457632AE PUSH2 0x866 DUP4 DUP9 PUSH2 0x1EF6 SWAP1 SWAP2 SWAP1 PUSH4 0xFFFFFFFF AND JUMP JUMPDEST PUSH1 0x40 MLOAD PUSH2 0x873 SWAP2 SWAP1 PUSH2 0x3636 JUMP JUMPDEST PUSH1 0x40 MLOAD DUP1 SWAP2 SUB SWAP1 LOG2 PUSH1 0x2 SLOAD PUSH1 0x3 SLOAD EQ ISZERO PUSH2 0x8B4 JUMPI PUSH32 0x512829C8DAB135587881316E27C9E1CD524033B3DAF7AE881D2C801943EA9381 PUSH1 0x40 MLOAD PUSH1 0x40 MLOAD DUP1 SWAP2 SUB SWAP1 LOG1 JUMPDEST PUSH1 0x1 SWAP4 POP POP POP PUSH1 0xC SLOAD DUP2 EQ PUSH2 0x8FE JUMPI PUSH1 0x40 MLOAD PUSH32 0x8C379A000000000000000000000000000000000000000000000000000000000 DUP2 MSTORE PUSH1 0x4 ADD PUSH2 0x8F5 SWAP1 PUSH2 0x35B6 JUMP JUMPDEST PUSH1 0x40 MLOAD DUP1 SWAP2 SUB SWAP1 REVERT JUMPDEST POP SWAP2 SWAP1 POP JUMP JUMPDEST PUSH1 0x0 PUSH1 0x1 PUSH1 0xC PUSH1 0x0 DUP3 DUP3 SLOAD ADD SWAP3 POP POP DUP2 SWAP1 SSTORE POP PUSH1 0x0 PUSH1 0xC SLOAD SWAP1 POP DUP4 PUSH1 0xA PUSH1 0x0 DUP6 PUSH20 0xFFFFFFFFFFFFFFFFFFFFFFFFFFFFFFFFFFFFFFFF AND PUSH20 0xFFFFFFFFFFFFFFFFFFFFFFFFFFFFFFFFFFFFFFFF AND DUP2 MSTORE PUSH1 0x20 ADD SWAP1 DUP2 MSTORE PUSH1 0x20 ADD PUSH1 0x0 KECCAK256 PUSH1 0x2 ADD SLOAD EQ PUSH2 0x9A2 JUMPI PUSH1 0x40 MLOAD PUSH32 0x8C379A000000000000000000000000000000000000000000000000000000000 DUP2 MSTORE PUSH1 0x4 ADD PUSH2 0x999 SWAP1 PUSH2 0x3316 JUMP JUMPDEST PUSH1 0x40 MLOAD DUP1 SWAP2 SUB SWAP1 REVERT JUMPDEST PUSH2 0x9B7 DUP5 PUSH1 0x4 SLOAD PUSH2 0x1EA1 SWAP1 SWAP2 SWAP1 PUSH4 0xFFFFFFFF AND JUMP JUMPDEST PUSH1 0x4 DUP2 SWAP1 SSTORE POP PUSH2 0x9D2 DUP5 PUSH1 0x6 SLOAD PUSH2 0x1EF6 SWAP1 SWAP2 SWAP1 PUSH4 0xFFFFFFFF AND JUMP JUMPDEST PUSH1 0x6 DUP2 SWAP1 SSTORE POP PUSH1 0x0 PUSH1 0xA PUSH1 0x0 DUP6 PUSH20 0xFFFFFFFFFFFFFFFFFFFFFFFFFFFFFFFFFFFFFFFF AND PUSH20 0xFFFFFFFFFFFFFFFFFFFFFFFFFFFFFFFFFFFFFFFF AND DUP2 MSTORE PUSH1 0x20 ADD SWAP1 DUP2 MSTORE PUSH1 0x20 ADD PUSH1 0x0 KECCAK256 PUSH1 0x2 ADD DUP2 SWAP1 SSTORE POP PUSH2 0xA75 DUP5 PUSH1 0xA PUSH1 0x0 DUP7 PUSH20 0xFFFFFFFFFFFFFFFFFFFFFFFFFFFFFFFFFFFFFFFF AND PUSH20 0xFFFFFFFFFFFFFFFFFFFFFFFFFFFFFFFFFFFFFFFF AND DUP2 MSTORE PUSH1 0x20 ADD SWAP1 DUP2 MSTORE PUSH1 0x20 ADD PUSH1 0x0 KECCAK256 PUSH1 0x1 ADD SLOAD PUSH2 0x1EA1 SWAP1 SWAP2 SWAP1 PUSH4 0xFFFFFFFF AND JUMP JUMPDEST PUSH1 0xA PUSH1 0x0 DUP6 PUSH20 0xFFFFFFFFFFFFFFFFFFFFFFFFFFFFFFFFFFFFFFFF AND PUSH20 0xFFFFFFFFFFFFFFFFFFFFFFFFFFFFFFFFFFFFFFFF AND DUP2 MSTORE PUSH1 0x20 ADD SWAP1 DUP2 MSTORE PUSH1 0x20 ADD PUSH1 0x0 KECCAK256 PUSH1 0x1 ADD DUP2 SWAP1 SSTORE POP PUSH1 0x0 PUSH20 0xFFFFFFFFFFFFFFFFFFFFFFFFFFFFFFFFFFFFFFFF AND PUSH1 0x1 PUSH1 0x0 SWAP1 SLOAD SWAP1 PUSH2 0x100 EXP SWAP1 DIV PUSH20 0xFFFFFFFFFFFFFFFFFFFFFFFFFFFFFFFFFFFFFFFF AND PUSH20 0xFFFFFFFFFFFFFFFFFFFFFFFFFFFFFFFFFFFFFFFF AND EQ ISZERO PUSH2 0xB8B JUMPI CALLER PUSH20 0xFFFFFFFFFFFFFFFFFFFFFFFFFFFFFFFFFFFFFFFF AND PUSH2 0x8FC DUP6 SWAP1 DUP2 ISZERO MUL SWAP1 PUSH1 0x40 MLOAD PUSH1 0x0 PUSH1 0x40 MLOAD DUP1 DUP4 SUB DUP2 DUP6 DUP9 DUP9 CALL SWAP4 POP POP POP POP PUSH2 0xB86 JUMPI PUSH1 0x40 MLOAD PUSH32 0x8C379A000000000000000000000000000000000000000000000000000000000 DUP2 MSTORE PUSH1 0x4 ADD PUSH2 0xB7D SWAP1 PUSH2 0x33B6 JUMP JUMPDEST PUSH1 0x40 MLOAD DUP1 SWAP2 SUB SWAP1 REVERT JUMPDEST PUSH2 0xC96 JUMP JUMPDEST PUSH1 0x1 PUSH1 0x0 SWAP1 SLOAD SWAP1 PUSH2 0x100 EXP SWAP1 DIV PUSH20 0xFFFFFFFFFFFFFFFFFFFFFFFFFFFFFFFFFFFFFFFF AND PUSH20 0xFFFFFFFFFFFFFFFFFFFFFFFFFFFFFFFFFFFFFFFF AND PUSH4 0xA9059CBB DUP5 DUP7 PUSH1 0x40 MLOAD DUP4 PUSH4 0xFFFFFFFF AND PUSH29 0x100000000000000000000000000000000000000000000000000000000 MUL DUP2 MSTORE PUSH1 0x4 ADD PUSH2 0xC04 SWAP3 SWAP2 SWAP1 PUSH2 0x3212 JUMP JUMPDEST PUSH1 0x20 PUSH1 0x40 MLOAD DUP1 DUP4 SUB DUP2 PUSH1 0x0 DUP8 DUP1 EXTCODESIZE ISZERO DUP1 ISZERO PUSH2 0xC1E JUMPI PUSH1 0x0 DUP1 REVERT JUMPDEST POP GAS CALL ISZERO DUP1 ISZERO PUSH2 0xC32 JUMPI RETURNDATASIZE PUSH1 0x0 DUP1 RETURNDATACOPY RETURNDATASIZE PUSH1 0x0 REVERT JUMPDEST POP POP POP POP PUSH1 0x40 MLOAD RETURNDATASIZE PUSH1 0x1F NOT PUSH1 0x1F DUP3 ADD AND DUP3 ADD DUP1 PUSH1 0x40 MSTORE POP PUSH2 0xC56 SWAP2 SWAP1 DUP2 ADD SWAP1 PUSH2 0x2307 JUMP JUMPDEST PUSH2 0xC95 JUMPI PUSH1 0x40 MLOAD PUSH32 0x8C379A000000000000000000000000000000000000000000000000000000000 DUP2 MSTORE PUSH1 0x4 ADD PUSH2 0xC8C SWAP1 PUSH2 0x3416 JUMP JUMPDEST PUSH1 0x40 MLOAD DUP1 SWAP2 SUB SWAP1 REVERT JUMPDEST JUMPDEST DUP3 PUSH20 0xFFFFFFFFFFFFFFFFFFFFFFFFFFFFFFFFFFFFFFFF AND PUSH32 0x27A391D95D67E3626574FB5FBE3532BB7366E9254957B1F0E840953C248B2AA8 DUP6 PUSH1 0x40 MLOAD PUSH2 0xCDC SWAP2 SWAP1 PUSH2 0x3636 JUMP JUMPDEST PUSH1 0x40 MLOAD DUP1 SWAP2 SUB SWAP1 LOG2 PUSH1 0x1 SWAP2 POP PUSH1 0xC SLOAD DUP2 EQ PUSH2 0xD2C JUMPI PUSH1 0x40 MLOAD PUSH32 0x8C379A000000000000000000000000000000000000000000000000000000000 DUP2 MSTORE PUSH1 0x4 ADD PUSH2 0xD23 SWAP1 PUSH2 0x35B6 JUMP JUMPDEST PUSH1 0x40 MLOAD DUP1 SWAP2 SUB SWAP1 REVERT JUMPDEST POP SWAP3 SWAP2 POP POP JUMP JUMPDEST PUSH1 0x0 PUSH1 0x2 SLOAD PUSH1 0x3 SLOAD LT PUSH2 0xD7B JUMPI PUSH1 0x40 MLOAD PUSH32 0x8C379A000000000000000000000000000000000000000000000000000000000 DUP2 MSTORE PUSH1 0x4 ADD PUSH2 0xD72 SWAP1 PUSH2 0x3456 JUMP JUMPDEST PUSH1 0x40 MLOAD DUP1 SWAP2 SUB SWAP1 REVERT JUMPDEST PUSH1 0x1 PUSH1 0x0 SWAP1 SLOAD SWAP1 PUSH2 0x100 EXP SWAP1 DIV PUSH20 0xFFFFFFFFFFFFFFFFFFFFFFFFFFFFFFFFFFFFFFFF AND PUSH20 0xFFFFFFFFFFFFFFFFFFFFFFFFFFFFFFFFFFFFFFFF AND CALLER PUSH20 0xFFFFFFFFFFFFFFFFFFFFFFFFFFFFFFFFFFFFFFFF AND DUP5 ISZERO ISZERO PUSH32 0xA1D829418391D83A1FA2178A31E7EA2A8941658722E6096AA43C3D11C8C656BD DUP6 PUSH1 0x40 MLOAD PUSH2 0xDFD SWAP2 SWAP1 PUSH2 0x3636 JUMP JUMPDEST PUSH1 0x40 MLOAD DUP1 SWAP2 SUB SWAP1 LOG4 PUSH1 0x0 PUSH20 0xFFFFFFFFFFFFFFFFFFFFFFFFFFFFFFFFFFFFFFFF AND PUSH1 0x1 PUSH1 0x0 SWAP1 SLOAD SWAP1 PUSH2 0x100 EXP SWAP1 DIV PUSH20 0xFFFFFFFFFFFFFFFFFFFFFFFFFFFFFFFFFFFFFFFF AND PUSH20 0xFFFFFFFFFFFFFFFFFFFFFFFFFFFFFFFFFFFFFFFF AND EQ ISZERO PUSH2 0xF17 JUMPI DUP2 CALLVALUE EQ PUSH2 0xE9E JUMPI PUSH1 0x40 MLOAD PUSH32 0x8C379A000000000000000000000000000000000000000000000000000000000 DUP2 MSTORE PUSH1 0x4 ADD PUSH2 0xE95 SWAP1 PUSH2 0x3536 JUMP JUMPDEST PUSH1 0x40 MLOAD DUP1 SWAP2 SUB SWAP1 REVERT JUMPDEST CALLER PUSH20 0xFFFFFFFFFFFFFFFFFFFFFFFFFFFFFFFFFFFFFFFF AND PUSH2 0x8FC CALLVALUE SWAP1 DUP2 ISZERO MUL SWAP1 PUSH1 0x40 MLOAD PUSH1 0x0 PUSH1 0x40 MLOAD DUP1 DUP4 SUB DUP2 DUP6 DUP9 DUP9 CALL SWAP4 POP POP POP POP PUSH2 0xF12 JUMPI PUSH1 0x40 MLOAD PUSH32 0x8C379A000000000000000000000000000000000000000000000000000000000 DUP2 MSTORE PUSH1 0x4 ADD PUSH2 0xF09 SWAP1 PUSH2 0x35D6 JUMP JUMPDEST PUSH1 0x40 MLOAD DUP1 SWAP2 SUB SWAP1 REVERT JUMPDEST PUSH2 0x1171 JUMP JUMPDEST PUSH1 0x0 CALLVALUE EQ PUSH2 0xF5A JUMPI PUSH1 0x40 MLOAD PUSH32 0x8C379A000000000000000000000000000000000000000000000000000000000 DUP2 MSTORE PUSH1 0x4 ADD PUSH2 0xF51 SWAP1 PUSH2 0x3336 JUMP JUMPDEST PUSH1 0x40 MLOAD DUP1 SWAP2 SUB SWAP1 REVERT JUMPDEST PUSH1 0x1 PUSH1 0x0 SWAP1 SLOAD SWAP1 PUSH2 0x100 EXP SWAP1 DIV PUSH20 0xFFFFFFFFFFFFFFFFFFFFFFFFFFFFFFFFFFFFFFFF AND PUSH20 0xFFFFFFFFFFFFFFFFFFFFFFFFFFFFFFFFFFFFFFFF AND PUSH4 0x23B872DD CALLER ADDRESS DUP6 PUSH1 0x40 MLOAD DUP5 PUSH4 0xFFFFFFFF AND PUSH29 0x100000000000000000000000000000000000000000000000000000000 MUL DUP2 MSTORE PUSH1 0x4 ADD PUSH2 0xFD5 SWAP4 SWAP3 SWAP2 SWAP1 PUSH2 0x31B2 JUMP JUMPDEST PUSH1 0x20 PUSH1 0x40 MLOAD DUP1 DUP4 SUB DUP2 PUSH1 0x0 DUP8 DUP1 EXTCODESIZE ISZERO DUP1 ISZERO PUSH2 0xFEF JUMPI PUSH1 0x0 DUP1 REVERT JUMPDEST POP GAS CALL ISZERO DUP1 ISZERO PUSH2 0x1003 JUMPI RETURNDATASIZE PUSH1 0x0 DUP1 RETURNDATACOPY RETURNDATASIZE PUSH1 0x0 REVERT JUMPDEST POP POP POP POP PUSH1 0x40 MLOAD RETURNDATASIZE PUSH1 0x1F NOT PUSH1 0x1F DUP3 ADD AND DUP3 ADD DUP1 PUSH1 0x40 MSTORE POP PUSH2 0x1027 SWAP2 SWAP1 DUP2 ADD SWAP1 PUSH2 0x2307 JUMP JUMPDEST PUSH2 0x1066 JUMPI PUSH1 0x40 MLOAD PUSH32 0x8C379A000000000000000000000000000000000000000000000000000000000 DUP2 MSTORE PUSH1 0x4 ADD PUSH2 0x105D SWAP1 PUSH2 0x33F6 JUMP JUMPDEST PUSH1 0x40 MLOAD DUP1 SWAP2 SUB SWAP1 REVERT JUMPDEST PUSH1 0x1 PUSH1 0x0 SWAP1 SLOAD SWAP1 PUSH2 0x100 EXP SWAP1 DIV PUSH20 0xFFFFFFFFFFFFFFFFFFFFFFFFFFFFFFFFFFFFFFFF AND PUSH20 0xFFFFFFFFFFFFFFFFFFFFFFFFFFFFFFFFFFFFFFFF AND PUSH4 0xA9059CBB CALLER DUP5 PUSH1 0x40 MLOAD DUP4 PUSH4 0xFFFFFFFF AND PUSH29 0x100000000000000000000000000000000000000000000000000000000 MUL DUP2 MSTORE PUSH1 0x4 ADD PUSH2 0x10DF SWAP3 SWAP2 SWAP1 PUSH2 0x31E9 JUMP JUMPDEST PUSH1 0x20 PUSH1 0x40 MLOAD DUP1 DUP4 SUB DUP2 PUSH1 0x0 DUP8 DUP1 EXTCODESIZE ISZERO DUP1 ISZERO PUSH2 0x10F9 JUMPI PUSH1 0x0 DUP1 REVERT JUMPDEST POP GAS CALL ISZERO DUP1 ISZERO PUSH2 0x110D JUMPI RETURNDATASIZE PUSH1 0x0 DUP1 RETURNDATACOPY RETURNDATASIZE PUSH1 0x0 REVERT JUMPDEST POP POP POP POP PUSH1 0x40 MLOAD RETURNDATASIZE PUSH1 0x1F NOT PUSH1 0x1F DUP3 ADD AND DUP3 ADD DUP1 PUSH1 0x40 MSTORE POP PUSH2 0x1131 SWAP2 SWAP1 DUP2 ADD SWAP1 PUSH2 0x2307 JUMP JUMPDEST PUSH2 0x1170 JUMPI PUSH1 0x40 MLOAD PUSH32 0x8C379A000000000000000000000000000000000000000000000000000000000 DUP2 MSTORE PUSH1 0x4 ADD PUSH2 0x1167 SWAP1 PUSH2 0x3616 JUMP JUMPDEST PUSH1 0x40 MLOAD DUP1 SWAP2 SUB SWAP1 REVERT JUMPDEST JUMPDEST PUSH1 0x1 SWAP1 POP SWAP3 SWAP2 POP POP JUMP JUMPDEST PUSH1 0x7 SLOAD DUP2 JUMP JUMPDEST PUSH1 0x0 DUP1 PUSH1 0xB PUSH1 0x0 DUP5 PUSH20 0xFFFFFFFFFFFFFFFFFFFFFFFFFFFFFFFFFFFFFFFF AND PUSH20 0xFFFFFFFFFFFFFFFFFFFFFFFFFFFFFFFFFFFFFFFF AND DUP2 MSTORE PUSH1 0x20 ADD SWAP1 DUP2 MSTORE PUSH1 0x20 ADD PUSH1 0x0 KECCAK256 PUSH1 0x0 ADD SLOAD GT SWAP1 POP SWAP2 SWAP1 POP JUMP JUMPDEST PUSH1 0x0 DUP1 PUSH1 0xA PUSH1 0x0 DUP5 PUSH20 0xFFFFFFFFFFFFFFFFFFFFFFFFFFFFFFFFFFFFFFFF AND PUSH20 0xFFFFFFFFFFFFFFFFFFFFFFFFFFFFFFFFFFFFFFFF AND DUP2 MSTORE PUSH1 0x20 ADD SWAP1 DUP2 MSTORE PUSH1 0x20 ADD PUSH1 0x0 KECCAK256 PUSH1 0x0 ADD SLOAD GT SWAP1 POP SWAP2 SWAP1 POP JUMP JUMPDEST PUSH1 0x0 DUP1 SWAP1 SLOAD SWAP1 PUSH2 0x100 EXP SWAP1 DIV PUSH20 0xFFFFFFFFFFFFFFFFFFFFFFFFFFFFFFFFFFFFFFFF AND DUP2 JUMP JUMPDEST PUSH1 0x9 PUSH1 0x0 SWAP1 SLOAD SWAP1 PUSH2 0x100 EXP SWAP1 DIV PUSH1 0xFF AND DUP2 JUMP JUMPDEST PUSH1 0x0 PUSH2 0x1342 PUSH1 0xA PUSH1 0x0 DUP5 PUSH20 0xFFFFFFFFFFFFFFFFFFFFFFFFFFFFFFFFFFFFFFFF AND PUSH20 0xFFFFFFFFFFFFFFFFFFFFFFFFFFFFFFFFFFFFFFFF AND DUP2 MSTORE PUSH1 0x20 ADD SWAP1 DUP2 MSTORE PUSH1 0x20 ADD PUSH1 0x0 KECCAK256 PUSH1 0x2 ADD SLOAD PUSH2 0x1334 PUSH1 0xA PUSH1 0x0 DUP7 PUSH20 0xFFFFFFFFFFFFFFFFFFFFFFFFFFFFFFFFFFFFFFFF AND PUSH20 0xFFFFFFFFFFFFFFFFFFFFFFFFFFFFFFFFFFFFFFFF AND DUP2 MSTORE PUSH1 0x20 ADD SWAP1 DUP2 MSTORE PUSH1 0x20 ADD PUSH1 0x0 KECCAK256 PUSH1 0x1 ADD SLOAD PUSH1 0xA PUSH1 0x0 DUP8 PUSH20 0xFFFFFFFFFFFFFFFFFFFFFFFFFFFFFFFFFFFFFFFF AND PUSH20 0xFFFFFFFFFFFFFFFFFFFFFFFFFFFFFFFFFFFFFFFF AND DUP2 MSTORE PUSH1 0x20 ADD SWAP1 DUP2 MSTORE PUSH1 0x20 ADD PUSH1 0x0 KECCAK256 PUSH1 0x0 ADD SLOAD PUSH2 0x1EF6 SWAP1 SWAP2 SWAP1 PUSH4 0xFFFFFFFF AND JUMP JUMPDEST PUSH2 0x1EF6 SWAP1 SWAP2 SWAP1 PUSH4 0xFFFFFFFF AND JUMP JUMPDEST SWAP1 POP SWAP2 SWAP1 POP JUMP JUMPDEST PUSH1 0xA PUSH1 0x20 MSTORE DUP1 PUSH1 0x0 MSTORE PUSH1 0x40 PUSH1 0x0 KECCAK256 PUSH1 0x0 SWAP2 POP SWAP1 POP DUP1 PUSH1 0x0 ADD SLOAD SWAP1 DUP1 PUSH1 0x1 ADD SLOAD SWAP1 DUP1 PUSH1 0x2 ADD SLOAD SWAP1 POP DUP4 JUMP JUMPDEST PUSH1 0x9 PUSH1 0x0 SWAP1 SLOAD SWAP1 PUSH2 0x100 EXP SWAP1 DIV PUSH1 0xFF AND ISZERO PUSH2 0x13C3 JUMPI PUSH1 0x40 MLOAD PUSH32 0x8C379A000000000000000000000000000000000000000000000000000000000 DUP2 MSTORE PUSH1 0x4 ADD PUSH2 0x13BA SWAP1 PUSH2 0x3396 JUMP JUMPDEST PUSH1 0x40 MLOAD DUP1 SWAP2 SUB SWAP1 REVERT JUMPDEST PUSH2 0x13CC CALLER PUSH2 0x1E36 JUMP JUMPDEST PUSH2 0x1450 JUMPI PUSH1 0x0 PUSH1 0x7 SLOAD EQ ISZERO DUP1 ISZERO PUSH2 0x13E5 JUMPI POP TIMESTAMP PUSH1 0x7 SLOAD GT ISZERO JUMPDEST DUP1 ISZERO PUSH2 0x13F4 JUMPI POP PUSH1 0x2 SLOAD PUSH1 0x3 SLOAD LT JUMPDEST DUP1 PUSH2 0x1410 JUMPI POP PUSH1 0x0 PUSH1 0x8 SLOAD EQ ISZERO DUP1 ISZERO PUSH2 0x140F JUMPI POP TIMESTAMP PUSH1 0x8 SLOAD GT ISZERO JUMPDEST JUMPDEST PUSH2 0x144F JUMPI PUSH1 0x40 MLOAD PUSH32 0x8C379A000000000000000000000000000000000000000000000000000000000 DUP2 MSTORE PUSH1 0x4 ADD PUSH2 0x1446 SWAP1 PUSH2 0x3356 JUMP JUMPDEST PUSH1 0x40 MLOAD DUP1 SWAP2 SUB SWAP1 REVERT JUMPDEST JUMPDEST PUSH2 0x146C PUSH2 0x145B PUSH2 0x1B98 JUMP JUMPDEST PUSH1 0x5 SLOAD PUSH2 0x1EA1 SWAP1 SWAP2 SWAP1 PUSH4 0xFFFFFFFF AND JUMP JUMPDEST PUSH1 0x5 DUP2 SWAP1 SSTORE POP PUSH1 0x1 PUSH1 0x9 PUSH1 0x0 PUSH2 0x100 EXP DUP2 SLOAD DUP2 PUSH1 0xFF MUL NOT AND SWAP1 DUP4 ISZERO ISZERO MUL OR SWAP1 SSTORE POP PUSH32 0xE6E9DACF028BDCFDF84EF7BAE6711F8D6B15D47D98C1F9772447C1EA4BC0DD6 PUSH1 0x40 MLOAD PUSH1 0x40 MLOAD DUP1 SWAP2 SUB SWAP1 LOG1 JUMP JUMPDEST PUSH2 0x14C4 CALLER PUSH2 0x1E36 JUMP JUMPDEST PUSH2 0x1503 JUMPI PUSH1 0x40 MLOAD PUSH32 0x8C379A000000000000000000000000000000000000000000000000000000000 DUP2 MSTORE PUSH1 0x4 ADD PUSH2 0x14FA SWAP1 PUSH2 0x3576 JUMP JUMPDEST PUSH1 0x40 MLOAD DUP1 SWAP2 SUB SWAP1 REVERT JUMPDEST PUSH1 0x3 SLOAD PUSH1 0x2 SLOAD EQ PUSH2 0x1549 JUMPI PUSH1 0x40 MLOAD PUSH32 0x8C379A000000000000000000000000000000000000000000000000000000000 DUP2 MSTORE PUSH1 0x4 ADD PUSH2 0x1540 SWAP1 PUSH2 0x3436 JUMP JUMPDEST PUSH1 0x40 MLOAD DUP1 SWAP2 SUB SWAP1 REVERT JUMPDEST PUSH1 0x9 PUSH1 0x0 SWAP1 SLOAD SWAP1 PUSH2 0x100 EXP SWAP1 DIV PUSH1 0xFF AND ISZERO PUSH2 0x1599 JUMPI PUSH1 0x40 MLOAD PUSH32 0x8C379A000000000000000000000000000000000000000000000000000000000 DUP2 MSTORE PUSH1 0x4 ADD PUSH2 0x1590 SWAP1 PUSH2 0x3256 JUMP JUMPDEST PUSH1 0x40 MLOAD DUP1 SWAP2 SUB SWAP1 REVERT JUMPDEST DUP2 PUSH2 0x15A3 DUP3 PUSH2 0x1255 JUMP JUMPDEST LT ISZERO PUSH2 0x15E4 JUMPI PUSH1 0x40 MLOAD PUSH32 0x8C379A000000000000000000000000000000000000000000000000000000000 DUP2 MSTORE PUSH1 0x4 ADD PUSH2 0x15DB SWAP1 PUSH2 0x3276 JUMP JUMPDEST PUSH1 0x40 MLOAD DUP1 SWAP2 SUB SWAP1 REVERT JUMPDEST PUSH2 0x1639 DUP3 PUSH1 0xA PUSH1 0x0 DUP5 PUSH20 0xFFFFFFFFFFFFFFFFFFFFFFFFFFFFFFFFFFFFFFFF AND PUSH20 0xFFFFFFFFFFFFFFFFFFFFFFFFFFFFFFFFFFFFFFFF AND DUP2 MSTORE PUSH1 0x20 ADD SWAP1 DUP2 MSTORE PUSH1 0x20 ADD PUSH1 0x0 KECCAK256 PUSH1 0x2 ADD SLOAD PUSH2 0x1EA1 SWAP1 SWAP2 SWAP1 PUSH4 0xFFFFFFFF AND JUMP JUMPDEST PUSH1 0xA PUSH1 0x0 DUP4 PUSH20 0xFFFFFFFFFFFFFFFFFFFFFFFFFFFFFFFFFFFFFFFF AND PUSH20 0xFFFFFFFFFFFFFFFFFFFFFFFFFFFFFFFFFFFFFFFF AND DUP2 MSTORE PUSH1 0x20 ADD SWAP1 DUP2 MSTORE PUSH1 0x20 ADD PUSH1 0x0 KECCAK256 PUSH1 0x2 ADD DUP2 SWAP1 SSTORE POP PUSH2 0x1694 DUP3 PUSH1 0x6 SLOAD PUSH2 0x1EA1 SWAP1 SWAP2 SWAP1 PUSH4 0xFFFFFFFF AND JUMP JUMPDEST PUSH1 0x6 DUP2 SWAP1 SSTORE POP DUP1 PUSH20 0xFFFFFFFFFFFFFFFFFFFFFFFFFFFFFFFFFFFFFFFF AND PUSH32 0xC50ECC171765F66228B4DB8BF340AA2E9678006DC898FCFC34075AEC9B5570E4 DUP4 PUSH1 0x40 MLOAD PUSH2 0x16E0 SWAP2 SWAP1 PUSH2 0x3636 JUMP JUMPDEST PUSH1 0x40 MLOAD DUP1 SWAP2 SUB SWAP1 LOG2 POP POP JUMP JUMPDEST PUSH1 0x0 PUSH1 0x1 PUSH1 0xC PUSH1 0x0 DUP3 DUP3 SLOAD ADD SWAP3 POP POP DUP2 SWAP1 SSTORE POP PUSH1 0x0 PUSH1 0xC SLOAD SWAP1 POP PUSH1 0x0 PUSH2 0x1773 PUSH1 0x3 SLOAD PUSH2 0x1765 PUSH1 0xD SLOAD PUSH1 0xB PUSH1 0x0 DUP10 PUSH20 0xFFFFFFFFFFFFFFFFFFFFFFFFFFFFFFFFFFFFFFFF AND PUSH20 0xFFFFFFFFFFFFFFFFFFFFFFFFFFFFFFFFFFFFFFFF AND DUP2 MSTORE PUSH1 0x20 ADD SWAP1 DUP2 MSTORE PUSH1 0x20 ADD PUSH1 0x0 KECCAK256 PUSH1 0x0 ADD SLOAD PUSH2 0x21BE SWAP1 SWAP2 SWAP1 PUSH4 0xFFFFFFFF AND JUMP JUMPDEST PUSH2 0x222E SWAP1 SWAP2 SWAP1 PUSH4 0xFFFFFFFF AND JUMP JUMPDEST SWAP1 POP PUSH1 0x0 PUSH2 0x17A0 PUSH1 0xD SLOAD PUSH2 0x1792 DUP5 PUSH1 0x5 SLOAD PUSH2 0x21BE SWAP1 SWAP2 SWAP1 PUSH4 0xFFFFFFFF AND JUMP JUMPDEST PUSH2 0x222E SWAP1 SWAP2 SWAP1 PUSH4 0xFFFFFFFF AND JUMP JUMPDEST SWAP1 POP PUSH1 0xB PUSH1 0x0 DUP7 PUSH20 0xFFFFFFFFFFFFFFFFFFFFFFFFFFFFFFFFFFFFFFFF AND PUSH20 0xFFFFFFFFFFFFFFFFFFFFFFFFFFFFFFFFFFFFFFFF AND DUP2 MSTORE PUSH1 0x20 ADD SWAP1 DUP2 MSTORE PUSH1 0x20 ADD PUSH1 0x0 KECCAK256 PUSH1 0x1 ADD SLOAD DUP2 LT ISZERO PUSH2 0x1827 JUMPI PUSH1 0x40 MLOAD PUSH32 0x8C379A000000000000000000000000000000000000000000000000000000000 DUP2 MSTORE PUSH1 0x4 ADD PUSH2 0x181E SWAP1 PUSH2 0x35F6 JUMP JUMPDEST PUSH1 0x40 MLOAD DUP1 SWAP2 SUB SWAP1 REVERT JUMPDEST PUSH2 0x187C PUSH1 0xB PUSH1 0x0 DUP8 PUSH20 0xFFFFFFFFFFFFFFFFFFFFFFFFFFFFFFFFFFFFFFFF AND PUSH20 0xFFFFFFFFFFFFFFFFFFFFFFFFFFFFFFFFFFFFFFFF AND DUP2 MSTORE PUSH1 0x20 ADD SWAP1 DUP2 MSTORE PUSH1 0x20 ADD PUSH1 0x0 KECCAK256 PUSH1 0x1 ADD SLOAD DUP3 PUSH2 0x1EF6 SWAP1 SWAP2 SWAP1 PUSH4 0xFFFFFFFF AND JUMP JUMPDEST SWAP1 POP PUSH2 0x18D3 DUP2 PUSH1 0xB PUSH1 0x0 DUP9 PUSH20 0xFFFFFFFFFFFFFFFFFFFFFFFFFFFFFFFFFFFFFFFF AND PUSH20 0xFFFFFFFFFFFFFFFFFFFFFFFFFFFFFFFFFFFFFFFF AND DUP2 MSTORE PUSH1 0x20 ADD SWAP1 DUP2 MSTORE PUSH1 0x20 ADD PUSH1 0x0 KECCAK256 PUSH1 0x1 ADD SLOAD PUSH2 0x1EA1 SWAP1 SWAP2 SWAP1 PUSH4 0xFFFFFFFF AND JUMP JUMPDEST PUSH1 0xB PUSH1 0x0 DUP8 PUSH20 0xFFFFFFFFFFFFFFFFFFFFFFFFFFFFFFFFFFFFFFFF AND PUSH20 0xFFFFFFFFFFFFFFFFFFFFFFFFFFFFFFFFFFFFFFFF AND DUP2 MSTORE PUSH1 0x20 ADD SWAP1 DUP2 MSTORE PUSH1 0x20 ADD PUSH1 0x0 KECCAK256 PUSH1 0x1 ADD DUP2 SWAP1 SSTORE POP PUSH1 0x0 PUSH20 0xFFFFFFFFFFFFFFFFFFFFFFFFFFFFFFFFFFFFFFFF AND PUSH1 0x1 PUSH1 0x0 SWAP1 SLOAD SWAP1 PUSH2 0x100 EXP SWAP1 DIV PUSH20 0xFFFFFFFFFFFFFFFFFFFFFFFFFFFFFFFFFFFFFFFF AND PUSH20 0xFFFFFFFFFFFFFFFFFFFFFFFFFFFFFFFFFFFFFFFF AND EQ ISZERO PUSH2 0x19E9 JUMPI CALLER PUSH20 0xFFFFFFFFFFFFFFFFFFFFFFFFFFFFFFFFFFFFFFFF AND PUSH2 0x8FC DUP3 SWAP1 DUP2 ISZERO MUL SWAP1 PUSH1 0x40 MLOAD PUSH1 0x0 PUSH1 0x40 MLOAD DUP1 DUP4 SUB DUP2 DUP6 DUP9 DUP9 CALL SWAP4 POP POP POP POP PUSH2 0x19E4 JUMPI PUSH1 0x40 MLOAD PUSH32 0x8C379A000000000000000000000000000000000000000000000000000000000 DUP2 MSTORE PUSH1 0x4 ADD PUSH2 0x19DB SWAP1 PUSH2 0x3516 JUMP JUMPDEST PUSH1 0x40 MLOAD DUP1 SWAP2 SUB SWAP1 REVERT JUMPDEST PUSH2 0x1AF4 JUMP JUMPDEST PUSH1 0x1 PUSH1 0x0 SWAP1 SLOAD SWAP1 PUSH2 0x100 EXP SWAP1 DIV PUSH20 0xFFFFFFFFFFFFFFFFFFFFFFFFFFFFFFFFFFFFFFFF AND PUSH20 0xFFFFFFFFFFFFFFFFFFFFFFFFFFFFFFFFFFFFFFFF AND PUSH4 0xA9059CBB DUP7 DUP4 PUSH1 0x40 MLOAD DUP4 PUSH4 0xFFFFFFFF AND PUSH29 0x100000000000000000000000000000000000000000000000000000000 MUL DUP2 MSTORE PUSH1 0x4 ADD PUSH2 0x1A62 SWAP3 SWAP2 SWAP1 PUSH2 0x3212 JUMP JUMPDEST PUSH1 0x20 PUSH1 0x40 MLOAD DUP1 DUP4 SUB DUP2 PUSH1 0x0 DUP8 DUP1 EXTCODESIZE ISZERO DUP1 ISZERO PUSH2 0x1A7C JUMPI PUSH1 0x0 DUP1 REVERT JUMPDEST POP GAS CALL ISZERO DUP1 ISZERO PUSH2 0x1A90 JUMPI RETURNDATASIZE PUSH1 0x0 DUP1 RETURNDATACOPY RETURNDATASIZE PUSH1 0x0 REVERT JUMPDEST POP POP POP POP PUSH1 0x40 MLOAD RETURNDATASIZE PUSH1 0x1F NOT PUSH1 0x1F DUP3 ADD AND DUP3 ADD DUP1 PUSH1 0x40 MSTORE POP PUSH2 0x1AB4 SWAP2 SWAP1 DUP2 ADD SWAP1 PUSH2 0x2307 JUMP JUMPDEST PUSH2 0x1AF3 JUMPI PUSH1 0x40 MLOAD PUSH32 0x8C379A000000000000000000000000000000000000000000000000000000000 DUP2 MSTORE PUSH1 0x4 ADD PUSH2 0x1AEA SWAP1 PUSH2 0x3596 JUMP JUMPDEST PUSH1 0x40 MLOAD DUP1 SWAP2 SUB SWAP1 REVERT JUMPDEST JUMPDEST DUP5 PUSH20 0xFFFFFFFFFFFFFFFFFFFFFFFFFFFFFFFFFFFFFFFF AND PUSH32 0xB6C0ECA8138E097D71E2DD31E19A1266487F0553F170B7260FFE68BCBE9FF8A7 DUP3 PUSH1 0x40 MLOAD PUSH2 0x1B3A SWAP2 SWAP1 PUSH2 0x3636 JUMP JUMPDEST PUSH1 0x40 MLOAD DUP1 SWAP2 SUB SWAP1 LOG2 PUSH1 0x1 SWAP4 POP POP POP PUSH1 0xC SLOAD DUP2 EQ PUSH2 0x1B8C JUMPI PUSH1 0x40 MLOAD PUSH32 0x8C379A000000000000000000000000000000000000000000000000000000000 DUP2 MSTORE PUSH1 0x4 ADD PUSH2 0x1B83 SWAP1 PUSH2 0x35B6 JUMP JUMPDEST PUSH1 0x40 MLOAD DUP1 SWAP2 SUB SWAP1 REVERT JUMPDEST POP SWAP2 SWAP1 POP JUMP JUMPDEST PUSH1 0x8 SLOAD DUP2 JUMP JUMPDEST PUSH1 0x0 PUSH2 0x1BD9 PUSH1 0x6 SLOAD PUSH2 0x1BCB PUSH1 0x5 SLOAD PUSH2 0x1BBD PUSH1 0x4 SLOAD PUSH1 0x3 SLOAD PUSH2 0x1EF6 SWAP1 SWAP2 SWAP1 PUSH4 0xFFFFFFFF AND JUMP JUMPDEST PUSH2 0x1EF6 SWAP1 SWAP2 SWAP1 PUSH4 0xFFFFFFFF AND JUMP JUMPDEST PUSH2 0x1EF6 SWAP1 SWAP2 SWAP1 PUSH4 0xFFFFFFFF AND JUMP JUMPDEST SWAP1 POP SWAP1 JUMP JUMPDEST PUSH1 0x0 DUP1 PUSH1 0x7 SLOAD EQ DUP1 PUSH2 0x1BF1 JUMPI POP TIMESTAMP PUSH1 0x7 SLOAD GT JUMPDEST DUP1 ISZERO PUSH2 0x1C00 JUMPI POP PUSH1 0x2 SLOAD PUSH1 0x3 SLOAD LT JUMPDEST DUP1 ISZERO PUSH2 0x1C19 JUMPI POP PUSH1 0x9 PUSH1 0x0 SWAP1 SLOAD SWAP1 PUSH2 0x100 EXP SWAP1 DIV PUSH1 0xFF AND ISZERO JUMPDEST SWAP1 POP SWAP1 JUMP JUMPDEST PUSH1 0x4 SLOAD DUP2 JUMP JUMPDEST PUSH1 0xB PUSH1 0x20 MSTORE DUP1 PUSH1 0x0 MSTORE PUSH1 0x40 PUSH1 0x0 KECCAK256 PUSH1 0x0 SWAP2 POP SWAP1 POP DUP1 PUSH1 0x0 ADD SLOAD SWAP1 DUP1 PUSH1 0x1 ADD SLOAD SWAP1 POP DUP3 JUMP JUMPDEST PUSH2 0x1C51 CALLER PUSH2 0x1E36 JUMP JUMPDEST PUSH2 0x1C90 JUMPI PUSH1 0x40 MLOAD PUSH32 0x8C379A000000000000000000000000000000000000000000000000000000000 DUP2 MSTORE PUSH1 0x4 ADD PUSH2 0x1C87 SWAP1 PUSH2 0x3576 JUMP JUMPDEST PUSH1 0x40 MLOAD DUP1 SWAP2 SUB SWAP1 REVERT JUMPDEST PUSH1 0x0 PUSH20 0xFFFFFFFFFFFFFFFFFFFFFFFFFFFFFFFFFFFFFFFF AND DUP2 PUSH20 0xFFFFFFFFFFFFFFFFFFFFFFFFFFFFFFFFFFFFFFFF AND EQ PUSH2 0x1D66 JUMPI DUP2 PUSH2 0x1CCE DUP3 PUSH2 0x1255 JUMP JUMPDEST LT ISZERO PUSH2 0x1D0F JUMPI PUSH1 0x40 MLOAD PUSH32 0x8C379A000000000000000000000000000000000000000000000000000000000 DUP2 MSTORE PUSH1 0x4 ADD PUSH2 0x1D06 SWAP1 PUSH2 0x32D6 JUMP JUMPDEST PUSH1 0x40 MLOAD DUP1 SWAP2 SUB SWAP1 REVERT JUMPDEST PUSH2 0x1D64 DUP3 PUSH1 0xA PUSH1 0x0 DUP5 PUSH20 0xFFFFFFFFFFFFFFFFFFFFFFFFFFFFFFFFFFFFFFFF AND PUSH20 0xFFFFFFFFFFFFFFFFFFFFFFFFFFFFFFFFFFFFFFFF AND DUP2 MSTORE PUSH1 0x20 ADD SWAP1 DUP2 MSTORE PUSH1 0x20 ADD PUSH1 0x0 KECCAK256 PUSH1 0x0 ADD SLOAD PUSH2 0x1EF6 SWAP1 SWAP2 SWAP1 PUSH4 0xFFFFFFFF AND JUMP JUMPDEST POP JUMPDEST PUSH2 0x1D6E PUSH2 0x1B98 JUMP JUMPDEST DUP3 GT ISZERO PUSH2 0x1DB0 JUMPI PUSH1 0x40 MLOAD PUSH32 0x8C379A000000000000000000000000000000000000000000000000000000000 DUP2 MSTORE PUSH1 0x4 ADD PUSH2 0x1DA7 SWAP1 PUSH2 0x3476 JUMP JUMPDEST PUSH1 0x40 MLOAD DUP1 SWAP2 SUB SWAP1 REVERT JUMPDEST PUSH2 0x1DC5 DUP3 PUSH1 0x5 SLOAD PUSH2 0x1EA1 SWAP1 SWAP2 SWAP1 PUSH4 0xFFFFFFFF AND JUMP JUMPDEST PUSH1 0x5 DUP2 SWAP1 SSTORE POP PUSH32 0x481131D4F3F5D97379F8D85B228D5CDF2A381A9666CA66D4B4094553A8E10AD0 DUP3 PUSH1 0x5 SLOAD PUSH1 0x40 MLOAD PUSH2 0x1DFE SWAP3 SWAP2 SWAP1 PUSH2 0x3651 JUMP JUMPDEST PUSH1 0x40 MLOAD DUP1 SWAP2 SUB SWAP1 LOG1 POP POP JUMP JUMPDEST PUSH1 0x5 SLOAD DUP2 JUMP JUMPDEST PUSH1 0x1 PUSH1 0x0 SWAP1 SLOAD SWAP1 PUSH2 0x100 EXP SWAP1 DIV PUSH20 0xFFFFFFFFFFFFFFFFFFFFFFFFFFFFFFFFFFFFFFFF AND DUP2 JUMP JUMPDEST PUSH1 0x0 DUP2 PUSH20 0xFFFFFFFFFFFFFFFFFFFFFFFFFFFFFFFFFFFFFFFF AND PUSH1 0x0 DUP1 SWAP1 SLOAD SWAP1 PUSH2 0x100 EXP SWAP1 DIV PUSH20 0xFFFFFFFFFFFFFFFFFFFFFFFFFFFFFFFFFFFFFFFF AND PUSH20 0xFFFFFFFFFFFFFFFFFFFFFFFFFFFFFFFFFFFFFFFF AND EQ SWAP1 POP SWAP2 SWAP1 POP JUMP JUMPDEST PUSH1 0x2 SLOAD DUP2 JUMP JUMPDEST PUSH1 0x6 SLOAD DUP2 JUMP JUMPDEST PUSH1 0x3 SLOAD DUP2 JUMP JUMPDEST PUSH1 0x0 DUP1 DUP3 DUP5 ADD SWAP1 POP DUP4 DUP2 LT ISZERO PUSH2 0x1EEC JUMPI PUSH1 0x40 MLOAD PUSH32 0x8C379A000000000000000000000000000000000000000000000000000000000 DUP2 MSTORE PUSH1 0x4 ADD PUSH2 0x1EE3 SWAP1 PUSH2 0x32F6 JUMP JUMPDEST PUSH1 0x40 MLOAD DUP1 SWAP2 SUB SWAP1 REVERT JUMPDEST DUP1 SWAP2 POP POP SWAP3 SWAP2 POP POP JUMP JUMPDEST PUSH1 0x0 DUP3 DUP3 GT ISZERO PUSH2 0x1F3B JUMPI PUSH1 0x40 MLOAD PUSH32 0x8C379A000000000000000000000000000000000000000000000000000000000 DUP2 MSTORE PUSH1 0x4 ADD PUSH2 0x1F32 SWAP1 PUSH2 0x3376 JUMP JUMPDEST PUSH1 0x40 MLOAD DUP1 SWAP2 SUB SWAP1 REVERT JUMPDEST PUSH1 0x0 DUP3 DUP5 SUB SWAP1 POP DUP1 SWAP2 POP POP SWAP3 SWAP2 POP POP JUMP JUMPDEST DUP2 CALLVALUE EQ PUSH2 0x1F8E JUMPI PUSH1 0x40 MLOAD PUSH32 0x8C379A000000000000000000000000000000000000000000000000000000000 DUP2 MSTORE PUSH1 0x4 ADD PUSH2 0x1F85 SWAP1 PUSH2 0x32B6 JUMP JUMPDEST PUSH1 0x40 MLOAD DUP1 SWAP2 SUB SWAP1 REVERT JUMPDEST PUSH1 0x0 CALLVALUE GT PUSH2 0x1FD1 JUMPI PUSH1 0x40 MLOAD PUSH32 0x8C379A000000000000000000000000000000000000000000000000000000000 DUP2 MSTORE PUSH1 0x4 ADD PUSH2 0x1FC8 SWAP1 PUSH2 0x34D6 JUMP JUMPDEST PUSH1 0x40 MLOAD DUP1 SWAP2 SUB SWAP1 REVERT JUMPDEST PUSH1 0x0 DUP2 GT ISZERO PUSH2 0x204F JUMPI CALLER PUSH20 0xFFFFFFFFFFFFFFFFFFFFFFFFFFFFFFFFFFFFFFFF AND PUSH2 0x8FC DUP3 SWAP1 DUP2 ISZERO MUL SWAP1 PUSH1 0x40 MLOAD PUSH1 0x0 PUSH1 0x40 MLOAD DUP1 DUP4 SUB DUP2 DUP6 DUP9 DUP9 CALL SWAP4 POP POP POP POP PUSH2 0x204E JUMPI PUSH1 0x40 MLOAD PUSH32 0x8C379A000000000000000000000000000000000000000000000000000000000 DUP2 MSTORE PUSH1 0x4 ADD PUSH2 0x2045 SWAP1 PUSH2 0x34B6 JUMP JUMPDEST PUSH1 0x40 MLOAD DUP1 SWAP2 SUB SWAP1 REVERT JUMPDEST JUMPDEST POP POP JUMP JUMPDEST PUSH1 0x0 CALLVALUE EQ PUSH2 0x2096 JUMPI PUSH1 0x40 MLOAD PUSH32 0x8C379A000000000000000000000000000000000000000000000000000000000 DUP2 MSTORE PUSH1 0x4 ADD PUSH2 0x208D SWAP1 PUSH2 0x3296 JUMP JUMPDEST PUSH1 0x40 MLOAD DUP1 SWAP2 SUB SWAP1 REVERT JUMPDEST PUSH1 0x0 PUSH2 0x20AB DUP3 DUP5 PUSH2 0x1EF6 SWAP1 SWAP2 SWAP1 PUSH4 0xFFFFFFFF AND JUMP JUMPDEST SWAP1 POP PUSH1 0x1 PUSH1 0x0 SWAP1 SLOAD SWAP1 PUSH2 0x100 EXP SWAP1 DIV PUSH20 0xFFFFFFFFFFFFFFFFFFFFFFFFFFFFFFFFFFFFFFFF AND PUSH20 0xFFFFFFFFFFFFFFFFFFFFFFFFFFFFFFFFFFFFFFFF AND PUSH4 0x23B872DD CALLER ADDRESS DUP5 PUSH1 0x40 MLOAD DUP5 PUSH4 0xFFFFFFFF AND PUSH29 0x100000000000000000000000000000000000000000000000000000000 MUL DUP2 MSTORE PUSH1 0x4 ADD PUSH2 0x2128 SWAP4 SWAP3 SWAP2 SWAP1 PUSH2 0x31B2 JUMP JUMPDEST PUSH1 0x20 PUSH1 0x40 MLOAD DUP1 DUP4 SUB DUP2 PUSH1 0x0 DUP8 DUP1 EXTCODESIZE ISZERO DUP1 ISZERO PUSH2 0x2142 JUMPI PUSH1 0x0 DUP1 REVERT JUMPDEST POP GAS CALL ISZERO DUP1 ISZERO PUSH2 0x2156 JUMPI RETURNDATASIZE PUSH1 0x0 DUP1 RETURNDATACOPY RETURNDATASIZE PUSH1 0x0 REVERT JUMPDEST POP POP POP POP PUSH1 0x40 MLOAD RETURNDATASIZE PUSH1 0x1F NOT PUSH1 0x1F DUP3 ADD AND DUP3 ADD DUP1 PUSH1 0x40 MSTORE POP PUSH2 0x217A SWAP2 SWAP1 DUP2 ADD SWAP1 PUSH2 0x2307 JUMP JUMPDEST PUSH2 0x21B9 JUMPI PUSH1 0x40 MLOAD PUSH32 0x8C379A000000000000000000000000000000000000000000000000000000000 DUP2 MSTORE PUSH1 0x4 ADD PUSH2 0x21B0 SWAP1 PUSH2 0x34F6 JUMP JUMPDEST PUSH1 0x40 MLOAD DUP1 SWAP2 SUB SWAP1 REVERT JUMPDEST POP POP POP JUMP JUMPDEST PUSH1 0x0 DUP1 DUP4 EQ ISZERO PUSH2 0x21D1 JUMPI PUSH1 0x0 SWAP1 POP PUSH2 0x2228 JUMP JUMPDEST PUSH1 0x0 DUP3 DUP5 MUL SWAP1 POP DUP3 DUP5 DUP3 DUP2 PUSH2 0x21E2 JUMPI INVALID JUMPDEST DIV EQ PUSH2 0x2223 JUMPI PUSH1 0x40 MLOAD PUSH32 0x8C379A000000000000000000000000000000000000000000000000000000000 DUP2 MSTORE PUSH1 0x4 ADD PUSH2 0x221A SWAP1 PUSH2 0x3496 JUMP JUMPDEST PUSH1 0x40 MLOAD DUP1 SWAP2 SUB SWAP1 REVERT JUMPDEST DUP1 SWAP2 POP POP JUMPDEST SWAP3 SWAP2 POP POP JUMP JUMPDEST PUSH1 0x0 DUP1 DUP3 GT PUSH2 0x2272 JUMPI PUSH1 0x40 MLOAD PUSH32 0x8C379A000000000000000000000000000000000000000000000000000000000 DUP2 MSTORE PUSH1 0x4 ADD PUSH2 0x2269 SWAP1 PUSH2 0x33D6 JUMP JUMPDEST PUSH1 0x40 MLOAD DUP1 SWAP2 SUB SWAP1 REVERT JUMPDEST PUSH1 0x0 DUP3 DUP5 DUP2 PUSH2 0x227D JUMPI INVALID JUMPDEST DIV SWAP1 POP DUP1 SWAP2 POP POP SWAP3 SWAP2 POP POP JUMP JUMPDEST PUSH1 0x0 DUP2 CALLDATALOAD SWAP1 POP PUSH2 0x2299 DUP2 PUSH2 0x3740 JUMP JUMPDEST SWAP3 SWAP2 POP POP JUMP JUMPDEST PUSH1 0x0 DUP2 CALLDATALOAD SWAP1 POP PUSH2 0x22AE DUP2 PUSH2 0x3757 JUMP JUMPDEST SWAP3 SWAP2 POP POP JUMP JUMPDEST PUSH1 0x0 DUP2 MLOAD SWAP1 POP PUSH2 0x22C3 DUP2 PUSH2 0x3757 JUMP JUMPDEST SWAP3 SWAP2 POP POP JUMP JUMPDEST PUSH1 0x0 DUP2 CALLDATALOAD SWAP1 POP PUSH2 0x22D8 DUP2 PUSH2 0x376E JUMP JUMPDEST SWAP3 SWAP2 POP POP JUMP JUMPDEST PUSH1 0x0 PUSH1 0x20 DUP3 DUP5 SUB SLT ISZERO PUSH2 0x22F0 JUMPI PUSH1 0x0 DUP1 REVERT JUMPDEST PUSH1 0x0 PUSH2 0x22FE DUP5 DUP3 DUP6 ADD PUSH2 0x228A JUMP JUMPDEST SWAP2 POP POP SWAP3 SWAP2 POP POP JUMP JUMPDEST PUSH1 0x0 PUSH1 0x20 DUP3 DUP5 SUB SLT ISZERO PUSH2 0x2319 JUMPI PUSH1 0x0 DUP1 REVERT JUMPDEST PUSH1 0x0 PUSH2 0x2327 DUP5 DUP3 DUP6 ADD PUSH2 0x22B4 JUMP JUMPDEST SWAP2 POP POP SWAP3 SWAP2 POP POP JUMP JUMPDEST PUSH1 0x0 DUP1 PUSH1 0x40 DUP4 DUP6 SUB SLT ISZERO PUSH2 0x2343 JUMPI PUSH1 0x0 DUP1 REVERT JUMPDEST PUSH1 0x0 PUSH2 0x2351 DUP6 DUP3 DUP7 ADD PUSH2 0x229F JUMP JUMPDEST SWAP3 POP POP PUSH1 0x20 PUSH2 0x2362 DUP6 DUP3 DUP7 ADD PUSH2 0x22C9 JUMP JUMPDEST SWAP2 POP POP SWAP3 POP SWAP3 SWAP1 POP JUMP JUMPDEST PUSH1 0x0 PUSH1 0x20 DUP3 DUP5 SUB SLT ISZERO PUSH2 0x237E JUMPI PUSH1 0x0 DUP1 REVERT JUMPDEST PUSH1 0x0 PUSH2 0x238C DUP5 DUP3 DUP6 ADD PUSH2 0x22C9 JUMP JUMPDEST SWAP2 POP POP SWAP3 SWAP2 POP POP JUMP JUMPDEST PUSH1 0x0 DUP1 PUSH1 0x40 DUP4 DUP6 SUB SLT ISZERO PUSH2 0x23A8 JUMPI PUSH1 0x0 DUP1 REVERT JUMPDEST PUSH1 0x0 PUSH2 0x23B6 DUP6 DUP3 DUP7 ADD PUSH2 0x22C9 JUMP JUMPDEST SWAP3 POP POP PUSH1 0x20 PUSH2 0x23C7 DUP6 DUP3 DUP7 ADD PUSH2 0x228A JUMP JUMPDEST SWAP2 POP POP SWAP3 POP SWAP3 SWAP1 POP JUMP JUMPDEST PUSH2 0x23DA DUP2 PUSH2 0x370A JUMP JUMPDEST DUP3 MSTORE POP POP JUMP JUMPDEST PUSH2 0x23E9 DUP2 PUSH2 0x36C2 JUMP JUMPDEST DUP3 MSTORE POP POP JUMP JUMPDEST PUSH2 0x23F8 DUP2 PUSH2 0x36D4 JUMP JUMPDEST DUP3 MSTORE POP POP JUMP JUMPDEST PUSH1 0x0 PUSH2 0x240B PUSH1 0x42 DUP4 PUSH2 0x36B1 JUMP JUMPDEST SWAP2 POP PUSH32 0x617070726F76655061796F75743A3A537461747573204572726F722E2043616E PUSH1 0x0 DUP4 ADD MSTORE PUSH32 0x6E6F7420617070726F7665206966206772616E742069732063616E63656C6C65 PUSH1 0x20 DUP4 ADD MSTORE PUSH32 0x642E000000000000000000000000000000000000000000000000000000000000 PUSH1 0x40 DUP4 ADD MSTORE PUSH1 0x60 DUP3 ADD SWAP1 POP SWAP2 SWAP1 POP JUMP JUMPDEST PUSH1 0x0 PUSH2 0x2497 PUSH1 0x4A DUP4 PUSH2 0x36B1 JUMP JUMPDEST SWAP2 POP PUSH32 0x617070726F76655061796F75743A3A496E76616C696420417267756D656E742E PUSH1 0x0 DUP4 ADD MSTORE PUSH32 0x2076616C75652063616E6E6F74206578636565642072656D61696E696E672061 PUSH1 0x20 DUP4 ADD MSTORE PUSH32 0x6C6C6F636174696F6E2E00000000000000000000000000000000000000000000 PUSH1 0x40 DUP4 ADD MSTORE PUSH1 0x60 DUP3 ADD SWAP1 POP SWAP2 SWAP1 POP JUMP JUMPDEST PUSH1 0x0 PUSH2 0x2523 PUSH1 0x49 DUP4 PUSH2 0x36B1 JUMP JUMPDEST SWAP2 POP PUSH32 0x66756E6457697468546F6B656E3A3A43757272656E6379204572726F722E2043 PUSH1 0x0 DUP4 ADD MSTORE PUSH32 0x616E6E6F742073656E6420457468657220746F206120746F6B656E2066756E64 PUSH1 0x20 DUP4 ADD MSTORE PUSH32 0x6564206772616E742E0000000000000000000000000000000000000000000000 PUSH1 0x40 DUP4 ADD MSTORE PUSH1 0x60 DUP3 ADD SWAP1 POP SWAP2 SWAP1 POP JUMP JUMPDEST PUSH1 0x0 PUSH2 0x25AF PUSH1 0x3C DUP4 PUSH2 0x36B1 JUMP JUMPDEST SWAP2 POP PUSH32 0x66756E645769746845746865723A3A496E76616C696420417267756D656E742E PUSH1 0x0 DUP4 ADD MSTORE PUSH32 0x2076616C7565206D75737420657175616C206D73672E76616C75652E00000000 PUSH1 0x20 DUP4 ADD MSTORE PUSH1 0x40 DUP3 ADD SWAP1 POP SWAP2 SWAP1 POP JUMP JUMPDEST PUSH1 0x0 PUSH2 0x2615 PUSH1 0x49 DUP4 PUSH2 0x36B1 JUMP JUMPDEST SWAP2 POP PUSH32 0x617070726F7665526566756E643A3A496E76616C696420417267756D656E742E PUSH1 0x0 DUP4 ADD MSTORE PUSH32 0x2056616C75652067726561746572207468616E2072656D61696E696E6720616C PUSH1 0x20 DUP4 ADD MSTORE PUSH32 0x6C6F636174696F6E2E0000000000000000000000000000000000000000000000 PUSH1 0x40 DUP4 ADD MSTORE PUSH1 0x60 DUP3 ADD SWAP1 POP SWAP2 SWAP1 POP JUMP JUMPDEST PUSH1 0x0 PUSH2 0x26A1 PUSH1 0x1B DUP4 PUSH2 0x36B1 JUMP JUMPDEST SWAP2 POP PUSH32 0x536166654D6174683A206164646974696F6E206F766572666C6F770000000000 PUSH1 0x0 DUP4 ADD MSTORE PUSH1 0x20 DUP3 ADD SWAP1 POP SWAP2 SWAP1 POP JUMP JUMPDEST PUSH1 0x0 PUSH2 0x26E1 PUSH1 0x4A DUP4 PUSH2 0x36B1 JUMP JUMPDEST SWAP2 POP PUSH32 0x77697468647261775061796F75743A3A496E76616C696420417267756D656E74 PUSH1 0x0 DUP4 ADD MSTORE PUSH32 0x2E206772616E746565207061796F7574417070726F766564206D757374206571 PUSH1 0x20 DUP4 ADD MSTORE PUSH32 0x75616C2076616C75652E00000000000000000000000000000000000000000000 PUSH1 0x40 DUP4 ADD MSTORE PUSH1 0x60 DUP3 ADD SWAP1 POP SWAP2 SWAP1 POP JUMP JUMPDEST PUSH1 0x0 PUSH2 0x276D PUSH1 0x42 DUP4 PUSH2 0x36B1 JUMP JUMPDEST SWAP2 POP PUSH32 0x7369676E616C3A3A43757272656E6379204572726F722E2043616E6E6F742073 PUSH1 0x0 DUP4 ADD MSTORE PUSH32 0x656E6420457468657220746F206120746F6B656E2066756E646564206772616E PUSH1 0x20 DUP4 ADD MSTORE PUSH32 0x742E000000000000000000000000000000000000000000000000000000000000 PUSH1 0x40 DUP4 ADD MSTORE PUSH1 0x60 DUP3 ADD SWAP1 POP SWAP2 SWAP1 POP JUMP JUMPDEST PUSH1 0x0 PUSH2 0x27F9 PUSH1 0x3F DUP4 PUSH2 0x36B1 JUMP JUMPDEST SWAP2 POP PUSH32 0x63616E63656C4772616E743A3A496E76616C69642053656E6465722E2053656E PUSH1 0x0 DUP4 ADD MSTORE PUSH32 0x646572206D757374206265206D616E61676572206F7220657870697265642E00 PUSH1 0x20 DUP4 ADD MSTORE PUSH1 0x40 DUP3 ADD SWAP1 POP SWAP2 SWAP1 POP JUMP JUMPDEST PUSH1 0x0 PUSH2 0x285F PUSH1 0x1E DUP4 PUSH2 0x36B1 JUMP JUMPDEST SWAP2 POP PUSH32 0x536166654D6174683A207375627472616374696F6E206F766572666C6F770000 PUSH1 0x0 DUP4 ADD MSTORE PUSH1 0x20 DUP3 ADD SWAP1 POP SWAP2 SWAP1 POP JUMP JUMPDEST PUSH1 0x0 PUSH2 0x289F PUSH1 0x2D DUP4 PUSH2 0x36B1 JUMP JUMPDEST SWAP2 POP PUSH32 0x63616E63656C4772616E743A3A537461747573204572726F722E20416C726561 PUSH1 0x0 DUP4 ADD MSTORE PUSH32 0x64792063616E63656C6C65642E00000000000000000000000000000000000000 PUSH1 0x20 DUP4 ADD MSTORE PUSH1 0x40 DUP3 ADD SWAP1 POP SWAP2 SWAP1 POP JUMP JUMPDEST PUSH1 0x0 PUSH2 0x2905 PUSH1 0x40 DUP4 PUSH2 0x36B1 JUMP JUMPDEST SWAP2 POP PUSH32 0x77697468647261775061796F75743A3A5472616E73666572204572726F722E20 PUSH1 0x0 DUP4 ADD MSTORE PUSH32 0x556E61626C6520746F2073656E642076616C756520746F204772616E7465652E PUSH1 0x20 DUP4 ADD MSTORE PUSH1 0x40 DUP3 ADD SWAP1 POP SWAP2 SWAP1 POP JUMP JUMPDEST PUSH1 0x0 PUSH2 0x296B PUSH1 0x1A DUP4 PUSH2 0x36B1 JUMP JUMPDEST SWAP2 POP PUSH32 0x536166654D6174683A206469766973696F6E206279207A65726F000000000000 PUSH1 0x0 DUP4 ADD MSTORE PUSH1 0x20 DUP3 ADD SWAP1 POP SWAP2 SWAP1 POP JUMP JUMPDEST PUSH1 0x0 PUSH2 0x29AB PUSH1 0x38 DUP4 PUSH2 0x36B1 JUMP JUMPDEST SWAP2 POP PUSH32 0x7369676E616C3A3A5472616E73666572204572726F722E20455243323020746F PUSH1 0x0 DUP4 ADD MSTORE PUSH32 0x6B656E207472616E7366657246726F6D206661696C65642E0000000000000000 PUSH1 0x20 DUP4 ADD MSTORE PUSH1 0x40 DUP3 ADD SWAP1 POP SWAP2 SWAP1 POP JUMP JUMPDEST PUSH1 0x0 PUSH2 0x2A11 PUSH1 0x3C DUP4 PUSH2 0x36B1 JUMP JUMPDEST SWAP2 POP PUSH32 0x77697468647261775061796F75743A3A5472616E73666572204572726F722E20 PUSH1 0x0 DUP4 ADD MSTORE PUSH32 0x455243323020746F6B656E207472616E73666572206661696C65642E00000000 PUSH1 0x20 DUP4 ADD MSTORE PUSH1 0x40 DUP3 ADD SWAP1 POP SWAP2 SWAP1 POP JUMP JUMPDEST PUSH1 0x0 PUSH2 0x2A77 PUSH1 0x46 DUP4 PUSH2 0x36B1 JUMP JUMPDEST SWAP2 POP PUSH32 0x617070726F76655061796F75743A3A537461747573204572726F722E2043616E PUSH1 0x0 DUP4 ADD MSTORE PUSH32 0x6E6F7420617070726F76652069662066756E64696E6720746172676574206E6F PUSH1 0x20 DUP4 ADD MSTORE PUSH32 0x74206D65742E0000000000000000000000000000000000000000000000000000 PUSH1 0x40 DUP4 ADD MSTORE PUSH1 0x60 DUP3 ADD SWAP1 POP SWAP2 SWAP1 POP JUMP JUMPDEST PUSH1 0x0 PUSH2 0x2B03 PUSH1 0x2D DUP4 PUSH2 0x36B1 JUMP JUMPDEST SWAP2 POP PUSH32 0x7369676E616C3A3A537461747573204572726F722E2046756E64696E67207461 PUSH1 0x0 DUP4 ADD MSTORE PUSH32 0x7267657420726561636865642E00000000000000000000000000000000000000 PUSH1 0x20 DUP4 ADD MSTORE PUSH1 0x40 DUP3 ADD SWAP1 POP SWAP2 SWAP1 POP JUMP JUMPDEST PUSH1 0x0 PUSH2 0x2B69 PUSH1 0x4A DUP4 PUSH2 0x36B1 JUMP JUMPDEST SWAP2 POP PUSH32 0x617070726F7665526566756E643A3A496E76616C696420417267756D656E742E PUSH1 0x0 DUP4 ADD MSTORE PUSH32 0x20416D6F756E742069732067726561746572207468616E20417661696C61626C PUSH1 0x20 DUP4 ADD MSTORE PUSH32 0x652042616C616E63652E00000000000000000000000000000000000000000000 PUSH1 0x40 DUP4 ADD MSTORE PUSH1 0x60 DUP3 ADD SWAP1 POP SWAP2 SWAP1 POP JUMP JUMPDEST PUSH1 0x0 PUSH2 0x2BF5 PUSH1 0x21 DUP4 PUSH2 0x36B1 JUMP JUMPDEST SWAP2 POP PUSH32 0x536166654D6174683A206D756C7469706C69636174696F6E206F766572666C6F PUSH1 0x0 DUP4 ADD MSTORE PUSH32 0x7700000000000000000000000000000000000000000000000000000000000000 PUSH1 0x20 DUP4 ADD MSTORE PUSH1 0x40 DUP3 ADD SWAP1 POP SWAP2 SWAP1 POP JUMP JUMPDEST PUSH1 0x0 PUSH2 0x2C5B PUSH1 0x44 DUP4 PUSH2 0x36B1 JUMP JUMPDEST SWAP2 POP PUSH32 0x66756E645769746845746865723A3A5472616E73666572204572726F722E2055 PUSH1 0x0 DUP4 ADD MSTORE PUSH32 0x6E61626C6520746F2073656E64206368616E6765206261636B20746F2073656E PUSH1 0x20 DUP4 ADD MSTORE PUSH32 0x6465722E00000000000000000000000000000000000000000000000000000000 PUSH1 0x40 DUP4 ADD MSTORE PUSH1 0x60 DUP3 ADD SWAP1 POP SWAP2 SWAP1 POP JUMP JUMPDEST PUSH1 0x0 PUSH2 0x2CE7 PUSH1 0x3A DUP4 PUSH2 0x36B1 JUMP JUMPDEST SWAP2 POP PUSH32 0x66756E645769746845746865723A3A496E76616C69642056616C75652E206D73 PUSH1 0x0 DUP4 ADD MSTORE PUSH32 0x672E76616C75652062652067726561746572207468616E20302E000000000000 PUSH1 0x20 DUP4 ADD MSTORE PUSH1 0x40 DUP3 ADD SWAP1 POP SWAP2 SWAP1 POP JUMP JUMPDEST PUSH1 0x0 PUSH2 0x2D4D PUSH1 0x36 DUP4 PUSH2 0x36B1 JUMP JUMPDEST SWAP2 POP PUSH32 0x66756E643A3A5472616E73666572204572726F722E20455243323020746F6B65 PUSH1 0x0 DUP4 ADD MSTORE PUSH32 0x6E207472616E7366657246726F6D206661696C65642E00000000000000000000 PUSH1 0x20 DUP4 ADD MSTORE PUSH1 0x40 DUP3 ADD SWAP1 POP SWAP2 SWAP1 POP JUMP JUMPDEST PUSH1 0x0 PUSH2 0x2DB3 PUSH1 0x44 DUP4 PUSH2 0x36B1 JUMP JUMPDEST SWAP2 POP PUSH32 0x7769746864726177526566756E643A3A5472616E73666572204572726F722E20 PUSH1 0x0 DUP4 ADD MSTORE PUSH32 0x556E61626C6520746F2073656E6420726566756E6456616C756520746F20446F PUSH1 0x20 DUP4 ADD MSTORE PUSH32 0x6E6F722E00000000000000000000000000000000000000000000000000000000 PUSH1 0x40 DUP4 ADD MSTORE PUSH1 0x60 DUP3 ADD SWAP1 POP SWAP2 SWAP1 POP JUMP JUMPDEST PUSH1 0x0 PUSH2 0x2E3F PUSH1 0x35 DUP4 PUSH2 0x36B1 JUMP JUMPDEST SWAP2 POP PUSH32 0x7369676E616C3A3A496E76616C696420417267756D656E742E2076616C756520 PUSH1 0x0 DUP4 ADD MSTORE PUSH32 0x6D757374206D61746368206D73672E76616C75652E0000000000000000000000 PUSH1 0x20 DUP4 ADD MSTORE PUSH1 0x40 DUP3 ADD SWAP1 POP SWAP2 SWAP1 POP JUMP JUMPDEST PUSH1 0x0 PUSH2 0x2EA5 PUSH1 0x2E DUP4 PUSH2 0x36B1 JUMP JUMPDEST SWAP2 POP PUSH32 0x66756E643A3A537461747573204572726F722E204772616E74206E6F74206F70 PUSH1 0x0 DUP4 ADD MSTORE PUSH32 0x656E20746F2066756E64696E672E000000000000000000000000000000000000 PUSH1 0x20 DUP4 ADD MSTORE PUSH1 0x40 DUP3 ADD SWAP1 POP SWAP2 SWAP1 POP JUMP JUMPDEST PUSH1 0x0 PUSH2 0x2F0B PUSH1 0x46 DUP4 PUSH2 0x36B1 JUMP JUMPDEST SWAP2 POP PUSH32 0x6F6E6C794D616E616765723A3A5065726D697373696F6E204572726F722E2046 PUSH1 0x0 DUP4 ADD MSTORE PUSH32 0x756E6374696F6E2063616E206F6E6C792062652063616C6C6564206279206D61 PUSH1 0x20 DUP4 ADD MSTORE PUSH32 0x6E616765722E0000000000000000000000000000000000000000000000000000 PUSH1 0x40 DUP4 ADD MSTORE PUSH1 0x60 DUP3 ADD SWAP1 POP SWAP2 SWAP1 POP JUMP JUMPDEST PUSH1 0x0 PUSH2 0x2F97 PUSH1 0x3C DUP4 PUSH2 0x36B1 JUMP JUMPDEST SWAP2 POP PUSH32 0x7769746864726177526566756E643A3A5472616E73666572204572726F722E20 PUSH1 0x0 DUP4 ADD MSTORE PUSH32 0x455243323020746F6B656E207472616E73666572206661696C65642E00000000 PUSH1 0x20 DUP4 ADD MSTORE PUSH1 0x40 DUP3 ADD SWAP1 POP SWAP2 SWAP1 POP JUMP JUMPDEST PUSH1 0x0 PUSH2 0x2FFD PUSH1 0x1F DUP4 PUSH2 0x36B1 JUMP JUMPDEST SWAP2 POP PUSH32 0x5265656E7472616E637947756172643A207265656E7472616E742063616C6C00 PUSH1 0x0 DUP4 ADD MSTORE PUSH1 0x20 DUP3 ADD SWAP1 POP SWAP2 SWAP1 POP JUMP JUMPDEST PUSH1 0x0 PUSH2 0x303D PUSH1 0x40 DUP4 PUSH2 0x36B1 JUMP JUMPDEST SWAP2 POP PUSH32 0x7369676E616C3A3A5472616E73666572204572726F722E20556E61626C652074 PUSH1 0x0 DUP4 ADD MSTORE PUSH32 0x6F2073656E64206D73672E76616C7565206261636B20746F2073656E6465722E PUSH1 0x20 DUP4 ADD MSTORE PUSH1 0x40 DUP3 ADD SWAP1 POP SWAP2 SWAP1 POP JUMP JUMPDEST PUSH1 0x0 PUSH2 0x30A3 PUSH1 0x43 DUP4 PUSH2 0x36B1 JUMP JUMPDEST SWAP2 POP PUSH32 0x7769746864726177526566756E643A3A4572726F722E20446F6E6F7220686173 PUSH1 0x0 DUP4 ADD MSTORE PUSH32 0x20616C72656164792077697468647261776E20656C696769626C652072656675 PUSH1 0x20 DUP4 ADD MSTORE PUSH32 0x6E642E0000000000000000000000000000000000000000000000000000000000 PUSH1 0x40 DUP4 ADD MSTORE PUSH1 0x60 DUP3 ADD SWAP1 POP SWAP2 SWAP1 POP JUMP JUMPDEST PUSH1 0x0 PUSH2 0x312F PUSH1 0x34 DUP4 PUSH2 0x36B1 JUMP JUMPDEST SWAP2 POP PUSH32 0x7369676E616C3A3A5472616E73666572204572726F722E20455243323020746F PUSH1 0x0 DUP4 ADD MSTORE PUSH32 0x6B656E207472616E73666572206661696C65642E000000000000000000000000 PUSH1 0x20 DUP4 ADD MSTORE PUSH1 0x40 DUP3 ADD SWAP1 POP SWAP2 SWAP1 POP JUMP JUMPDEST PUSH2 0x3191 DUP2 PUSH2 0x3700 JUMP JUMPDEST DUP3 MSTORE POP POP JUMP JUMPDEST PUSH1 0x0 PUSH1 0x20 DUP3 ADD SWAP1 POP PUSH2 0x31AC PUSH1 0x0 DUP4 ADD DUP5 PUSH2 0x23E0 JUMP JUMPDEST SWAP3 SWAP2 POP POP JUMP JUMPDEST PUSH1 0x0 PUSH1 0x60 DUP3 ADD SWAP1 POP PUSH2 0x31C7 PUSH1 0x0 DUP4 ADD DUP7 PUSH2 0x23D1 JUMP JUMPDEST PUSH2 0x31D4 PUSH1 0x20 DUP4 ADD DUP6 PUSH2 0x23D1 JUMP JUMPDEST PUSH2 0x31E1 PUSH1 0x40 DUP4 ADD DUP5 PUSH2 0x3188 JUMP JUMPDEST SWAP5 SWAP4 POP POP POP POP JUMP JUMPDEST PUSH1 0x0 PUSH1 0x40 DUP3 ADD SWAP1 POP PUSH2 0x31FE PUSH1 0x0 DUP4 ADD DUP6 PUSH2 0x23D1 JUMP JUMPDEST PUSH2 0x320B PUSH1 0x20 DUP4 ADD DUP5 PUSH2 0x3188 JUMP JUMPDEST SWAP4 SWAP3 POP POP POP JUMP JUMPDEST PUSH1 0x0 PUSH1 0x40 DUP3 ADD SWAP1 POP PUSH2 0x3227 PUSH1 0x0 DUP4 ADD DUP6 PUSH2 0x23E0 JUMP JUMPDEST PUSH2 0x3234 PUSH1 0x20 DUP4 ADD DUP5 PUSH2 0x3188 JUMP JUMPDEST SWAP4 SWAP3 POP POP POP JUMP JUMPDEST PUSH1 0x0 PUSH1 0x20 DUP3 ADD SWAP1 POP PUSH2 0x3250 PUSH1 0x0 DUP4 ADD DUP5 PUSH2 0x23EF JUMP JUMPDEST SWAP3 SWAP2 POP POP JUMP JUMPDEST PUSH1 0x0 PUSH1 0x20 DUP3 ADD SWAP1 POP DUP2 DUP2 SUB PUSH1 0x0 DUP4 ADD MSTORE PUSH2 0x326F DUP2 PUSH2 0x23FE JUMP JUMPDEST SWAP1 POP SWAP2 SWAP1 POP JUMP JUMPDEST PUSH1 0x0 PUSH1 0x20 DUP3 ADD SWAP1 POP DUP2 DUP2 SUB PUSH1 0x0 DUP4 ADD MSTORE PUSH2 0x328F DUP2 PUSH2 0x248A JUMP JUMPDEST SWAP1 POP SWAP2 SWAP1 POP JUMP JUMPDEST PUSH1 0x0 PUSH1 0x20 DUP3 ADD SWAP1 POP DUP2 DUP2 SUB PUSH1 0x0 DUP4 ADD MSTORE PUSH2 0x32AF DUP2 PUSH2 0x2516 JUMP JUMPDEST SWAP1 POP SWAP2 SWAP1 POP JUMP JUMPDEST PUSH1 0x0 PUSH1 0x20 DUP3 ADD SWAP1 POP DUP2 DUP2 SUB PUSH1 0x0 DUP4 ADD MSTORE PUSH2 0x32CF DUP2 PUSH2 0x25A2 JUMP JUMPDEST SWAP1 POP SWAP2 SWAP1 POP JUMP JUMPDEST PUSH1 0x0 PUSH1 0x20 DUP3 ADD SWAP1 POP DUP2 DUP2 SUB PUSH1 0x0 DUP4 ADD MSTORE PUSH2 0x32EF DUP2 PUSH2 0x2608 JUMP JUMPDEST SWAP1 POP SWAP2 SWAP1 POP JUMP JUMPDEST PUSH1 0x0 PUSH1 0x20 DUP3 ADD SWAP1 POP DUP2 DUP2 SUB PUSH1 0x0 DUP4 ADD MSTORE PUSH2 0x330F DUP2 PUSH2 0x2694 JUMP JUMPDEST SWAP1 POP SWAP2 SWAP1 POP JUMP JUMPDEST PUSH1 0x0 PUSH1 0x20 DUP3 ADD SWAP1 POP DUP2 DUP2 SUB PUSH1 0x0 DUP4 ADD MSTORE PUSH2 0x332F DUP2 PUSH2 0x26D4 JUMP JUMPDEST SWAP1 POP SWAP2 SWAP1 POP JUMP JUMPDEST PUSH1 0x0 PUSH1 0x20 DUP3 ADD SWAP1 POP DUP2 DUP2 SUB PUSH1 0x0 DUP4 ADD MSTORE PUSH2 0x334F DUP2 PUSH2 0x2760 JUMP JUMPDEST SWAP1 POP SWAP2 SWAP1 POP JUMP JUMPDEST PUSH1 0x0 PUSH1 0x20 DUP3 ADD SWAP1 POP DUP2 DUP2 SUB PUSH1 0x0 DUP4 ADD MSTORE PUSH2 0x336F DUP2 PUSH2 0x27EC JUMP JUMPDEST SWAP1 POP SWAP2 SWAP1 POP JUMP JUMPDEST PUSH1 0x0 PUSH1 0x20 DUP3 ADD SWAP1 POP DUP2 DUP2 SUB PUSH1 0x0 DUP4 ADD MSTORE PUSH2 0x338F DUP2 PUSH2 0x2852 JUMP JUMPDEST SWAP1 POP SWAP2 SWAP1 POP JUMP JUMPDEST PUSH1 0x0 PUSH1 0x20 DUP3 ADD SWAP1 POP DUP2 DUP2 SUB PUSH1 0x0 DUP4 ADD MSTORE PUSH2 0x33AF DUP2 PUSH2 0x2892 JUMP JUMPDEST SWAP1 POP SWAP2 SWAP1 POP JUMP JUMPDEST PUSH1 0x0 PUSH1 0x20 DUP3 ADD SWAP1 POP DUP2 DUP2 SUB PUSH1 0x0 DUP4 ADD MSTORE PUSH2 0x33CF DUP2 PUSH2 0x28F8 JUMP JUMPDEST SWAP1 POP SWAP2 SWAP1 POP JUMP JUMPDEST PUSH1 0x0 PUSH1 0x20 DUP3 ADD SWAP1 POP DUP2 DUP2 SUB PUSH1 0x0 DUP4 ADD MSTORE PUSH2 0x33EF DUP2 PUSH2 0x295E JUMP JUMPDEST SWAP1 POP SWAP2 SWAP1 POP JUMP JUMPDEST PUSH1 0x0 PUSH1 0x20 DUP3 ADD SWAP1 POP DUP2 DUP2 SUB PUSH1 0x0 DUP4 ADD MSTORE PUSH2 0x340F DUP2 PUSH2 0x299E JUMP JUMPDEST SWAP1 POP SWAP2 SWAP1 POP JUMP JUMPDEST PUSH1 0x0 PUSH1 0x20 DUP3 ADD SWAP1 POP DUP2 DUP2 SUB PUSH1 0x0 DUP4 ADD MSTORE PUSH2 0x342F DUP2 PUSH2 0x2A04 JUMP JUMPDEST SWAP1 POP SWAP2 SWAP1 POP JUMP JUMPDEST PUSH1 0x0 PUSH1 0x20 DUP3 ADD SWAP1 POP DUP2 DUP2 SUB PUSH1 0x0 DUP4 ADD MSTORE PUSH2 0x344F DUP2 PUSH2 0x2A6A JUMP JUMPDEST SWAP1 POP SWAP2 SWAP1 POP JUMP JUMPDEST PUSH1 0x0 PUSH1 0x20 DUP3 ADD SWAP1 POP DUP2 DUP2 SUB PUSH1 0x0 DUP4 ADD MSTORE PUSH2 0x346F DUP2 PUSH2 0x2AF6 JUMP JUMPDEST SWAP1 POP SWAP2 SWAP1 POP JUMP JUMPDEST PUSH1 0x0 PUSH1 0x20 DUP3 ADD SWAP1 POP DUP2 DUP2 SUB PUSH1 0x0 DUP4 ADD MSTORE PUSH2 0x348F DUP2 PUSH2 0x2B5C JUMP JUMPDEST SWAP1 POP SWAP2 SWAP1 POP JUMP JUMPDEST PUSH1 0x0 PUSH1 0x20 DUP3 ADD SWAP1 POP DUP2 DUP2 SUB PUSH1 0x0 DUP4 ADD MSTORE PUSH2 0x34AF DUP2 PUSH2 0x2BE8 JUMP JUMPDEST SWAP1 POP SWAP2 SWAP1 POP JUMP JUMPDEST PUSH1 0x0 PUSH1 0x20 DUP3 ADD SWAP1 POP DUP2 DUP2 SUB PUSH1 0x0 DUP4 ADD MSTORE PUSH2 0x34CF DUP2 PUSH2 0x2C4E JUMP JUMPDEST SWAP1 POP SWAP2 SWAP1 POP JUMP JUMPDEST PUSH1 0x0 PUSH1 0x20 DUP3 ADD SWAP1 POP DUP2 DUP2 SUB PUSH1 0x0 DUP4 ADD MSTORE PUSH2 0x34EF DUP2 PUSH2 0x2CDA JUMP JUMPDEST SWAP1 POP SWAP2 SWAP1 POP JUMP JUMPDEST PUSH1 0x0 PUSH1 0x20 DUP3 ADD SWAP1 POP DUP2 DUP2 SUB PUSH1 0x0 DUP4 ADD MSTORE PUSH2 0x350F DUP2 PUSH2 0x2D40 JUMP JUMPDEST SWAP1 POP SWAP2 SWAP1 POP JUMP JUMPDEST PUSH1 0x0 PUSH1 0x20 DUP3 ADD SWAP1 POP DUP2 DUP2 SUB PUSH1 0x0 DUP4 ADD MSTORE PUSH2 0x352F DUP2 PUSH2 0x2DA6 JUMP JUMPDEST SWAP1 POP SWAP2 SWAP1 POP JUMP JUMPDEST PUSH1 0x0 PUSH1 0x20 DUP3 ADD SWAP1 POP DUP2 DUP2 SUB PUSH1 0x0 DUP4 ADD MSTORE PUSH2 0x354F DUP2 PUSH2 0x2E32 JUMP JUMPDEST SWAP1 POP SWAP2 SWAP1 POP JUMP JUMPDEST PUSH1 0x0 PUSH1 0x20 DUP3 ADD SWAP1 POP DUP2 DUP2 SUB PUSH1 0x0 DUP4 ADD MSTORE PUSH2 0x356F DUP2 PUSH2 0x2E98 JUMP JUMPDEST SWAP1 POP SWAP2 SWAP1 POP JUMP JUMPDEST PUSH1 0x0 PUSH1 0x20 DUP3 ADD SWAP1 POP DUP2 DUP2 SUB PUSH1 0x0 DUP4 ADD MSTORE PUSH2 0x358F DUP2 PUSH2 0x2EFE JUMP JUMPDEST SWAP1 POP SWAP2 SWAP1 POP JUMP JUMPDEST PUSH1 0x0 PUSH1 0x20 DUP3 ADD SWAP1 POP DUP2 DUP2 SUB PUSH1 0x0 DUP4 ADD MSTORE PUSH2 0x35AF DUP2 PUSH2 0x2F8A JUMP JUMPDEST SWAP1 POP SWAP2 SWAP1 POP JUMP JUMPDEST PUSH1 0x0 PUSH1 0x20 DUP3 ADD SWAP1 POP DUP2 DUP2 SUB PUSH1 0x0 DUP4 ADD MSTORE PUSH2 0x35CF DUP2 PUSH2 0x2FF0 JUMP JUMPDEST SWAP1 POP SWAP2 SWAP1 POP JUMP JUMPDEST PUSH1 0x0 PUSH1 0x20 DUP3 ADD SWAP1 POP DUP2 DUP2 SUB PUSH1 0x0 DUP4 ADD MSTORE PUSH2 0x35EF DUP2 PUSH2 0x3030 JUMP JUMPDEST SWAP1 POP SWAP2 SWAP1 POP JUMP JUMPDEST PUSH1 0x0 PUSH1 0x20 DUP3 ADD SWAP1 POP DUP2 DUP2 SUB PUSH1 0x0 DUP4 ADD MSTORE PUSH2 0x360F DUP2 PUSH2 0x3096 JUMP JUMPDEST SWAP1 POP SWAP2 SWAP1 POP JUMP JUMPDEST PUSH1 0x0 PUSH1 0x20 DUP3 ADD SWAP1 POP DUP2 DUP2 SUB PUSH1 0x0 DUP4 ADD MSTORE PUSH2 0x362F DUP2 PUSH2 0x3122 JUMP JUMPDEST SWAP1 POP SWAP2 SWAP1 POP JUMP JUMPDEST PUSH1 0x0 PUSH1 0x20 DUP3 ADD SWAP1 POP PUSH2 0x364B PUSH1 0x0 DUP4 ADD DUP5 PUSH2 0x3188 JUMP JUMPDEST SWAP3 SWAP2 POP POP JUMP JUMPDEST PUSH1 0x0 PUSH1 0x40 DUP3 ADD SWAP1 POP PUSH2 0x3666 PUSH1 0x0 DUP4 ADD DUP6 PUSH2 0x3188 JUMP JUMPDEST PUSH2 0x3673 PUSH1 0x20 DUP4 ADD DUP5 PUSH2 0x3188 JUMP JUMPDEST SWAP4 SWAP3 POP POP POP JUMP JUMPDEST PUSH1 0x0 PUSH1 0x60 DUP3 ADD SWAP1 POP PUSH2 0x368F PUSH1 0x0 DUP4 ADD DUP7 PUSH2 0x3188 JUMP JUMPDEST PUSH2 0x369C PUSH1 0x20 DUP4 ADD DUP6 PUSH2 0x3188 JUMP JUMPDEST PUSH2 0x36A9 PUSH1 0x40 DUP4 ADD DUP5 PUSH2 0x3188 JUMP JUMPDEST SWAP5 SWAP4 POP POP POP POP JUMP JUMPDEST PUSH1 0x0 DUP3 DUP3 MSTORE PUSH1 0x20 DUP3 ADD SWAP1 POP SWAP3 SWAP2 POP POP JUMP JUMPDEST PUSH1 0x0 PUSH2 0x36CD DUP3 PUSH2 0x36E0 JUMP JUMPDEST SWAP1 POP SWAP2 SWAP1 POP JUMP JUMPDEST PUSH1 0x0 DUP2 ISZERO ISZERO SWAP1 POP SWAP2 SWAP1 POP JUMP JUMPDEST PUSH1 0x0 PUSH20 0xFFFFFFFFFFFFFFFFFFFFFFFFFFFFFFFFFFFFFFFF DUP3 AND SWAP1 POP SWAP2 SWAP1 POP JUMP JUMPDEST PUSH1 0x0 DUP2 SWAP1 POP SWAP2 SWAP1 POP JUMP JUMPDEST PUSH1 0x0 PUSH2 0x3715 DUP3 PUSH2 0x371C JUMP JUMPDEST SWAP1 POP SWAP2 SWAP1 POP JUMP JUMPDEST PUSH1 0x0 PUSH2 0x3727 DUP3 PUSH2 0x372E JUMP JUMPDEST SWAP1 POP SWAP2 SWAP1 POP JUMP JUMPDEST PUSH1 0x0 PUSH2 0x3739 DUP3 PUSH2 0x36E0 JUMP JUMPDEST SWAP1 POP SWAP2 SWAP1 POP JUMP JUMPDEST PUSH2 0x3749 DUP2 PUSH2 0x36C2 JUMP JUMPDEST DUP2 EQ PUSH2 0x3754 JUMPI PUSH1 0x0 DUP1 REVERT JUMPDEST POP JUMP JUMPDEST PUSH2 0x3760 DUP2 PUSH2 0x36D4 JUMP JUMPDEST DUP2 EQ PUSH2 0x376B JUMPI PUSH1 0x0 DUP1 REVERT JUMPDEST POP JUMP JUMPDEST PUSH2 0x3777 DUP2 PUSH2 0x3700 JUMP JUMPDEST DUP2 EQ PUSH2 0x3782 JUMPI PUSH1 0x0 DUP1 REVERT JUMPDEST POP JUMP INVALID LOG3 PUSH6 0x627A7A723058 KECCAK256 DUP12 0xec 0xa9 0xee 0xbd BALANCE 0xcf PUSH31 0xF175F81E7095D744C656BF1F9C7C4BD4405AA3217F32C0666C657870657269 PUSH14 0x656E74616CF564736F6C63430005 EXP STOP BLOCKHASH "
    }
  },
  "interface": [
    {
      "constant": false,
      "inputs": [
        {
          "name": "value",
          "type": "uint256"
        },
        {
          "name": "grantee",
          "type": "address"
        }
      ],
      "name": "withdrawPayout",
      "outputs": [
        {
          "name": "",
          "type": "bool"
        }
      ],
      "payable": false,
      "stateMutability": "nonpayable",
      "type": "function"
    },
    {
      "constant": false,
      "inputs": [
        {
          "name": "support",
          "type": "bool"
        },
        {
          "name": "value",
          "type": "uint256"
        }
      ],
      "name": "signal",
      "outputs": [
        {
          "name": "",
          "type": "bool"
        }
      ],
      "payable": true,
      "stateMutability": "payable",
      "type": "function"
    },
    {
      "constant": true,
      "inputs": [],
      "name": "fundingExpiration",
      "outputs": [
        {
          "name": "",
          "type": "uint256"
        }
      ],
      "payable": false,
      "stateMutability": "view",
      "type": "function"
    },
    {
      "constant": true,
      "inputs": [
        {
          "name": "toCheck",
          "type": "address"
        }
      ],
      "name": "isDonor",
      "outputs": [
        {
          "name": "",
          "type": "bool"
        }
      ],
      "payable": false,
      "stateMutability": "view",
      "type": "function"
    },
    {
      "constant": true,
      "inputs": [
        {
          "name": "toCheck",
          "type": "address"
        }
      ],
      "name": "isGrantee",
      "outputs": [
        {
          "name": "",
          "type": "bool"
        }
      ],
      "payable": false,
      "stateMutability": "view",
      "type": "function"
    },
    {
      "constant": true,
      "inputs": [],
      "name": "manager",
      "outputs": [
        {
          "name": "",
          "type": "address"
        }
      ],
      "payable": false,
      "stateMutability": "view",
      "type": "function"
    },
    {
      "constant": true,
      "inputs": [],
      "name": "grantCancelled",
      "outputs": [
        {
          "name": "",
          "type": "bool"
        }
      ],
      "payable": false,
      "stateMutability": "view",
      "type": "function"
    },
    {
      "constant": true,
      "inputs": [
        {
          "name": "grantee",
          "type": "address"
        }
      ],
      "name": "remainingAllocation",
      "outputs": [
        {
          "name": "",
          "type": "uint256"
        }
      ],
      "payable": false,
      "stateMutability": "view",
      "type": "function"
    },
    {
      "constant": true,
      "inputs": [
        {
          "name": "",
          "type": "address"
        }
      ],
      "name": "grantees",
      "outputs": [
        {
          "name": "targetFunding",
          "type": "uint256"
        },
        {
          "name": "totalPayed",
          "type": "uint256"
        },
        {
          "name": "payoutApproved",
          "type": "uint256"
        }
      ],
      "payable": false,
      "stateMutability": "view",
      "type": "function"
    },
    {
      "constant": false,
      "inputs": [],
      "name": "cancelGrant",
      "outputs": [],
      "payable": false,
      "stateMutability": "nonpayable",
      "type": "function"
    },
    {
      "constant": false,
      "inputs": [
        {
          "name": "value",
          "type": "uint256"
        },
        {
          "name": "grantee",
          "type": "address"
        }
      ],
      "name": "approvePayout",
      "outputs": [],
      "payable": false,
      "stateMutability": "nonpayable",
      "type": "function"
    },
    {
      "constant": false,
      "inputs": [
        {
          "name": "donor",
          "type": "address"
        }
      ],
      "name": "withdrawRefund",
      "outputs": [
        {
          "name": "",
          "type": "bool"
        }
      ],
      "payable": false,
      "stateMutability": "nonpayable",
      "type": "function"
    },
    {
      "constant": true,
      "inputs": [],
      "name": "contractExpiration",
      "outputs": [
        {
          "name": "",
          "type": "uint256"
        }
      ],
      "payable": false,
      "stateMutability": "view",
      "type": "function"
    },
    {
      "constant": true,
      "inputs": [],
      "name": "availableBalance",
      "outputs": [
        {
          "name": "",
          "type": "uint256"
        }
      ],
      "payable": false,
      "stateMutability": "view",
      "type": "function"
    },
    {
      "constant": true,
      "inputs": [],
      "name": "canFund",
      "outputs": [
        {
          "name": "",
          "type": "bool"
        }
      ],
      "payable": false,
      "stateMutability": "view",
      "type": "function"
    },
    {
      "constant": true,
      "inputs": [],
      "name": "totalPayed",
      "outputs": [
        {
          "name": "",
          "type": "uint256"
        }
      ],
      "payable": false,
      "stateMutability": "view",
      "type": "function"
    },
    {
      "constant": true,
      "inputs": [
        {
          "name": "",
          "type": "address"
        }
      ],
      "name": "donors",
      "outputs": [
        {
          "name": "funded",
          "type": "uint256"
        },
        {
          "name": "refunded",
          "type": "uint256"
        }
      ],
      "payable": false,
      "stateMutability": "view",
      "type": "function"
    },
    {
      "constant": false,
      "inputs": [
        {
          "name": "value",
          "type": "uint256"
        }
      ],
      "name": "fund",
      "outputs": [
        {
          "name": "",
          "type": "bool"
        }
      ],
      "payable": false,
      "stateMutability": "nonpayable",
      "type": "function"
    },
    {
      "constant": false,
      "inputs": [
        {
          "name": "value",
          "type": "uint256"
        },
        {
          "name": "grantee",
          "type": "address"
        }
      ],
      "name": "approveRefund",
      "outputs": [],
      "payable": false,
      "stateMutability": "nonpayable",
      "type": "function"
    },
    {
      "constant": true,
      "inputs": [],
      "name": "totalRefunded",
      "outputs": [
        {
          "name": "",
          "type": "uint256"
        }
      ],
      "payable": false,
      "stateMutability": "view",
      "type": "function"
    },
    {
      "constant": true,
      "inputs": [],
      "name": "currency",
      "outputs": [
        {
          "name": "",
          "type": "address"
        }
      ],
      "payable": false,
      "stateMutability": "view",
      "type": "function"
    },
    {
      "constant": true,
      "inputs": [
        {
          "name": "toCheck",
          "type": "address"
        }
      ],
      "name": "isManager",
      "outputs": [
        {
          "name": "",
          "type": "bool"
        }
      ],
      "payable": false,
      "stateMutability": "view",
      "type": "function"
    },
    {
      "constant": true,
      "inputs": [],
      "name": "targetFunding",
      "outputs": [
        {
          "name": "",
          "type": "uint256"
        }
      ],
      "payable": false,
      "stateMutability": "view",
      "type": "function"
    },
    {
      "constant": true,
      "inputs": [],
      "name": "pendingPayments",
      "outputs": [
        {
          "name": "",
          "type": "uint256"
        }
      ],
      "payable": false,
      "stateMutability": "view",
      "type": "function"
    },
    {
      "constant": true,
      "inputs": [],
      "name": "totalFunding",
      "outputs": [
        {
          "name": "",
          "type": "uint256"
        }
      ],
      "payable": false,
      "stateMutability": "view",
      "type": "function"
    },
    {
      "inputs": [
        {
          "name": "_grantees",
          "type": "address[]"
        },
        {
          "name": "_amounts",
          "type": "uint256[]"
        },
        {
          "name": "_manager",
          "type": "address"
        },
        {
          "name": "_currency",
          "type": "address"
        },
        {
          "name": "_targetFunding",
          "type": "uint256"
        },
        {
          "name": "_fundingExpiration",
          "type": "uint256"
        },
        {
          "name": "_contractExpiration",
          "type": "uint256"
        }
      ],
      "payable": false,
      "stateMutability": "nonpayable",
      "type": "constructor"
    },
    {
      "payable": true,
      "stateMutability": "payable",
      "type": "fallback"
    },
    {
      "anonymous": false,
      "inputs": [
        {
          "indexed": true,
          "name": "support",
          "type": "bool"
        },
        {
          "indexed": true,
          "name": "signaler",
          "type": "address"
        },
        {
          "indexed": true,
          "name": "token",
          "type": "address"
        },
        {
          "indexed": false,
          "name": "value",
          "type": "uint256"
        }
      ],
      "name": "LogSignal",
      "type": "event"
    },
    {
      "anonymous": false,
      "inputs": [],
      "name": "LogFundingComplete",
      "type": "event"
    },
    {
      "anonymous": false,
      "inputs": [],
      "name": "LogGrantCancellation",
      "type": "event"
    },
    {
      "anonymous": false,
      "inputs": [
        {
          "indexed": true,
          "name": "donor",
          "type": "address"
        },
        {
          "indexed": false,
          "name": "value",
          "type": "uint256"
        }
      ],
      "name": "LogFunding",
      "type": "event"
    },
    {
      "anonymous": false,
      "inputs": [
        {
          "indexed": true,
          "name": "donor",
          "type": "address"
        },
        {
          "indexed": false,
          "name": "value",
          "type": "uint256"
        }
      ],
      "name": "LogRefund",
      "type": "event"
    },
    {
      "anonymous": false,
      "inputs": [
        {
          "indexed": true,
          "name": "grantee",
          "type": "address"
        },
        {
          "indexed": false,
          "name": "value",
          "type": "uint256"
        }
      ],
      "name": "LogPayment",
      "type": "event"
    },
    {
      "anonymous": false,
      "inputs": [
        {
          "indexed": true,
          "name": "grantee",
          "type": "address"
        },
        {
          "indexed": false,
          "name": "value",
          "type": "uint256"
        }
      ],
      "name": "LogPaymentApproval",
      "type": "event"
    },
    {
      "anonymous": false,
      "inputs": [
        {
          "indexed": false,
          "name": "amount",
          "type": "uint256"
        },
        {
          "indexed": false,
          "name": "totalRefunded",
          "type": "uint256"
        }
      ],
      "name": "LogRefundApproval",
      "type": "event"
    }
  ]
}