{
  "contractName": "Grant",
  "abi": [
    {
      "anonymous": false,
      "inputs": [
        {
          "indexed": true,
          "name": "voter",
          "type": "address"
        },
        {
          "indexed": true,
          "name": "token",
          "type": "address"
        },
        {
          "indexed": false,
          "name": "value",
          "type": "uint256"
        }
      ],
      "name": "LogVote",
      "type": "event"
    },
    {
      "anonymous": false,
      "inputs": [
        {
          "indexed": true,
          "name": "id",
          "type": "bytes32"
        },
        {
          "indexed": false,
          "name": "grantStatus",
          "type": "uint8"
        }
      ],
      "name": "LogStatusChange",
      "type": "event"
    },
    {
      "anonymous": false,
      "inputs": [
        {
          "indexed": true,
          "name": "id",
          "type": "bytes32"
        },
        {
          "indexed": true,
          "name": "grantor",
          "type": "address"
        },
        {
          "indexed": false,
          "name": "value",
          "type": "uint256"
        }
      ],
      "name": "LogFunding",
      "type": "event"
    },
    {
      "anonymous": false,
      "inputs": [
        {
          "indexed": true,
          "name": "id",
          "type": "bytes32"
        },
        {
          "indexed": true,
          "name": "grantor",
          "type": "address"
        },
        {
          "indexed": false,
          "name": "value",
          "type": "uint256"
        }
      ],
      "name": "LogRefund",
      "type": "event"
    },
    {
      "anonymous": false,
      "inputs": [
        {
          "indexed": true,
          "name": "id",
          "type": "bytes32"
        },
        {
          "indexed": true,
          "name": "grantee",
          "type": "address"
        },
        {
          "indexed": false,
          "name": "value",
          "type": "uint256"
        }
      ],
      "name": "LogPayment",
      "type": "event"
    },
    {
      "constant": false,
      "inputs": [
        {
          "components": [
            {
              "name": "grantee",
              "type": "address"
            },
            {
              "name": "allocation",
              "type": "uint256"
            },
            {
              "name": "received",
              "type": "uint256"
            }
          ],
          "name": "grantees",
          "type": "tuple[]"
        },
        {
          "components": [
            {
              "name": "grantManager",
              "type": "address"
            },
            {
              "name": "weight",
              "type": "uint8"
            }
          ],
          "name": "grantManagers",
          "type": "tuple[]"
        },
        {
          "name": "currency",
          "type": "address"
        },
        {
          "name": "targetFunding",
          "type": "uint256"
        },
        {
          "name": "expiration",
          "type": "uint256"
        },
        {
          "name": "grantType",
          "type": "uint8"
        },
        {
          "name": "extraData",
          "type": "bytes"
        }
      ],
      "name": "create",
      "outputs": [
        {
          "name": "id",
          "type": "bytes32"
        }
      ],
      "payable": false,
      "stateMutability": "nonpayable",
      "type": "function"
    },
    {
      "constant": false,
      "inputs": [
        {
          "name": "id",
          "type": "bytes32"
        },
        {
          "name": "value",
          "type": "uint256"
        }
      ],
      "name": "fund",
      "outputs": [
        {
          "name": "balance",
          "type": "uint256"
        }
      ],
      "payable": true,
      "stateMutability": "payable",
      "type": "function"
    },
    {
      "constant": false,
      "inputs": [
        {
          "name": "id",
          "type": "bytes32"
        },
        {
          "name": "grantee",
          "type": "address"
        },
        {
          "name": "value",
          "type": "uint256"
        }
      ],
      "name": "payout",
      "outputs": [
        {
          "name": "balance",
          "type": "uint256"
        }
      ],
      "payable": false,
      "stateMutability": "nonpayable",
      "type": "function"
    },
    {
      "constant": false,
      "inputs": [
        {
          "name": "id",
          "type": "bytes32"
        },
        {
          "name": "grantor",
          "type": "address"
        },
        {
          "name": "value",
          "type": "uint256"
        }
      ],
      "name": "refund",
      "outputs": [
        {
          "name": "",
          "type": "bool"
        }
      ],
      "payable": false,
      "stateMutability": "nonpayable",
      "type": "function"
    },
    {
      "constant": false,
      "inputs": [
        {
          "name": "id",
          "type": "bytes32"
        }
      ],
      "name": "refundAll",
      "outputs": [
        {
          "name": "",
          "type": "bool"
        }
      ],
      "payable": false,
      "stateMutability": "nonpayable",
      "type": "function"
    },
    {
      "constant": false,
      "inputs": [
        {
          "name": "id",
          "type": "bytes32"
        }
      ],
      "name": "cancelGrant",
      "outputs": [
        {
          "name": "",
          "type": "bool"
        }
      ],
      "payable": false,
      "stateMutability": "nonpayable",
      "type": "function"
    },
    {
      "constant": false,
      "inputs": [
        {
          "name": "id",
          "type": "bytes32"
        },
        {
          "name": "token",
          "type": "address"
        },
        {
          "name": "value",
          "type": "uint256"
        }
      ],
      "name": "signal",
      "outputs": [
        {
          "name": "",
          "type": "bool"
        }
      ],
      "payable": true,
      "stateMutability": "payable",
      "type": "function"
    }
  ],
  "bytecode": "0x608060405234801561001057600080fd5b50610879806100206000396000f3fe60806040526004361061008d576000357c0100000000000000000000000000000000000000000000000000000000900480635614dc001161006b5780635614dc00146101495780635983f2f71461018657806362cfa509146101b6578063e46bbc9e146101f35761008d565b80631f52f7fa14610092578063311138a5146100cf5780634020ed141461010c575b600080fd5b34801561009e57600080fd5b506100b960048036036100b49190810190610562565b610223565b6040516100c6919061070a565b60405180910390f35b3480156100db57600080fd5b506100f660048036036100f19190810190610446565b61022f565b60405161010391906106cf565b60405180910390f35b34801561011857600080fd5b50610133600480360361012e9190810190610562565b610283565b60405161014091906106b4565b60405180910390f35b34801561015557600080fd5b50610170600480360361016b9190810190610539565b610290565b60405161017d91906106b4565b60405180910390f35b6101a0600480360361019b9190810190610562565b61029b565b6040516101ad91906106b4565b60405180910390f35b3480156101c257600080fd5b506101dd60048036036101d89190810190610539565b6102a8565b6040516101ea91906106b4565b60405180910390f35b61020d600480360361020891908101906105b1565b6102b3565b60405161021a919061070a565b60405180910390f35b60008190509392505050565b600080336102476001436102be90919063ffffffff16565b40604051602001610259929190610688565b604051602081830303815290604052805190602001209050809150509a9950505050505050505050565b6000600190509392505050565b600060019050919050565b6000600190509392505050565b600060019050919050565b600081905092915050565b600082821115610303576040517f08c379a00000000000000000000000000000000000000000000000000000000081526004016102fa906106ea565b60405180910390fd5b600082840390508091505092915050565b600081359050610323816107e1565b92915050565b60008083601f84011261033b57600080fd5b8235905067ffffffffffffffff81111561035457600080fd5b60208301915083604082028301111561036c57600080fd5b9250929050565b60008083601f84011261038557600080fd5b8235905067ffffffffffffffff81111561039e57600080fd5b6020830191508360608202830111156103b657600080fd5b9250929050565b6000813590506103cc816107f8565b92915050565b60008083601f8401126103e457600080fd5b8235905067ffffffffffffffff8111156103fd57600080fd5b60208301915083600182028301111561041557600080fd5b9250929050565b60008135905061042b8161080f565b92915050565b6000813590506104408161081f565b92915050565b60008060008060008060008060008060e08b8d03121561046557600080fd5b60008b013567ffffffffffffffff81111561047f57600080fd5b61048b8d828e01610373565b9a509a505060208b013567ffffffffffffffff8111156104aa57600080fd5b6104b68d828e01610329565b985098505060406104c98d828e01610314565b96505060606104da8d828e01610431565b95505060806104eb8d828e01610431565b94505060a06104fc8d828e0161041c565b93505060c08b013567ffffffffffffffff81111561051957600080fd5b6105258d828e016103d2565b92509250509295989b9194979a5092959850565b60006020828403121561054b57600080fd5b6000610559848285016103bd565b91505092915050565b60008060006060848603121561057757600080fd5b6000610585868287016103bd565b935050602061059686828701610314565b92505060406105a786828701610431565b9150509250925092565b600080604083850312156105c457600080fd5b60006105d2858286016103bd565b92505060206105e385828601610431565b9150509250929050565b6105fe6105f982610748565b61079a565b82525050565b61060d8161075a565b82525050565b61061c81610766565b82525050565b61063361062e82610766565b6107ac565b82525050565b6000610646601e83610725565b91507f536166654d6174683a207375627472616374696f6e206f766572666c6f7700006000830152602082019050919050565b61068281610790565b82525050565b600061069482856105ed565b6014820191506106a48284610622565b6020820191508190509392505050565b60006020820190506106c96000830184610604565b92915050565b60006020820190506106e46000830184610613565b92915050565b6000602082019050818103600083015261070381610639565b9050919050565b600060208201905061071f6000830184610679565b92915050565b600082825260208201905092915050565b600061074182610770565b9050919050565b600061075382610770565b9050919050565b60008115159050919050565b6000819050919050565b600073ffffffffffffffffffffffffffffffffffffffff82169050919050565b6000819050919050565b60006107a5826107b6565b9050919050565b6000819050919050565b60006107c1826107c8565b9050919050565b60006c0100000000000000000000000082029050919050565b6107ea81610736565b81146107f557600080fd5b50565b61080181610766565b811461080c57600080fd5b50565b6004811061081c57600080fd5b50565b61082881610790565b811461083357600080fd5b5056fea365627a7a72305820544e1e40686378f603745eb1c5615afd949738c418ece5efdcc7455048ba5a5f6c6578706572696d656e74616cf564736f6c634300050a0040",
  "source": "pragma solidity >=0.5.10 <0.6.0;\npragma experimental ABIEncoderV2;\n\nimport \"openzeppelin-solidity/contracts/math/SafeMath.sol\";\nimport \"./IGrant.sol\";\nimport \"./ISignal.sol\";\n\n\n/**\n * @title Grants Spec Contract.\n * @dev Grant request, funding, and management.\n * @author @NoahMarconi @JFickel @ArnaudBrousseau\n */\ncontract Grant is IGrant, ISignal {\n    using SafeMath for uint256;\n\n\n    /*----------  Globals  ----------*/\n\n    mapping(bytes32 => Grant) grants; // Grants mapped by GUID.\n\n\n    /*----------  Methods  ----------*/\n\n    /**\n     * @dev Grant creation function. May be called by grantors, grantees, or any other relevant party.\n     * @param grantees Recipients of unlocked funds and their respective allocations.\n     * @param grantManagers (Optional) Weighted managers of distribution of funds.\n     * @param currency (Optional) If null, amount is in wei, otherwise address of ERC20-compliant contract.\n     * @param targetFunding (Optional) Funding threshold required to release funds.\n     * @param expiration (Optional) Block number after which votes OR funds (dependant on GrantType) cannot be sent.\n     * @param grantType Which grant success scheme to apply to this grant.\n     * @param extraData Support for extensions to the Standard.\n     * @return GUID for this grant.\n     */\n    function create(\n        Grantee[] calldata grantees,\n        GrantManager[] calldata grantManagers,\n        address currency,\n        uint256 targetFunding,\n        uint256 expiration,\n        GrantType grantType,\n        bytes calldata extraData\n    )\n        external\n        returns (bytes32 id)\n    {\n        bytes32 _id = keccak256(abi.encodePacked(\n            msg.sender,\n            // solium-disable-next-line security/no-block-members\n            blockhash(block.number.sub(1))\n        ));\n\n        return _id;\n    }\n\n    /**\n     * @dev Fund a grant proposal.\n     * @param id GUID for the grant to fund.\n     * @param value Amount in WEI or GRAINS to fund.\n     * @return Cumulative funding received for this grant.\n     */\n    function fund(bytes32 id, uint256 value)\n        external\n        payable\n        returns (uint256 balance)\n    {\n        return value;\n    }\n\n    /**\n     * @dev Pay a grantee.\n     * @param id GUID for the grant to fund.\n     * @param grantee Recipient of payment.\n     * @param value Amount in WEI or GRAINS to fund.\n     * @return Remaining funding available in this grant.\n     */\n    function payout(bytes32 id, address grantee, uint256 value)\n        external\n        returns (uint256 balance)\n    {\n        return value;\n    }\n\n    /**\n     * @dev Refund a grantor.\n     * @param id GUID for the grant to refund.\n     * @param grantor Recipient of refund.\n     * @param value Amount in WEI or GRAINS to fund.\n     * @return True if successful, otherwise false.\n     */\n    function refund(bytes32 id, address grantor, uint256 value)\n        external\n        returns (bool)\n    {\n        return true;\n    }\n\n    /**\n     * @dev Refund all grantors.\n     * @param id GUID for the grant to refund.\n     * @return True if successful, otherwise false.\n     */\n    function refundAll(bytes32 id)\n        external\n        returns (bool)\n    {\n        return true;\n    }\n\n    /**\n     * @dev Cancel grant and enable refunds.\n     * @param id GUID for the grant to refund.\n     * @return True if successful, otherwise false.\n     */\n    function cancelGrant(bytes32 id)\n        external\n        returns (bool)\n    {\n        return true;\n    }\n\n        /**\n     * @dev Voting Signal Method.\n     * @param id The ID of the grant to vote in favor for.\n     * @param token Address of token or NULL for Ether based vote.\n     * @param value Number of votes denoted in Token GRAINs or WEI.\n     * @return True if successful, otherwise false.\n     */\n    function signal(bytes32 id, address token, uint256 value)\n        external\n        payable\n        returns (bool)\n    {\n        return true;\n    }\n}\n",
  "sourcePath": "/Users/noahmarconi/dev/grant-contracts/contracts/Grant.sol",
  "compiler": {
    "name": "solc",
    "version": "0.5.10+commit.5a6ea5b1.Emscripten.clang"
  },
  "schemaVersion": "3.0.5",
  "updatedAt": "2019-07-17T20:05:34.954Z",
  "devdoc": {
    "author": "@NoahMarconi @JFickel @ArnaudBrousseau",
    "details": "Grant request, funding, and management.",
    "methods": {
      "cancelGrant(bytes32)": {
        "details": "Cancel grant and enable refunds.",
        "params": {
          "id": "GUID for the grant to refund."
        },
        "return": "True if successful, otherwise false."
      },
      "create((address,uint256,uint256)[],(address,uint8)[],address,uint256,uint256,uint8,bytes)": {
        "details": "Grant creation function. May be called by grantors, grantees, or any other relevant party.",
        "params": {
          "currency": "(Optional) If null, amount is in wei, otherwise address of ERC20-compliant contract.",
          "expiration": "(Optional) Block number after which votes OR funds (dependant on GrantType) cannot be sent.",
          "extraData": "Support for extensions to the Standard.",
          "grantManagers": "(Optional) Weighted managers of distribution of funds.",
          "grantType": "Which grant success scheme to apply to this grant.",
          "grantees": "Recipients of unlocked funds and their respective allocations.",
          "targetFunding": "(Optional) Funding threshold required to release funds."
        },
        "return": "GUID for this grant."
      },
      "fund(bytes32,uint256)": {
        "details": "Fund a grant proposal.",
        "params": {
          "id": "GUID for the grant to fund.",
          "value": "Amount in WEI or GRAINS to fund."
        },
        "return": "Cumulative funding received for this grant."
      },
      "payout(bytes32,address,uint256)": {
        "details": "Pay a grantee.",
        "params": {
          "grantee": "Recipient of payment.",
          "id": "GUID for the grant to fund.",
          "value": "Amount in WEI or GRAINS to fund."
        },
        "return": "Remaining funding available in this grant."
      },
      "refund(bytes32,address,uint256)": {
        "details": "Refund a grantor.",
        "params": {
          "grantor": "Recipient of refund.",
          "id": "GUID for the grant to refund.",
          "value": "Amount in WEI or GRAINS to fund."
        },
        "return": "True if successful, otherwise false."
      },
      "refundAll(bytes32)": {
        "details": "Refund all grantors.",
        "params": {
          "id": "GUID for the grant to refund."
        },
        "return": "True if successful, otherwise false."
      },
      "signal(bytes32,address,uint256)": {
        "details": "Voting Signal Method.",
        "params": {
          "id": "The ID of the grant to vote in favor for.",
          "token": "Address of token or NULL for Ether based vote.",
          "value": "Number of votes denoted in Token GRAINs or WEI."
        },
        "return": "True if successful, otherwise false."
      }
    },
    "title": "Grants Spec Contract."
  },
  "userdoc": {
    "methods": {}
  }
}